:020000040800F2
:10000000000002200916000881120008871200086B
:100010008D120008931200089912000800000000D9
:100020000000000000000000000000009F12000817
:10003000AD12000800000000BB120008C912000841
:1000400059160008591600085916000859160008D4
:1000500059160008591600085916000859160008C4
:1000600059160008591600085916000859160008B4
:1000700059160008591600085916000859160008A4
:100080005916000859160008591600085916000894
:100090005916000859160008591600085916000884
:1000A0005916000859160008591600085916000874
:1000B0005916000859160008591600085916000864
:1000C0005916000859160008591600085916000854
:1000D0005916000859160008591600085916000844
:1000E0005916000859160008591600085916000834
:1000F0005916000859160008591600085916000824
:100100005916000859160008591600085916000813
:100110005916000859160008591600085916000803
:1001200059160008591600085916000859160008F3
:1001300059160008000000000000000059160008D1
:1001400059160008591600085916000859160008D3
:1001500059160008591600085916000859160008C3
:1001600059160008591600085916000859160008B3
:10017000591600085916000859160008000000001A
:1001800000000000591600080000000000000000F8
:100190005916000800000000000000005916000871
:1001A00000000000000000000000000059160008D8
:1001B0005916000859160008591600085916000863
:0401C00059160008C4
:1001D00010B5054C237833B9044B13B10448AFF381
:1001E00000800123237010BD6C000020000000007F
:1001F000F043000808B5034B1BB103490348AFF3B4
:10020000008008BD0000000070000020F0430008DE
:1002100001F0FF01102A2BDB10F0070F08D010F8B7
:10022000013B013A8B422DD010F0070F42B3F6D1BB
:10023000F0B441EA012141EA014122F007047FF0D4
:1002400000070023F0E80256083C85EA010586EA2B
:10025000010685FA47F5A3FA87F586FA47F6A5FA67
:1002600087F68EB9EED1F0BC01F0FF0102F0070273
:1002700032B110F8013B013A83EA010313B1F8D11E
:100280000020704701387047002D06BF35460338FF
:10029000073815F0010F07D1013015F4807F02BF38
:1002A000013015F4C03F0130F0BC0138704700BF89
:1002B00053B94AB9002908BF00281CBF4FF0FF31CD
:1002C0004FF0FF3000F070B9ADF1080C6DE904CECD
:1002D00000F006F8DDF804E0DDE9022304B0704721
:1002E0002DE9F047089E0D4604460F46002B4AD1E3
:1002F0008A42944665D9B2FA82F343B102FA03FC0A
:10030000C3F120029F4020FA02F217439C404FEABB
:100310001C4E1FFA8CF5B7FBFEF1220C0EFB117779
:1003200042EA074201FB05F090420AD91CEB0202A7
:1003300001F1FF3780F01C81904240F219810239AF
:100340006244121AA4B2B2FBFEF00EFB102244EA81
:10035000024400FB05F5A5420AD91CEB040400F198
:10036000FF3280F00781A54240F2048164440238E4
:1003700040EA0140641B00211EB1DC400023C6E9B5
:100380000043BDE8F0878B4208D9002E00F0ED80D5
:100390000021C6E900050846BDE8F087B3FA83F1FD
:1003A000002949D1AB4202D3824200F2F880841A7C
:1003B00065EB030201201746002EE2D0C6E9004794
:1003C000DFE702B9FFDEB2FA82F3002B40F0908043
:1003D0008A1A4FEA1C471FFA8CFE0121B2FBF7F57F
:1003E00007FB1520220C42EA00420EFB05F090426A
:1003F00008D91CEB020205F1FF3802D2904200F24C
:10040000CB804546121AA4B2B2FBF7F007FB1022CC
:1004100044EA02440EFB00FEA64508D91CEB040486
:1004200000F1FF3202D2A64500F2BB801046A4EBD9
:100430000E0440EA05409FE7C1F120078B4022FAF5
:1004400007FC4CEA030C05FA01F420FA07F3FD401F
:100450004FEA1C492343B5FBF9F81FFA8CFE09FB50
:1004600018551C0C44EA054408FB0EF5A54202FA97
:1004700001F200FA01F00BD91CEB040408F1FF3A79
:1004800080F08880A54240F28580A8F1020864448B
:10049000641B9DB2B4FBF9F309FB134445EA044421
:1004A00003FB0EFEA64508D91CEB040403F1FF353F
:1004B0006CD2A6456AD9023B644443EA0843A3FBD5
:1004C0000295A4EB0E04AC42C846AE4656D353D0B8
:1004D00056B1B0EB080264EB0E0404FA07F7CA4009
:1004E000CC401743C6E9007418460021BDE8F087E8
:1004F000C3F1200102FA03FC20FA01F225FA01F10E
:100500009D402A434FEA1C471FFA8CFEB1FBF7F0CF
:1005100007FB1015110C41EA054100FB0EF58D4259
:1005200004FA03F408D91CEB010100F1FF382FD2C3
:100530008D422DD902386144491B92B2B1FBF7F5C7
:1005400007FB151142EA014205FB0EF1914208D961
:100550001CEB020205F1FF3816D2914214D9023D7C
:100560006244521A45EA004138E73146304608E70E
:100570003946E6E61046FBE64845A9D2B9EB020843
:1005800065EB0C0E013BA3E74546EAE72B4694E7F3
:100590004046D1E7D0467BE7023D624432E7084659
:1005A0000AE76444023842E7704700BF0FB480B5E1
:1005B0009AB000AF00237B6007F10803602200219E
:1005C000184603F091FA07F174033B603B1D3A684B
:1005D000396F184603F07EFA391D4FF0FF3364225D
:1005E000044802F00FFE00BF6837BD46BDE88040FA
:1005F00004B070476001002080B582B000AF0023D6
:10060000FB710123BB710023BB80C8220021684815
:1006100003F06AFA4FF0FF3301226549654802F0A2
:100620007CFE0346BB71BB79002B02D00123FB711A
:10063000B9E05F4B1B78BB80BA884FF0FF335E494F
:100640005C4802F06AFE0346BB71BB79002B02D006
:100650000123FB71A7E0564B5B78103B122B00F295
:100660009E8001A252F823F0B5060008C7060008D4
:10067000D9060008EB060008FD0600080F07000871
:100680002107000845070008570700086907000808
:100690009F0700089F0700089F0700089F070008A2
:1006A0009F0700089F0700087B0700088D070008C8
:1006B000330700084148FFF779FF3D4800F05AF939
:1006C0000023FB716FE03E48FFF770FF384800F0F1
:1006D00083F90023FB7166E03A48FFF767FF34486F
:1006E00000F0A8F90023FB715DE03748FFF75EFFDB
:1006F0002F4800F0F5FB0023FB7154E03348FFF76F
:1007000055FF2B4800F054FA0023FB714BE03048B2
:10071000FFF74CFF264800F0DDFA0023FB7142E0B2
:100720002C48FFF743FF224800F068FB0023FB71D1
:1007300039E02948FFF73AFF1D4800F0B3F90023DC
:10074000FB7130E02548FFF731FF194800F005FC48
:100750000023FB7127E02248FFF728FF144800F030
:1007600006FC0023FB711EE01E48FFF71FFF104828
:1007700000F007FC0023FB7115E01B48FFF716FF94
:100780000B4800F008FC0023FB710CE01748FFF752
:100790000DFF074800F0D7FB0023FB7103E014486E
:1007A000FFF704FF00BFFB7918460837BD4680BD40
:1007B00088000020F0010020890000200844000883
:1007C00028440008484400085C44000878440008B5
:1007D000B4440008DC4400082845000868450008C7
:1007E000B4450008F04500081C46000838460008DB
:1007F0005046000880B582B000AF786039603B6831
:100800009AB24FF0FF337968034802F0FBFC00BF57
:100810000837BD4680BD00BFF001002080B584B020
:1008200000AF0346FB710023BB81CD233B73FB79F3
:100830007B7307F10C0302211846FFF7DBFF00BFB3
:100840001037BD4680BD80B582B000AFAB23FB71D1
:10085000FB1D01211846FFF7CDFF00BF0837BD463D
:1008600080BD000080B588B000AFF860B9607A60E4
:100870000023FB770023BB610023FB7500233B6152
:100880000023FB750FE0FB7DFA6813441B783B6186
:1008900007F1100301221946104801F052F8B8611F
:1008A000FB7D0133FB75FB7DBA689A42EBD80B4B9D
:1008B0001B689A68094B1B6842F001029A60BA698A
:1008C0007B689A4202D10123FB7701E00023FB778A
:1008D000FB7F18462037BD4680BD00BF5001002079
:1008E00080B48BB000AFF860B9607A60002387F8FD
:1008F000273000237B614FF0FF333B620023FB6115
:100900001FE0FA68FB6913441B781A463B6A5340A0
:100910003B620023BB610EE03B6A002B05DA3B6AB9
:100920005A00134B53403B6202E03B6A5B003B6260
:10093000BB690133BB61BB691F2BEDD9FB69013377
:10094000FB61FA69BB689A42DBD33A6A7B689A42D8
:1009500003D1012387F8273002E0002387F82730EE
:1009600097F8273018462C37BD465DF8047B704752
:10097000C11CC70880B586B000AF7860154BFB601E
:100980000023FB8200233B617B681B789BB2013311
:10099000FB82FB8A043B7A6813441B683B61FB8A39
:1009A000043B3A6919467868FFF79AFF0346012B22
:1009B00009D10420FFF732FF07F10C030421184688
:1009C000FFF718FF01E0FFF73EFF00BF1837BD46F5
:1009D00080BD00BF6401000180B584B000AF7860C5
:1009E0000023FB810023BB607B681B789BB2013333
:1009F000FB81FB89043B7A6813441B68BB60FB895D
:100A0000043BBA6819467868FFF76AFF0346012B72
:100A100007D10C20FFF702FF0C210548FFF7EAFE83
:100A200001E0FFF710FF00BF1037BD4680BD00BFDB
:100A30000000002080B586B000AF78600023FB8204
:100A400000233B610023FB817B681B789BB2013351
:100A5000FB82FB8A043B7A6813441B683B61FB8A78
:100A6000043B3A6919467868FFF73AFF0346012BC1
:100A700010D10B4B1B689BB2C3F30B039BB2FB81E2
:100A80000220FFF7CBFE07F10E0302211846FFF705
:100A9000B1FE01E0FFF7D7FE00BF1837BD4680BDAD
:100AA000002004E080B588B000AF78600023FB83AD
:100AB0000023BB617B681B789BB20133FB83FB8BFC
:100AC000043B7A6813441B68BB61FB8B043BBA6927
:100AD00019467868FFF704FF0346012B1BD101205C
:100AE000FFF79CFE01210120FFF784FE00F01EF8B5
:100AF0000C4B1B687B610C4B1B683B613B69FB60CB
:100B00007B69BB60BB6883F3088800BF01F094FF7A
:100B1000FB68984701E0FFF796FE00BF2037BD460F
:100B200080BD00BF008000080480000880B584B04C
:100B300000AF084B1B68FB60FB6883F30888064B1B
:100B40001B68BB60BB687B607B68984700BF103741
:100B5000BD4680BD008000080480000880B485B0D8
:100B600000AF78600023FB737B68B3F1005F06D3AE
:100B70007B680D4A934202D80123FB730CE07B682B
:100B8000B3F1006F06D37B68084A934202D8012371
:100B9000FB7301E00023FB73FB7B18461437BD4653
:100BA0005DF8047B704700BF005000200000010882
:100BB00080B588B000AF78600023FB830023BB6161
:100BC00000237B610023FB737B681B789BB201339E
:100BD000FB83FB8B043B7A6813441B68BB61FB8B74
:100BE000043BBA6919467868FFF73CFE0346012BBF
:100BF00021D10120FFF712FE7B68D3F802307B6120
:100C00007869FFF7ABFF0346FB73FB7B012B0BD12E
:100C100007F10F0301211846FFF7ECFD7B69013353
:100C20003B613B69984708E007F10F030121184633
:100C3000FFF7E0FD01E0FFF706FE00BF2037BD46ED
:100C400080BD80B58AB000AF03460A46FB711346EB
:100C5000BB710023BB60012387F82730BB79072BCA
:100C600001D9122332E0FB79FF2B02D0BB79072B8D
:100C70002BD8BB79FF2B04D10123FB6001233B61FF
:100C80000FE0BB79C3F108033B62BB793A6A9A4231
:100C900001D23B6ABB710023FB60FB797B61BB79AE
:100CA000BB6100F0CDFE0223FB6107F1080207F1F2
:100CB0000C031146184601F035F8034687F8273033
:100CC00000F0E0FE97F8273000E01223184628379E
:100CD000BD4680BD80B586B000AF78600023FB8242
:100CE00000233B610023FB737B681B789BB20133BD
:100CF000FB82FB8A043B7A6813441B683B61FB8AD6
:100D0000043B3A6919467868FFF7EAFD0346012B70
:100D100015D10120FFF782FD7B6802331A787B68CA
:100D200003331B7819461046FFF78BFF0346FB730E
:100D300007F10F0301211846FFF75CFD01E0FFF703
:100D400082FD00BF1837BD4680BDB0B588B000AF8A
:100D5000F860B9601346FB800123FB770023BB7763
:100D600000237B8300237B6100F06AFE0346FB7750
:100D7000FB7F002B02D00023BB7725E00023BB8341
:100D80001EE0BB8BFA6813443B61BA8BBB68D11879
:100D90003B691B889BB200221C46154622462B4607
:100DA000012000F0F9FD0346FB77FB7F002B02D00A
:100DB0000023BB7708E00123BB77BB8B0233BB83E7
:100DC000BA8BFB889A42DCD3BB7F012B0FD1FB7F10
:100DD000002B0CD100F056FE0346FB77FB7F002B67
:100DE00002D00023BB7704E00123BB7701E000239E
:100DF000BB77BB7F18462037BD46B0BD80B586B0F7
:100E000000AF78600023FB8200233B610023FB607E
:100E10000023BB720023FB7200237B727B681B786C
:100E20009BB20133FB82FB8A043B7A6813441B6844
:100E30003B61FB8A043B3A6919467868FFF750FD2D
:100E40000346012B39D10120FFF7E8FC7B689B7931
:100E5000FB727B68D3F80230FB60F868FFF77EFE18
:100E60000346BB72BB7A012B1ED17B680733FA7A2B
:100E700092B2F9681846FFF768FF03467B727B7AE7
:100E8000012B0AD107F1090301211846FFF7B2FC33
:100E90000121CD20FFF7AEFC11E007F1090301218C
:100EA0001846FFF7A7FC0AE00023BB7207F10A030C
:100EB00001211846FFF79EFC01E0FFF7C4FC00BFCC
:100EC0001837BD4680BD80B588B000AF3B1D1846C1
:100ED00000F098FF7B69DBB218462037BD4680BD25
:100EE00080B586B000AF78600023FB8200233B61B1
:100EF0000023FB737B681B789BB20133FB82FB8A68
:100F0000043B7A6813441B683B61FB8A043B3A69E3
:100F100019467868FFF7E4FC0346012B0DD1012048
:100F2000FFF77CFCFFF7CFFF0346FB7307F10F03CE
:100F300001211846FFF75EFC01E0FFF784FC00BFCB
:100F40001837BD4680BD80B483B000AF786000BF65
:100F50000C37BD465DF8047B704780B483B000AFAA
:100F6000786000BF0C37BD465DF8047B704780B4E5
:100F700083B000AF786000BF0C37BD465DF8047BDE
:100F8000704780B483B000AF786000BF0C37BD46B7
:100F90005DF8047B704780B483B000AF786000BF19
:100FA0000C37BD465DF8047B7047000080B500AF8C
:100FB000064B074A1A60054800F0A7FC0346002BC1
:100FC00001D000F02FF900BF80BD00BF500100200C
:100FD0000030024080B485B000AF78607B681B6849
:100FE0000B4A93420DD10023FB600A4B1B6B094A4D
:100FF00043F480531363074B1B6B03F48053FB6074
:10100000FB6800BF1437BD465DF8047B704700BF26
:10101000003002400038024080B58AB000AF07F1CE
:10102000140300221A605A609A60DA601A61002381
:101030003B612D4B1B6B2C4A43F0040313632A4B7B
:101040001B6B03F004033B613B690023FB60264BF1
:101050001B6B254A43F080031363234B1B6B03F088
:101060008003FB60FB680023BB601F4B1B6B1E4AA9
:1010700043F0010313631C4B1B6B03F00103BB60C4
:10108000BB6800237B60184B1B6B174A43F00203BD
:101090001363154B1B6B03F002037B607B6800221C
:1010A0002021124801F064F94FF400537B614FF4A2
:1010B0000413BB610023FB6107F1140319460C48BC
:1010C00000F0C2FF20237B610123BB610023FB6191
:1010D00000233B6207F114031946044800F0B4FFF3
:1010E00000BF2837BD4680BD0038024000000240E6
:1010F0000008024080B500AF00F0B0FA00F024F81C
:10110000FFF78AFFFFF752FF00F02CF900F054F9C7
:1011100000F07CF901222021084801F029F94FF064
:10112000FF3301220649074802F0F7F8044B1B7809
:10113000DBB27F2BF3D1FFF75FFAF0E7000002404C
:1011400058010020F001002080B594B000AF07F1F5
:101150001C0334220021184602F0C6FC07F10803E4
:1011600000221A605A609A60DA601A6100237B607C
:101170002A4B1B6C294A43F080531364274B1B6C8A
:1011800003F080537B607B6800233B60244B1B682B
:1011900023F44043224A43F480431360204B1B68EE
:1011A00003F440433B603B680223FB610123BB62C5
:1011B0001023FB6202237B630023BB631023FB63CA
:1011C0004FF4A8733B6404237B640223BB640223B3
:1011D000FB6407F11C03184601F026FD0346002BB3
:1011E00001D000F01FF80F23BB600223FB60002337
:1011F0003B614FF480537B610023BB6107F108031F
:101200000221184601F0CEF80346002B01D000F071
:1012100009F800BF5037BD4680BD00BF003802400E
:101220000070004080B400AF72B600BFFEE700005F
:1012300080B582B000AF00237B60104B5B6C0F4A1F
:1012400043F4804353640D4B5B6C03F480437B6039
:101250007B6800233B60094B1B6C084A43F08053BA
:101260001364064B1B6C03F080533B603B68072004
:1012700000F018FB00BF0837BD4680BD00380240B3
:1012800080B400AFFEE780B400AFFEE780B400AFEB
:10129000FEE780B400AFFEE780B400AFFEE780B4A5
:1012A00000AF00BFBD465DF8047B704780B400AF5F
:1012B00000BFBD465DF8047B704780B400AF00BF3F
:1012C000BD465DF8047B704780B500AF00F018FAAA
:1012D00000BF80BD80B586B000AF7860144A154B62
:1012E000D31A7B617B693B61134B1B68002B02D1D6
:1012F000114B124A1A60104B1A687B6813443A6902
:101300009A4207D202F0F8FB03460C221A604FF013
:10131000FF3309E0084B1B68FB60074B1A687B68CA
:101320001344054A1360FB6818461837BD4680BD54
:1013300000000220000400005C010020A80300203F
:1013400080B400AF064BD3F88830054A43F47003ED
:10135000C2F8883000BFBD465DF8047B704700BF0F
:1013600000ED00E080B500AF114B124A1A60104B3F
:101370004FF416525A600E4B00229A600C4B00221A
:10138000DA600B4B00221A61094B0C225A61084BA0
:1013900000229A61064B0022DA61054801F0E2FE64
:1013A0000346002B01D0FFF73DFF00BF80BD00BF0B
:1013B000600100200010014080B500AF114B124ABF
:1013C0001A60104B4FF416525A600E4B00229A606E
:1013D0000C4B0022DA600B4B00221A61094B0C22E5
:1013E0005A61084B00229A61064B0022DA610548D7
:1013F00001F0B8FE0346002B01D0FFF713FF00BF3A
:1014000080BD00BFA80100200044004080B500AFAF
:10141000114B124A1A60104B4FF416525A600E4B81
:1014200000229A600C4B0022DA600B4B00221A61FA
:10143000094B0C225A61084B00229A61064B00228C
:10144000DA61054801F08EFE0346002B01D0FFF75C
:10145000E9FE00BF80BD00BFF00100200048004051
:1014600080B58EB000AF786007F1240300221A60C7
:101470005A609A60DA601A617B681B685B4A934223
:101480002DD100233B625A4B5B6C594A43F0100349
:101490005364574B5B6C03F010033B623B6A0023C1
:1014A000FB61534B1B6B524A43F001031363504BD8
:1014B0001B6B03F00103FB61FB694FF4C0637B62AC
:1014C0000223BB620023FB6203233B6307237B638E
:1014D00007F124031946474800F0B6FD81E07B6818
:1014E0001B68454A93422CD10023BB61404B1B6CC7
:1014F0003F4A43F4003313643D4B1B6C03F4003349
:10150000BB61BB6900237B61394B1B6B384A43F0DD
:1015100001031363364B1B6B03F001037B617B6993
:101520000C237B620223BB620023FB6203233B6329
:1015300007237B6307F1240319462E4800F084FD3E
:101540004FE07B681B682D4A93424AD100233B61E0
:10155000274B1B6C264A43F480231364244B1B6CDB
:1015600003F480233B613B690023FB60204B1B6B32
:101570001F4A43F0040313631D4B1B6B03F004036A
:10158000FB60FB680023BB60194B1B6B184A43F0E0
:1015900002031363164B1B6B03F00203BB60BB68B3
:1015A00020237B620223BB620023FB6203233B6395
:1015B00007237B6307F124031946114800F044FD1B
:1015C0004FF480637B620223BB620023FB62032330
:1015D0003B6307237B6307F124031946094800F0A6
:1015E00033FD00BF3837BD4680BD00BF001001404D
:1015F0000038024000000240004400400048004023
:101600000008024000040240DFF834D0FFF798FEE3
:101610000C480D490D4A002302E0D458C45004334D
:10162000C4188C42F9D30A4A0A4C002301E0136023
:101630000432A242FBD302F065FAFFF75BFD70476C
:1016400000000220000000206C000020DC460008A2
:101650006C000020A4030020FEE7000080B500AF6E
:101660000E4B1B680D4A43F4007313600B4B1B6851
:101670000A4A43F480631360084B1B68074A43F42B
:1016800080731360032000F00DF9002000F008F8CB
:10169000FFF7CEFD0023184680BD00BF003C02408E
:1016A00080B582B000AF7860124B1A68124B1B787D
:1016B00019464FF47A73B3FBF1F3B2FBF3F3184618
:1016C00000F017F90346002B01D001230EE07B68E0
:1016D0000F2B0AD8002279684FF0FF3000F0EDF8A8
:1016E000064A7B681360002300E001231846083790
:1016F000BD4680BD1000002018000020140000200E
:1017000080B400AF064B1B781A46064B1B68134487
:10171000044A136000BFBD465DF8047B704700BFFC
:10172000180000203802002080B400AF034B1B6873
:101730001846BD465DF8047B704700BF38020020A4
:1017400080B485B000AF78607B6803F00703FB606E
:101750000C4BDB68BB60BA684FF6FF031340BB60FD
:10176000FB681A02BB68134343F0BF6343F40033C2
:10177000BB60044ABB68D36000BF1437BD465DF848
:10178000047B704700ED00E080B400AF044BDB68E1
:101790001B0A03F007031846BD465DF8047B70473B
:1017A00000ED00E080B483B000AF03463960FB7108
:1017B00097F90730002B0ADB3B68DAB20C4997F93E
:1017C00007301201D2B20B4483F800230AE03B68D1
:1017D000DAB20849FB7903F00F03043B1201D2B2DD
:1017E0000B441A7600BF0C37BD465DF8047B70478A
:1017F00000E100E000ED00E080B489B000AFF860E7
:10180000B9607A60FB6803F00703FB61FB69C3F111
:101810000703042B28BF0423BB61FB690433062B99
:1018200002D9FB69033B00E000237B614FF0FF32EC
:10183000BB6902FA03F3DA43BB681A407B699A403A
:101840004FF0FF317B6901FA03F3D9437B680B400A
:10185000134318462437BD465DF8047B70470000EB
:1018600080B582B000AF78607B68013BB3F1807FC8
:1018700001D301230FE00A4A7B68013B53600F212B
:101880004FF0FF30FFF78EFF054B00229A60044BAC
:1018900007221A60002318460837BD4680BD00BFE6
:1018A00010E000E080B582B000AF78607868FFF7A4
:1018B00047FF00BF0837BD4680BD80B586B000AF8A
:1018C0000346B9607A60FB7300237B61FFF75CFF1E
:1018D00078617A68B9687869FFF78EFF024697F9F0
:1018E0000F3011461846FFF75DFF00BF1837BD46A1
:1018F00080BD80B582B000AF78607868FFF7B0FF38
:10190000034618460837BD4680BD80B582B000AF9B
:1019100078607B68002B01D101230EE07B685B7946
:10192000DBB2002B05D17B6800221A717868FFF7C3
:1019300051FB7B6801225A71002318460837BD46C7
:1019400080BD80B487B000AFF860B9607A600023D2
:101950003B61FB6802225A7100237B610AE07B69CC
:101960009B00BA681A44FB681B6812681A607B699E
:1019700001337B617A697B689A42F0D3FB681B680C
:101980001B683B61FB6801225A713B6918461C3792
:10199000BD465DF8047B704780B586B000AFF86047
:1019A000B960C7E900230123FB75234B1B7E012B84
:1019B00001D102233BE0204B01221A764CF2503039
:1019C00000F070F80346FB75FB7D002B2BD1FB6804
:1019D000002B05D13B781946B86800F01BF916E0DA
:1019E000FB68012B05D13B881946B86800F0EEF87A
:1019F0000DE0FB68022B05D13B681946B86800F082
:101A0000C3F804E0D7E90023B86800F08BF84CF283
:101A1000503000F047F80346FB75084B1B69074A36
:101A200023F001031361044B00221A76FB7D184654
:101A30001837BD4680BD00BF3C020020003C02407C
:101A400080B483B000AF0023FB710B4B1B69002BEC
:101A50000BDA094B094A5A60074B094A5A60064B90
:101A60001B69002B01DA0123FB71FB7918460C3747
:101A7000BD465DF8047B7047003C0240230167458A
:101A8000AB89EFCD80B400AF054B1B69044A43F02E
:101A90000043136100231846BD465DF8047B704780
:101AA000003C024080B584B000AF78600023FB604A
:101AB0001A4B0022DA61FFF737FEF86010E07B680E
:101AC000B3F1FF3F0CD07B68002B07D0FFF72CFE53
:101AD0000246FB68D31A7A689A4201D2032319E0BE
:101AE0000F4BDB6803F48033002BE8D10C4BDB6831
:101AF00003F00103002B02D0094B0122DA60084BEE
:101B0000DB6803F4F973002B03D000F0A5F8012380
:101B100000E0002318461037BD4680BD3C0200207F
:101B2000003C024080B485B000AFF860C7E90023F4
:101B3000144B1B69134A23F440731361114B1B6947
:101B4000104A43F4407313610E4B1B690D4A43F076
:101B500001031361FB683A681A60BFF36F8F00BF1F
:101B6000D7E900014FF000024FF000030A00002304
:101B7000F968043113460B6000BF1437BD465DF8A9
:101B8000047B7047003C024080B483B000AF7860B3
:101B900039600D4B1B690C4A23F4407313610A4BE7
:101BA0001B69094A43F400731361074B1B69064A1A
:101BB00043F0010313617B683A681A6000BF0C3779
:101BC000BD465DF8047B7047003C024080B483B0A2
:101BD00000AF78600B467B800D4B1B690C4A23F4E9
:101BE000407313610A4B1B69094A43F48073136104
:101BF000074B1B69064A43F0010313617B687A882F
:101C00001A8000BF0C37BD465DF8047B704700BFEB
:101C1000003C024080B483B000AF78600B46FB709C
:101C20000C4B1B690B4A23F440731361094B094A9F
:101C30001B691361074B1B69064A43F001031361DB
:101C40007B68FA781A7000BF0C37BD465DF8047BDC
:101C5000704700BF003C024080B400AF2F4BDB68F0
:101C600003F01003002B08D02D4BDB6943F0100369
:101C70002B4AD361294B1022DA60284BDB6803F032
:101C80002003002B08D0264BDB6943F00803244ACD
:101C9000D361224B2022DA60204BDB6803F0400343
:101CA000002B08D01E4BDB6943F004031C4AD361B0
:101CB0001A4B4022DA60194BDB6803F08003002BDB
:101CC00008D0174BDB6943F00203154AD361134B6D
:101CD0008022DA60114BDB6803F48073002B09D09B
:101CE0000F4BDB6943F001030D4AD3610B4B4FF4FB
:101CF0008072DA60094BDB6803F00203002B08D026
:101D0000074BDB6943F02003054AD361034B0222F2
:101D1000DA6000BFBD465DF8047B7047003C0240BE
:101D20003C02002080B584B000AF786039600123A8
:101D3000FB730023BB60314B1B7E012B01D10223BF
:101D400058E02E4B01221A764CF25030FFF7AAFED3
:101D50000346FB73FB7B002B48D13B684FF0FF32FF
:101D60001A607B681B68012B15D17B681B69DAB28E
:101D70007B685B681946104600F068F84CF25030FA
:101D8000FFF790FE0346FB731D4B1B691C4A23F0B3
:101D90000403136128E07B689B68BB601CE07B68E0
:101DA0001B69DBB21946B86800F074F84CF2503089
:101DB000FFF778FE0346FB73114B1B69104A23F0B3
:101DC000FA031361FB7B002B03D03B68BA681A60EF
:101DD0000AE0BB680133BB607B68DA687B689B689C
:101DE0001344BA689A42DAD300F0E8F8034B0022B1
:101DF0001A76FB7B18461037BD4680BD3C0200209A
:101E0000003C024080B582B000AF78607B680F2252
:101E10001A6000F097F803461A467B689A6000F053
:101E20009DF803461A467B681A6100F07BF803466A
:101E30001A467B681A7600F0B1F803461A467B68AA
:101E40005A6100BF0837BD4680BD000080B483B032
:101E500000AF03463960FB710D4B1B690C4A23F43C
:101E6000407313610A4B1B69094A43F00403136171
:101E7000074B1A69FB791B021343054A43F480336D
:101E8000136100BF0C37BD465DF8047B704700BF8F
:101E9000003C024080B485B000AF78600B46FB7018
:101EA0000023FB60FB78002B02D10023FB6010E0D5
:101EB000FB78012B03D14FF48073FB6009E0FB78C2
:101EC000022B03D14FF40073FB6002E04FF4407328
:101ED000FB60134B1B69124A23F440731361104BD0
:101EE0001A690F49FB6813430B610D4B1B690C4AC0
:101EF00023F0F80313610A4B1A697B68DB00134374
:101F0000074A43F002031361054B1B69044A43F47B
:101F10008033136100BF1437BD465DF8047B704702
:101F2000003C024080B400AF054B5B69DBB223F09C
:101F30001F03DBB21846BD465DF8047B704700BF47
:101F4000003C024080B400AF034B1B889BB2184694
:101F5000BD465DF8047B7047163C024080B483B0F8
:101F600000AFAA23FB710C4B1B78DBB2CC2B02D148
:101F7000CC23FB7109E0084B1B78DBB2AA2B02D102
:101F8000AA23FB7101E05523FB71FB7918460C373E
:101F9000BD465DF8047B7047153C024080B400AF3D
:101FA000054B1B78DBB203F00C03DBB21846BD46D1
:101FB0005DF8047B704700BF143C024080B400AF62
:101FC000204B1B6803F40073002B17D01D4B1B68BC
:101FD0001C4A23F4007313601A4B1B68194A43F41C
:101FE00000631360174B1B68164A23F400631360E9
:101FF000144B1B68134A43F400731360114B1B68A6
:1020000003F48063002B17D00E4B1B680D4A23F49A
:10201000806313600B4B1B680A4A43F480531360C0
:10202000084B1B68074A23F480531360054B1B6859
:10203000044A43F48063136000BFBD465DF8047B2F
:10204000704700BF003C024080B489B000AF7860A8
:10205000396000237B6100233B610023BB610023C7
:10206000FB6165E10122FB6902FA03F37B613B68D6
:102070001B687A6913403B613A697B699A4240F078
:1020800054813B685B6803F00303012B05D03B6878
:102090005B6803F00303022B30D17B689B68BB6154
:1020A000FB695B00032202FA03F3DB43BA691340C6
:1020B000BB613B68DA68FB695B0002FA03F3BA694B
:1020C0001343BB617B68BA699A607B685B68BB61DC
:1020D0000122FB6902FA03F3DB43BA691340BB61D7
:1020E0003B685B681B0903F00102FB6902FA03F31A
:1020F000BA691343BB617B68BA695A603B685B6825
:1021000003F00303032B17D07B68DB68BB61FB691B
:102110005B00032202FA03F3DB43BA691340BB619D
:102120003B689A68FB695B0002FA03F3BA691343E0
:10213000BB617B68BA69DA603B685B6803F00303E4
:10214000022B23D1FB69DA087B68083253F822306E
:10215000BB61FB6903F007039B000F2202FA03F344
:10216000DB43BA691340BB613B681A69FB6903F042
:1021700007039B0002FA03F3BA691343BB61FB69CF
:10218000DA087B680832B96943F822107B681B685B
:10219000BB61FB695B00032202FA03F3DB43BA690C
:1021A0001340BB613B685B6803F00302FB695B00A3
:1021B00002FA03F3BA691343BB617B68BA691A6018
:1021C0003B685B6803F44033002B00F0AE800023D3
:1021D000FB605D4B5B6C5C4A43F4804353645A4B39
:1021E0005B6C03F48043FB60FB68584AFB699B0807
:1021F000023352F82330BB61FB6903F003039B00F9
:102200000F2202FA03F3DB43BA691340BB617B6818
:102210004F4A934225D07B684E4A93421FD07B6839
:102220004D4A934219D07B684C4A934213D07B6845
:102230004B4A93420DD07B684A4A934207D07B6851
:10224000494A934201D106230CE007230AE0052303
:1022500008E0042306E0032304E0022302E0012354
:1022600000E00023FA6902F0030292009340BA6989
:102270001343BB613549FB699B080233BA6941F8D6
:1022800023203A4B9B68BB613B69DB43BA6913402F
:10229000BB613B685B6803F48013002B03D0BA6911
:1022A0003B691343BB61314ABB6993602F4BDB68C9
:1022B000BB613B69DB43BA691340BB613B685B6848
:1022C00003F40013002B03D0BA693B691343BB61CD
:1022D000264ABB69D360254B5B68BB613B69DB4326
:1022E000BA691340BB613B685B6803F40033002BA1
:1022F00003D0BA693B691343BB611C4ABB69536095
:102300001A4B1B68BB613B69DB43BA691340BB6175
:102310003B685B6803F48033002B03D0BA693B69E8
:102320001343BB61114ABB691360FB690133FB6155
:10233000FB690F2B7FF696AE00BF00BF2437BD466A
:102340005DF8047B704700BF003802400038014050
:10235000000002400004024000080240000C02405D
:10236000001002400014024000180240003C0140EE
:1023700080B483B000AF78600B467B8013467B70DF
:102380007B78002B03D07A887B689A6103E07B8896
:102390001A047B689A6100BF0C37BD465DF8047B68
:1023A0007047000080B584B000AF786039607B680A
:1023B000002B01D10123CCE0684B1B6803F00F0315
:1023C0003A689A420CD9654B3A68D2B21A70634B9C
:1023D0001B6803F00F033A689A4201D00123B8E06A
:1023E0007B681B6803F00203002B20D07B681B680E
:1023F00003F00403002B05D0594B9B68584A43F463
:10240000E05393607B681B6803F00803002B05D042
:10241000534B9B68524A43F460439360504B9B6814
:1024200023F0F0027B689B684D4913438B607B6807
:102430001B6803F00103002B44D07B685B68012B11
:1024400007D1474B1B6803F40033002B19D101233C
:102450007FE07B685B68022B03D07B685B68032BA3
:1024600007D13F4B1B6803F00073002B09D10123F8
:102470006FE03B4B1B6803F00203002B01D10123EB
:1024800067E0374B9B6823F003027B685B68344945
:1024900013438B60FFF748F9F8600AE0FFF744F94F
:1024A0000246FB68D31A41F28832934201D90323D2
:1024B0004FE02B4B9B6803F00C027B685B689B0032
:1024C0009A42EBD1254B1B6803F00F033A689A42FE
:1024D0000CD2224B3A68D2B21A70204B1B6803F020
:1024E0000F033A689A4201D0012332E07B681B68EF
:1024F00003F00403002B08D0194B9B6823F4E0522F
:102500007B68DB68164913438B607B681B6803F0AC
:102510000803002B09D0124B9B6823F460427B68B0
:102520001B69DB000E4913438B6000F055F802462F
:102530000B4B9B681B0903F00F030A49CB5C22FA83
:1025400003F3094A1360094B1B681846FFF7A8F804
:10255000002318461037BD4680BD00BF003C024036
:1025600000380240804600081000002014000020BF
:1025700080B400AF034B1B681846BD465DF8047B72
:10258000704700BF1000002080B500AFFFF7F0FFDC
:102590000246054B9B689B0A03F007030349CB5C8B
:1025A00022FA03F3184680BD003802409046000826
:1025B00080B500AFFFF7DCFF0246054B9B685B0B65
:1025C00003F007030349CB5C22FA03F3184680BDEE
:1025D00000380240904600082DE9B04FAEB000AF81
:1025E0000023C7F8AC300023C7F8B4300023C7F885
:1025F000A8300023C7F8A4300023C7F8B030CB4B75
:102600009B6803F00C030C2B00F2068201A252F827
:1026100023F000BF49260008192A0008192A0008DB
:10262000192A000851260008192A0008192A00084A
:10263000192A000859260008192A0008192A000832
:10264000192A000849280008B94BC7F8B030E7E15B
:10265000B84BC7F8B030E3E1B44B5B6803F03F031D
:10266000C7F8AC30B14B5B6803F48003002B71D02A
:10267000AE4B5B689B090022C7F89830C7F89C20D6
:10268000D7F89830C3F30803C7F890300023C7F891
:102690009430D7E9244522462B464FF000004FF0F6
:1026A0000001590141EAD261500102460B46214620
:1026B000511A3964294663EB01037B644FF0000231
:1026C0004FF00003D7E9108949468B01414643EAA0
:1026D000916341468A014146511AB963494663EB09
:1026E0000103FB634FF000024FF00003D7E90E89AE
:1026F0004946CB00414643EA51734146CA00104661
:102700001946034622469B183B632B460A4642EB7A
:1027100003037B634FF000024FF00003D7E90C4541
:1027200029464B02214643EAD15321464A0210462C
:102730001946D7F8AC300022C7F88830C7F88C208B
:10274000D7E92223FDF7B4FD02460B461346C7F82E
:10275000B43067E0754B5B689B090022C7F8803096
:10276000C7F88420D7F88030C3F30803BB67002381
:10277000FB67D7E91E4522462B464FF000004FF07D
:102780000001590141EAD261500102460B4621463F
:10279000511AB962294663EB0103FB624FF0000254
:1027A0004FF00003D7E90A8949468B01414643EAC5
:1027B000916341468A014146B2EB010A494663EB07
:1027C000010B4FF000024FF000034FEACB0343EA46
:1027D0005A734FEACA0292469B4623461AEB0303FA
:1027E0003B622B464BEB03037B624FF000024FF042
:1027F0000003D7E9084529468B02214643EA915355
:1028000021468A0210461946D7F8AC3000223B67B1
:102810007A67D7E91C23FDF74BFD02460B461346AA
:10282000C7F8B430414B5B681B0C03F00303013362
:102830005B00C7F8A830D7F8B420D7F8A830B2FBAF
:10284000F3F3C7F8B030EBE0384B5B6803F03F03BD
:10285000C7F8AC30354B5B6803F48003002B6BD0BA
:10286000324B5B689B090022BB66FA66BB6EC3F302
:1028700008033B6600237B66D7E9184522462B46B2
:102880004FF000004FF00001590141EAD2615001C0
:1028900002460B462146511AB961294663EB0103F2
:1028A000FB614FF000024FF00003D7E906AB594639
:1028B0008B01514643EA916351468A015146B2EB7E
:1028C0000108594663EB01094FF000024FF0000385
:1028D0004FEAC90343EA58734FEAC8029046994643
:1028E000234618EB03033B612B4649EB03037B6153
:1028F0004FF000024FF00003D7E9044529464B0290
:10290000214643EAD15321464A0210461946D7F8D8
:10291000AC300022BB65FA65D7E91623FDF7C8FC89
:1029200002460B461346C7F8B43065E00038024053
:102930000024F40000127A003D4B5B689B090022E2
:1029400018461146C0F308033B6500237B65D7E9B1
:10295000148942464B464FF000004FF000015901E8
:1029600041EAD261500102460B464146511AB96014
:10297000494663EB0103FB604FF000024FF0000398
:10298000D7E902AB59468B01514643EA9163514660
:102990008A015146541A594663EB01054FF0000273
:1029A0004FF00003EB0043EA5473E20014461D4667
:1029B0004346E3183B604B4645EB03037B604FF017
:1029C00000024FF00003D7E9004529468B0221465B
:1029D00043EA915321468A0210461946D7F8AC3093
:1029E0000022BB64FA64D7E91223FDF761FC0246BA
:1029F0000B461346C7F8B4300D4B5B681B0F03F052
:102A00000703C7F8A430D7F8B420D7F8A430B2FB36
:102A1000F3F3C7F8B03003E0064BC7F8B03000BF9F
:102A2000D7F8B0301846B837BD46BDE8B08F00BF04
:102A3000003802400024F40080B582B000AFFEF7F9
:102A400073FE7860724B1B68714A43F00103136098
:102A500008E0FEF769FE02467B68D31A022B01D913
:102A60000323D0E06A4B1B6803F00203002BF0D075
:102A7000674B1B68664A43F080031360FEF754FE01
:102A80007860634B00229A600AE0FEF74DFE024632
:102A90007B68D31A41F28832934201D90323B2E012
:102AA0005B4B9B6803F00C03002BEED1FEF73CFE62
:102AB0007860574B1B68564A23F45023136008E094
:102AC000FEF732FE02467B68D31A642B01D903233A
:102AD00099E04F4B1B6803F40033002BF0D1FEF755
:102AE00023FE78604A4B1B68494A23F080731360C9
:102AF00008E0FEF719FE02467B68D31A022B01D9C3
:102B0000032380E0424B1B6803F00073002BF0D1DD
:102B1000FEF70AFE78603E4B1B683D4A23F0806357
:102B2000136008E0FEF700FE02467B68D31A022B12
:102B300001D9032367E0364B1B6803F00063002BC9
:102B4000F0D1FEF7F1FD7860314B1B68304A23F07D
:102B50008053136008E0FEF7E7FD02467B68D31A56
:102B6000022B01D903234EE0294B1B6803F00053CD
:102B7000002BF0D1264B274A5A60254B254AC3F833
:102B80008420234B244AC3F88820214BDB68204A49
:102B900023F4F853D3601E4BDB681D4A23F4005323
:102BA000D3601B4BDB681A4A23F48043D360184B75
:102BB000DB68174A43F41F03D360154BDB68144AE4
:102BC00043F40013D360124BDB68114A43F48003D3
:102BD000D3600F4B5B6F0E4A23F0010353670C4B1E
:102BE0005B6F0B4A43F0807353670C4B0C4A1A60BF
:102BF0000C4B1B681846FEF753FD0346002B01D013
:102C0000012300E0002318460837BD4680BD00BF01
:102C10000038024010300024103000041000002062
:102C20000024F4001400002080B586B000AF786066
:102C30007B68002B01D101238DE27B681B6803F0C8
:102C40000103002B00F08380944B9B6803F00C037E
:102C5000042B19D0914B9B6803F00C03082B06D171
:102C60008E4B5B6803F48003B3F5800F0CD08B4B65
:102C70009B6803F00C030C2B12D1884B5B6803F4A8
:102C80008003B3F5800F0BD1844B1B6803F4003332
:102C9000002B5BD07B685B68002B57D101235AE285
:102CA0007B685B68B3F5803F06D17C4B1B687B4A31
:102CB00043F4803313601DE07B685B68B3F5A02F9D
:102CC0000CD1764B1B68754A43F480231360734B19
:102CD0001B68724A43F4803313600BE06F4B1B6830
:102CE0006E4A23F4803313606C4B1B686B4A23F4E9
:102CF000802313607B685B68002B13D0FEF714FD04
:102D0000386108E0FEF710FD02463B69D31A642BD8
:102D100001D903231FE2614B1B6803F40033002B2E
:102D2000F0D014E0FEF700FD386108E0FEF7FCFC8F
:102D300002463B69D31A642B01D903230BE2574B9C
:102D40001B6803F40033002BF0D100E000BF7B6868
:102D50001B6803F00203002B6FD0504B9B6803F0FD
:102D60000C03002B17D04D4B9B6803F00C03082B72
:102D700005D14A4B5B6803F48003002B0BD0474B13
:102D80009B6803F00C030C2B1CD1444B5B6803F4D1
:102D90008003002B16D1414B1B6803F00203002B6C
:102DA00005D07B68DB68012B01D00123D3E13B4BCD
:102DB0001B6823F0F8027B681B69DB00374913436B
:102DC0000B603AE07B68DB68002B20D0344B01229B
:102DD0001A60FEF7A9FC386108E0FEF7A5FC024680
:102DE0003B69D31A022B01D90323B4E12B4B1B6897
:102DF00003F00203002BF0D0284B1B6823F0F802ED
:102E00007B681B69DB00254913430B6015E0244BED
:102E100000221A60FEF788FC386108E0FEF784FCA7
:102E200002463B69D31A022B01D9032393E11B4BC2
:102E30001B6803F00203002BF0D17B681B6803F0D2
:102E40000803002B36D07B685B69002B16D0154B2E
:102E500001221A60FEF768FC386108E0FEF764FCA6
:102E600002463B69D31A022B01D9032373E10B4BB2
:102E70005B6F03F00203002BF0D01BE0094B002234
:102E80001A60FEF751FC38610EE0FEF74DFC024679
:102E90003B69D31A022B07D903235CE100380240B7
:102EA00000004742800E47428A4B5B6F03F00203EB
:102EB000002BEAD17B681B6803F00403002B00F0B1
:102EC00097800023FB75834B1B6C03F08053002B12
:102ED0000FD10023BB607F4B1B6C7E4A43F08053B5
:102EE00013647C4B1B6C03F08053BB60BB680123F5
:102EF000FB75794B1B6803F48073002B18D1764B5C
:102F00001B68754A43F480731360FEF70DFC38614B
:102F100008E0FEF709FC02463B69D31A022B01D9EF
:102F2000032318E16C4B1B6803F48073002BF0D073
:102F30007B689B68012B06D1664B1B6F654A43F08B
:102F4000010313671CE07B689B68052B0CD1614B68
:102F50001B6F604A43F0040313675E4B1B6F5D4AAF
:102F600043F0010313670BE05A4B1B6F594A23F0E0
:102F700001031367574B1B6F564A23F00403136773
:102F80007B689B68002B15D0FEF7CEFB38610AE00A
:102F9000FEF7CAFB02463B69D31A41F288329342DC
:102FA00001D90323D7E04B4B1B6F03F00203002B27
:102FB000EED014E0FEF7B8FB38610AE0FEF7B4FB90
:102FC00002463B69D31A41F28832934201D9032366
:102FD000C1E0404B1B6F03F00203002BEED1FB7DE1
:102FE000012B05D13B4B1B6C3A4A23F080531364F1
:102FF0007B689B69002B00F0AD80364B9B6803F02B
:103000000C03082B60D07B689B69022B45D1334BA6
:1030100000221A60FEF788FB386108E0FEF784FBA7
:1030200002463B69D31A022B01D9032393E0294BB3
:103030001B6803F00073002BF0D17B68DA697B68B2
:103040001B6A1A437B685B6A9B011A437B689B6A15
:103050005B08013B1B041A437B68DB6A1B061A43AF
:103060007B681B6B1B071B4913434B601B4B0122E7
:103070001A60FEF759FB386108E0FEF755FB02467F
:103080003B69D31A022B01D9032364E0114B1B685F
:1030900003F00073002BF0D05CE0104B00221A60AC
:1030A000FEF742FB386108E0FEF73EFB02463B6953
:1030B000D31A022B01D903234DE0064B1B6803F002
:1030C0000073002BF0D145E07B689B69012B07D191
:1030D000012340E000380240007000406000474299
:1030E0001F4B5B68FB607B689B69012B30D0FB68E2
:1030F00003F480027B68DB699A4229D1FB6803F004
:103100003F027B681B6A9A4222D1FA6847F6C07375
:1031100013407A68526A9201934219D1FB6803F412
:1031200040327B689B6A5B08013B1B049A420FD1CB
:10313000FB6803F070627B68DB6A1B069A4207D16A
:10314000FB6803F0E0427B681B6B1B079A4201D0CF
:10315000012300E0002318461837BD4680BD00BF9C
:103160000038024080B582B000AF78607B68002BE9
:1031700001D1012342E07B6893F84130DBB2002BA0
:1031800006D17B68002283F840207868FEF768F952
:103190007B68242283F841207B681B68DA687B689F
:1031A0001B6822F40052DA60786800F009FA7B6844
:1031B0001B681A697B681B6822F490421A617B685D
:1031C0001B685A697B681B6822F02A025A617B6877
:1031D0001B68DA687B681B6842F40052DA607B681F
:1031E00000225A647B68202283F841207B682022D9
:1031F00083F842207B6800225A6300231846083770
:10320000BD4680BD80B58AB002AFF860B9603B6052
:103210001346FB8000237B61FB6893F84130DBB2EF
:10322000202B75D1BB68002B02D0FB88002B01D16D
:1032300001236EE0FB6800225A64FB68212283F8B8
:103240004120FEF771FA7861FB68FA889A84FB687E
:10325000FA88DA84FB689B68B3F5805F08D1FB6865
:103260001B69002B04D10023FB61BB68BB6103E039
:10327000BB68FB610023BB612EE03B6800937B6968
:1032800000228021F86800F0DFF80346002B05D00B
:10329000FB68202283F8412003233AE0FB69002BDE
:1032A0000BD1BB691B881A46FB681B68C2F3080276
:1032B0005A60BB690233BB6107E0FB691A78FB689F
:1032C0001B685A60FB690133FB61FB68DB8C9BB2B6
:1032D000013B9AB2FB68DA84FB68DB8C9BB2002B63
:1032E000CBD13B6800937B6900224021F86800F055
:1032F000ABF80346002B05D0FB68202283F8412061
:10330000032306E0FB68202283F84120002300E02D
:10331000022318462037BD4680BD80B58AB002AF73
:10332000F860B9603B601346FB8000237B61FB685B
:1033300093F84230DBB2202B40F08180BB68002B39
:1033400002D0FB88002B01D1012379E0FB68002229
:103350005A64FB68222283F84220FB6800221A6329
:10336000FEF7E2F97861FB68FA889A85FB68FA88CB
:10337000DA85FB689B68B3F5805F08D1FB681B6941
:10338000002B04D10023FB61BB68BB6103E0BB6879
:10339000FB610023BB6147E03B6800937B6900222F
:1033A0002021F86800F050F80346002B05D0FB6898
:1033B000202283F84220032342E0FB69002B0CD13A
:1033C000FB681B685B689BB2C3F308039AB2BB69D6
:1033D0001A80BB690233BB611FE0FB689B68B3F5D1
:1033E000805F07D0FB689B68002B0AD1FB681B69D4
:1033F000002B06D1FB681B685B68DAB2FB691A70A8
:1034000008E0FB681B685B68DBB203F07F03DAB29D
:10341000FB691A70FB690133FB61FB68DB8D9BB2B2
:10342000013B9AB2FB68DA85FB68DB8D9BB2002B0F
:10343000B2D1FB68202283F84220002300E002235F
:1034400018462037BD4680BD80B586B000AFF86015
:10345000B9603B601346FB713BE03B6AB3F1FF3F51
:1034600037D0FEF761F902463B68D31A3A6A9A42AE
:1034700002D33B6A002B01D103233AE0FB681B68AF
:10348000DB6803F00403002B23D0BB68802B20D023
:10349000BB68402B1DD0FB681B681B6803F008034A
:1034A000082B16D100237B61FB681B681B687B61BE
:1034B000FB681B685B687B617B69F86800F01DF83E
:1034C000FB6808225A64FB68002283F8402001232D
:1034D0000FE0FB681B681A68BB681340BA689A4221
:1034E0000CBF01230023DBB21A46FB799A42B4D009
:1034F000002318461837BD4680BD80B495B000AF94
:1035000078607B681B680C337B637B6B53E8003F00
:103510003B633B6B23F49073FB647B681B680C3349
:10352000FA6C3A64FB63F96B3A6C41E80023BB63C5
:10353000BB6B002BE5D17B681B6814333B623B6A95
:1035400053E8003FFB61FB6923F00103BB647B6828
:103550001B681433BA6CFA62BB62B96AFA6A41E852
:1035600000237B627B6A002BE5D17B681B6B012B00
:1035700019D17B681B680C33FB60FB6853E8003F84
:10358000BB60BB6823F010037B647B681B680C3353
:103590007A6CBA617B617969BA6941E800233B6161
:1035A0003B69002BE5D17B68202283F842207B68B1
:1035B00000221A6300BF5437BD465DF8047B704794
:1035C0002DE9B04FC0B000AFC7F8F400D7F8F43021
:1035D0001B681B6923F44050D7F8F430D968D7F83A
:1035E000F4301A6840EA01031361D7F8F4309A689E
:1035F000D7F8F4301B691A43D7F8F4305B691A43E3
:10360000D7F8F430DB691343C7F8F830D7F8F43053
:103610001B68DB6823F4164121F00C01D7F8F43065
:103620001A68D7F8F8300B43D360D7F8F4301B682A
:103630005B6923F44070D7F8F4309969D7F8F43017
:103640001A6840EA01035361D7F8F4301A688F4BC7
:103650009A4205D0D7F8F4301A688D4B9A4204D1BB
:10366000FEF7A6FFC7F8FC0003E0FEF78DFFC7F8E2
:10367000FC00D7F8F430DB69B3F5004F40F00C8163
:10368000D7F8FC300022C7F8E830C7F8EC20D7E9BB
:103690003A4522462B469118B9655B41FB65D7E94F
:1036A0001623214612EB0108294643EB01094FF08E
:1036B00000024FF000034FEAC90343EA58734FEA90
:1036C000C80290469946234618EB0303C7F8E0303A
:1036D0002B4649EB0303C7F8E430D7F8F4305B68B6
:1036E0000022C7F8D830C7F8DC20D7E936120B46DD
:1036F000DB183B65134642EB03037B65D7E91423D4
:10370000D7E93801FCF7D4FD02460B46614BA3FB19
:1037100002235B091C01D7F8FC300022C7F8D03027
:10372000C7F8D420D7E9348942464B469118B9648A
:103730005B41FB64D7E91223414612EB010A49467B
:1037400043EB010B4FF000024FF000034FEACB03B5
:1037500043EA5A734FEACA0292469B4643461AEB23
:103760000303C7F8C8304B464BEB0303C7F8CC3014
:10377000D7F8F4305B680022C7F8C030C7F8C4201F
:10378000D7E930120B46DB183B64134642EB0303C8
:103790007B64D7E91023D7E93201FCF789FD0246A3
:1037A0000B4611463B4BA3FB01235B09642202FB42
:1037B00003F3CB1ADB0003F13202364BA3FB0223E7
:1037C0005B095B0003F4F8731C44D7F8FC3000225B
:1037D000C7F8B830C7F8BC20D7E92E8942464B4617
:1037E0009118B9635B41FB63D7E90E234146511839
:1037F000396349464B417B634FF000024FF00003B1
:10380000D7E90CAB5946CB00514643EA51735146B8
:10381000CA0010461946034642469B18C7F8B03006
:103820004B460A4642EB0303C7F8B430D7F8F430EE
:103830005B680022C7F8A830C7F8AC20D7E92A1285
:103840000B46DB18BB62134642EB0303FB62D7E96E
:103850000A23D7E92C01FCF72BFD02460B460D4B42
:10386000A3FB02135B09642101FB03F3D31ADB0002
:103870003233084AA2FB03235B0903F00702D7F89F
:10388000F4301B6822449A6006E100BF001001403A
:10389000001401401F85EB51D7F8FC300022C7F817
:1038A000A030C7F8A420D7E9288942464B46911892
:1038B00039625B417B62D7E9082341465418494687
:1038C00043EB01054FF000024FF00003EB0043EA29
:1038D0005473E20014461D464346E318C7F8983077
:1038E0004B4645EB0303C7F89C30D7F8F4305B68D0
:1038F0000022C7F89030C7F894204FF000024FF034
:103900000003D7E9244529468B00214643EA9173F9
:1039100021468A00D7E92601FCF7CAFC02460B467D
:10392000604BA3FB02235B091C01D7F8FC3000228B
:10393000C7F88830C7F88C20D7E9228942464B4621
:103940009118B9615B41FB61D7E9062341465118E3
:10395000396149464B417B614FF000024FF0000353
:10396000D7E904AB5946CB00514643EA517351465F
:10397000CA0010461946034642469B18C7F88030D5
:103980004B460A4642EB0303C7F88430D7F8F430BD
:103990005B680022BB67FA674FF000024FF000033C
:1039A000D7E91E8949468B00414643EA9173414657
:1039B0008A00D7E92001FCF77BFC02460B46114642
:1039C000384BA3FB01235B09642202FB03F3CB1AF0
:1039D0001B013233334AA2FB03235B0903F0F003DC
:1039E0001C44D7F8FC3000223B677A67D7E91C8972
:1039F00042464B469118B9605B41FB60D7E9022310
:103A000041465118396049464B417B604FF00002F6
:103A10004FF00003D7E900AB5946CB00514643EACB
:103A200051735146CA0010461946034642469B1838
:103A3000BB664B460A4642EB0303FB66D7F8F430FD
:103A40005B6800223B667A664FF000024FF000038D
:103A5000D7E9188949468B00414643EA91734146AC
:103A60008A00D7E91A01FCF723FC02460B460D4BEE
:103A7000A3FB02135B09642101FB03F3D31A1B01AF
:103A80003233084AA2FB03235B0903F00F02D7F885
:103A9000F4301B6822449A6000BF07F58077BD466A
:103AA000BDE8B08F1F85EB5100B59BB0009104912C
:103AB0006FF000410591029105490391694600F0BC
:103AC00099F9009B00221A701BB05DF804FB00BF3F
:103AD0000802FFFF13460A46014602480068FFF746
:103AE000E3BF00BF6800002002440346934200D1B8
:103AF000704703F8011BF9E7014B1868704700BFD6
:103B00006800002070B50D4D0D4C641BA4100026FC
:103B1000A64209D10B4D0C4C00F06AFC641BA410AA
:103B20000026A64205D170BD55F8043B98470136E2
:103B3000EEE755F8043B98470136F2E7D446000813
:103B4000D4460008D4460008D8460008704770479D
:103B500037B5002944D051F8043C0190002BA1F165
:103B60000404B8BFE41800F0DFF81E4A0198136897
:103B700033B96360146003B0BDE8304000F0DAB8D8
:103B8000A34208D9256861198B4201BF19685B6897
:103B900049192160EDE71A465B680BB1A342FAD9D7
:103BA00011685518A5420BD1246821445418A3422A
:103BB0001160E0D11C685B6853600C441460DAE764
:103BC00002D90C230360D6E7256861198B4204BF34
:103BD00019685B68636004BF491921605460CAE7D3
:103BE00003B030BD9C03002070B50E4E0C4631680A
:103BF000054611B900F0A6FB30602146284600F0CA
:103C0000A1FB431C0AD0C41C24F00304A04207D02B
:103C1000211A284600F096FB013001D14FF0FF3405
:103C2000204670BDA00300202DE9F843CD1C25F0EF
:103C3000030508350C2D38BF0C25002D074601DB88
:103C4000A94205D90C233B6000263046BDE8F88325
:103C5000DFF8D08000F068F8D8F800301C465CBB74
:103C600029463846FFF7C0FF431C044655D1D8F813
:103C700000402646002E45D1002C48D0236831460E
:103C8000384604EB030900F05DFB81453FD1216814
:103C90006D1A29463846FFF7A7FF013037D0236851
:103CA0002B442360D8F80030002B38D05A68A24249
:103CB0002BD100225A600FE02268521B1FD40B2A1E
:103CC00017D96119A342256018BF5960636808BFFE
:103CD000C8F8001062514B60384604F10B0600F042
:103CE00029F826F00706231DF21AAED09B1BA3501D
:103CF000ABE7A3426268DDD1C8F80020ECE72346B9
:103D00006468ACE734467668B4E71346CCE70C2326
:103D10003B60384600F00EF897E72560DCE75B6013
:103D2000FFDE00BF9C0300200148FFF70FBF00BF6C
:103D3000980300200148FFF70ABF00BF9803002046
:103D40002DE9F0478E681F46BE420B6882460C463E
:103D500090462CD88A8912F4906F26D0656909693B
:103D600005EB4505A3EB010905EBD5757B1C4B4421
:103D70006D109D4238BF1D46530527D52946FFF7D4
:103D800053FF064660B321694A4600F0EBFAA38967
:103D900023F4906343F08003A381266165614E4460
:103DA000A5EB09052660A5603E46BE4200D93E4609
:103DB00020683246414600F0ABFAA3689B1BA36023
:103DC0002368334423600020BDE8F0872A4600F0D2
:103DD000D7FA06460028E0D121695046FFF7B8FE21
:103DE0000C23CAF80030A38943F04003A3814FF0AD
:103DF000FF30E9E72DE9F04F98468B891B069DB00F
:103E000007460D4614460ED50B6963B94021FFF7EE
:103E10000BFF2860286120B90C233B604FF0FF3076
:103E2000D0E040236B610023099320238DF82930D3
:103E3000CDF80C803023DFF8A4818DF82A304FF0C4
:103E4000010923469A4613F8012B0AB1252AF9D114
:103E5000BAEB040B0BD05B46224629463846FFF7E7
:103E60006FFF013000F0A980099A5A4409929AF82C
:103E70000030002B00F0A18000234FF0FF32CDE98D
:103E800005230AF1010A049307938DF853301A931E
:103E90005446052214F8011B5048FCF7B9F9049A5E
:103EA000D8B9D00644BF20238DF85330110744BF42
:103EB0002B238DF853309AF800302A2B15D0079A0F
:103EC000544600204FF00A0C214611F8013B303BCC
:103ED000092B4DD9B0B1079214E0A0EB080309FA01
:103EE00003F313430493A246D2E7039B191D1B68F7
:103EF0000391002BBBBF5B4242F002020793079382
:103F0000B8BF049223782E2B0CD163782A2B34D19E
:103F1000039B1A1D1B680392002BB8BF4FF0FF33A1
:103F200002340593DFF8C4A0217803225046FCF741
:103F30006FF938B1049BA0EB0A0040228240134382
:103F40000134049314F8011B25488DF8281006222B
:103F5000FCF75EF9002838D0224B1BBB039B0733CC
:103F600023F0070308330393099B3344099368E75D
:103F70000CFB02320C460120A6E700230134059316
:103F800019464FF00A0C204610F8012B303A092A46
:103F900003D9002BC6D00591C4E70CFB01210446D0
:103FA0000123F0E703AB00932A460F4B04A93846E0
:103FB000AFF30080421C0646D6D1AB895B063FF5C5
:103FC0002DAF09981DB0BDE8F08F03AB00932A46D2
:103FD000054B04A9384600F079F8EBE7984600084D
:103FE000A246000800000000413D00089E4600086F
:103FF0002DE9F047164699468A680B69DDF820805E
:104000009342B8BF1346336091F8432007460C46ED
:104010000AB1013333602368990642BF3368023323
:104020003360256815F0060506D104F1190AE36826
:1040300032689B1AAB4226DC94F84320131E226898
:1040400018BF012392062BD404F143024946384697
:10405000C04701301ED02368226903F00603042BF9
:1040600002BFE5683368ED1AA3680CBF25EAE57561
:1040700000259342C4BF9B1AED1800261A34B5429E
:104080001AD1002008E00123524649463846C0476D
:10409000013003D14FF0FF30BDE8F0870135C6E7AE
:1040A000E1185A1C302081F84300224494F845104E
:1040B00082F843100233C7E70123224649463846B7
:1040C000C0470130E6D00136D9E700002DE9FF47AF
:1040D0000F7E0C9D782F914680460C469A4601F142
:1040E000430207D8622F0AD8002F00F0D480582F3F
:1040F00000F0C08004F1420584F842703AE0A7F174
:104100006303152BF6D801A151F823F0654100088F
:1041100079410008F5400008F5400008F540000826
:10412000F540000879410008F5400008F540000816
:10413000F5400008F54000087D420008A541000850
:1041400037420008F5400008F54000089F4200088B
:10415000F5400008A5410008F5400008F5400008BA
:104160003F4200082B681A1D1B682A6004F14205B3
:1041700084F8423001239FE020682B68070603F192
:104180000401296001D51E6803E04606FBD5B3F99A
:104190000060002E03DA2D23764284F843305A481B
:1041A0000A2312E02B682068191D2960050601D535
:1041B0001E6802E04106FBD51E8853486F2F0CBFD6
:1041C00008230A23002184F843106568A560002DA8
:1041D000A2BF216821F0040121600EB9002D4BD04F
:1041E0001546B6FBF3F103FB1167C75D05F8017DCA
:1041F0003746BB420E46F4D9082B0BD12368DE07A5
:1042000008D5236961689942DEBF302305F8013C77
:1042100005F1FF35521B2261CDF800A04B4603AAE1
:1042200021464046FFF7E4FE01304AD14FF0FF300F
:1042300004B0BDE8F087236843F0200323603348CF
:10424000782784F84570236829681F0651F8046BA5
:1042500002D45F0648BFB6B2DF0748BF43F0200371
:10426000296048BF23601EB9236823F02003236020
:104270001023A7E72448E4E71546BDE72B68266826
:104280006169181D286035061B6801D5196002E0B8
:104290007006FBD51980002323611546BCE72B6807
:1042A0001A1D2A601D68626800212846FBF7B0FFCE
:1042B00008B1401B606063682361002384F84330C9
:1042C000AAE723692A4649464046D0470130ADD087
:1042D00023689B0713D4E068039B9842B8BF184635
:1042E000A6E70123324649464046D04701309DD0DB
:1042F0000135E36803995B1AAB42F2DCEBE700257A
:1043000004F11906F5E700BFA9460008BA460008FF
:10431000884210B501EB020402D98442234607D833
:10432000431EA14208D011F8012B03F8012FF8E732
:10433000024401468A4200D110BD13F8014D02F833
:10434000014DF7E738B5064D0023044608462B60BB
:10435000FCF7C0FF431C02D12B6803B1236038BDBA
:10436000940300200A44914200F1FF3300D17047CA
:1043700010B511F8014B03F8014F9142F9D110BD6E
:104380002DE9F041804614460E4621B9BDE8F041C2
:104390001146FFF749BC2AB9FFF7DAFB2546284644
:1043A000BDE8F08100F01BF88442074602D8B4EB68
:1043B000500F12D821464046FFF736FC054600282C
:1043C000EDD0BC422246314628BF3A46FFF7CAFF2D
:1043D00031464046FFF7BCFBE1E73546DFE751F8E1
:1043E000043C181F002BBCBF0B58C01870470000BE
:1043F000F8B500BFF8BC08BC9E467047F8B500BFD2
:08440000F8BC08BC9E467047A1
:1044080047657473207468652070726F746F636F8A
:104418006C2076657273696F6E200D0A00000000CB
:10442800476574732068656C7020776974682043E9
:104438006F6D6D616E6473204944200D0A000000A1
:1044480047657473207468652063686970204944FF
:10445800200D0A00526561642070726F7465637480
:10446800696F6E206C6576656C200D0A000000008F
:104478004A756D707320746F20737065636966691F
:10448800632061646472657373206C6F6361746523
:104498006420696E2074686520666C617368206D9D
:1044A800656D6F7279200D0A000000004572617316
:1044B800657320736F6D6520706167657320696E21
:1044C80020666C617368206D656D6F7279200D0AC6
:1044D8000000000057726974652062797465732062
:1044E800696E20466C617368204D656D6F72792026
:1044F80066726F6D20616464726573732073706592
:1045080063696669656420627920746865206170F2
:10451800706C69636174696F6E200D0A0000000099
:104528004A756D707320746F2075736572206170A1
:10453800706C69636174696F6E20636F6465206C69
:104548006F636174656420696E2074686520666CA9
:10455800617368206D656D6F7279200D0A00000027
:10456800456E61626C65206F722044697361626C8C
:10457800652077726974652070726F746563742042
:104588006F6E20646966666572656E742073656314
:10459800746F7273206F6620746865207573657216
:1045A80020666C617368200D0A0000005265616422
:1045B80020646174612066726F6D20646966666547
:1045C80072656E74206D656D6F72696573206F66B4
:1045D80020746865206D6963726F636F6E74726FA3
:1045E8006C6C6572200D0A005265616420616C6C08
:1045F8002074686520736563746F722070726F74BD
:10460800656374696F6E20737461747573200D0A25
:10461800000000005265616420746865204F5450A2
:1046280020636F6E74656E7473200D0A00000000BD
:10463800526561642074686520524F50204C65763D
:10464800656C200D0A000000496E76616C69642073
:10465800636F6D6D616E6420636F6465207265635E
:1046680065697665642066726F6D20686F73742063
:104678002121200D0A0000000000000000000000B9
:1046880001020304060708090000000001020304F0
:10469800232D302B2000686C4C0065666745464723
:1046A80000303132333435363738394142434445A6
:1046B8004600303132333435363738396162636415
:0446C8006566000023
:0846CC0014BCFF7F0100000097
:0446D400F5010008E4
:0446D800D101000804
:1046DC00101112131415162217181920210000009E
:1046EC000024F40010000000010000000000000095
:1046FC005C020020C40200202C03002000000000FB
:10470C00000000000000000000000000000000009D
:10471C00000000000000000000000000000000008D
:10472C00000000000000000000000000000000007D
:0C473C0000000000000000001C00002035
:0400000508001609D0
:00000001FF
