:020000040800F2
:1080000000000220418A0008D5870008DB870008AD
:10801000E1870008E7870008ED87000800000000FE
:10802000000000000000000000000000F3870008CE
:1080300001880008000000000F8800081D88000863
:10804000918A0008918A0008918A0008918A0008A4
:10805000918A0008918A0008918A0008918A000894
:10806000918A0008918A0008918A0008918A000884
:10807000918A0008918A0008918A0008918A000874
:10808000918A0008918A0008918A0008918A000864
:10809000918A0008918A0008918A0008918A000854
:1080A000918A0008918A0008918A0008918A000844
:1080B000918A0008918A0008918A0008918A000834
:1080C000918A0008918A0008918A0008918A000824
:1080D000918A0008918A0008298800083D880008D4
:1080E000918A0008918A0008918A0008918A000804
:1080F000918A0008918A0008918A0008918A0008F4
:10810000918A0008918A0008918A0008918A0008E3
:10811000918A0008918A0008918A0008918A0008D3
:10812000918A0008918A0008918A0008918A0008C3
:10813000918A0008918A0008918A0008918A0008B3
:10814000918A0008918A0008918A0008918A0008A3
:10815000918A0008918A0008918A0008918A000893
:10816000918A0008918A0008918A0008918A000883
:10817000918A0008918A0008918A00080000000096
:10818000918A0008918A0008918A0008918A000863
:10819000918A0008918A0008918A0008918A000853
:0C81A000918A0008918A0008918A00086A
:1081AC0010B5054C237833B9044B13B10448AFF325
:1081BC0000800123237010BD10000020000000007F
:1081CC00B0AC000808B5034B1BB103490348AFF32F
:1081DC00008008BD0000000014000020B0AC0008B6
:1081EC0053B94AB9002908BF00281CBF4FF0FF3112
:1081FC004FF0FF3000F070B9ADF1080C6DE904CE12
:10820C0000F006F8DDF804E0DDE9022304B0704765
:10821C002DE9F047089E0D4604460F46002B4AD127
:10822C008A42944665D9B2FA82F343B102FA03FC4E
:10823C00C3F120029F4020FA02F217439C404FEA00
:10824C001C4E1FFA8CF5B7FBFEF1220C0EFB1177BE
:10825C0042EA074201FB05F090420AD91CEB0202EC
:10826C0001F1FF3780F01C81904240F219810239F4
:10827C006244121AA4B2B2FBFEF00EFB102244EAC6
:10828C00024400FB05F5A5420AD91CEB040400F1DD
:10829C00FF3280F00781A54240F204816444023829
:1082AC0040EA0140641B00211EB1DC400023C6E9FA
:1082BC000043BDE8F0878B4208D9002E00F0ED801A
:1082CC000021C6E900050846BDE8F087B3FA83F142
:1082DC00002949D1AB4202D3824200F2F880841AC1
:1082EC0065EB030201201746002EE2D0C6E90047D9
:1082FC00DFE702B9FFDEB2FA82F3002B40F0908088
:10830C008A1A4FEA1C471FFA8CFE0121B2FBF7F5C3
:10831C0007FB1520220C42EA00420EFB05F09042AE
:10832C0008D91CEB020205F1FF3802D2904200F290
:10833C00CB804546121AA4B2B2FBF7F007FB102211
:10834C0044EA02440EFB00FEA64508D91CEB0404CB
:10835C0000F1FF3202D2A64500F2BB801046A4EB1E
:10836C000E0440EA05409FE7C1F120078B4022FA3A
:10837C0007FC4CEA030C05FA01F420FA07F3FD4064
:10838C004FEA1C492343B5FBF9F81FFA8CFE09FB95
:10839C0018551C0C44EA054408FB0EF5A54202FADC
:1083AC0001F200FA01F00BD91CEB040408F1FF3ABE
:1083BC0080F08880A54240F28580A8F102086444D0
:1083CC00641B9DB2B4FBF9F309FB134445EA044466
:1083DC0003FB0EFEA64508D91CEB040403F1FF3584
:1083EC006CD2A6456AD9023B644443EA0843A3FB1A
:1083FC000295A4EB0E04AC42C846AE4656D353D0FD
:10840C0056B1B0EB080264EB0E0404FA07F7CA404D
:10841C00CC401743C6E9007418460021BDE8F0872C
:10842C00C3F1200102FA03FC20FA01F225FA01F152
:10843C009D402A434FEA1C471FFA8CFEB1FBF7F014
:10844C0007FB1015110C41EA054100FB0EF58D429E
:10845C0004FA03F408D91CEB010100F1FF382FD208
:10846C008D422DD902386144491B92B2B1FBF7F50C
:10847C0007FB151142EA014205FB0EF1914208D9A6
:10848C001CEB020205F1FF3816D2914214D9023DC1
:10849C006244521A45EA004138E73146304608E753
:1084AC003946E6E61046FBE64845A9D2B9EB020888
:1084BC0065EB0C0E013BA3E74546EAE72B4694E738
:1084CC004046D1E7D0467BE7023D624432E708469E
:1084DC000AE76444023842E7704700BF80B58CB0AD
:1084EC0000AF07F11C0300221A605A609A60DA6030
:1084FC001A610023BB613F4B1B6B3E4A43F00403E4
:10850C0013633C4B1B6B03F00403BB61BB6900237F
:10851C007B61384B1B6B374A43F080031363354B3D
:10852C001B6B03F080037B617B6900233B61314B48
:10853C001B6B304A43F0010313632E4B1B6B03F090
:10854C0001033B613B690023FB602A4B1B6B294AEF
:10855C0043F002031363274B1B6B03F00203FB6016
:10856C00FB680023BB60234B1B6B224A43F00803C0
:10857C001363204B1B6B03F00803BB60BB68002329
:10858C007B601C4B1B6B1B4A43F040031363194B62
:10859C001B6B03F040037B607B680022A221164812
:1085AC0000F072FE00224FF4C041144800F06CFE43
:1085BC00A223FB6101233B6200237B620023BB628D
:1085CC0007F11C0319460C4800F0B2FC4FF4C043F1
:1085DC00FB6101233B6200237B620023BB6207F13A
:1085EC001C031946054800F0A3FC00BF3037BD46FC
:1085FC0080BD00BF0038024000000240001802405D
:10860C0080B500AF00F040FA00F028F8FFF766FFE5
:10861C0000F02EF900F056F901220C490C4801F03B
:10862C009AFB012220210B4800F02EFE4FF4005142
:10863C00094800F042FE4FF48041074800F03DFE2F
:10864C004FF47A7000F092FAF0E700BF2C00002093
:10865C0078000020000002400018024080B594B061
:10866C0000AF07F1200330220021184602F0EEFA89
:10867C0007F10C0300221A605A609A60DA601A61E2
:10868C000023BB60234B1B6C224A43F080531364C2
:10869C00204B1B6C03F08053BB60BB6800237B60DA
:1086AC001D4B1B6823F440431B4A43F48043136067
:1086BC00194B1B6803F440437B607B6802233B62CD
:1086CC000123FB6210233B630023BB6307F12003F0
:1086DC00184600F00DFE0346002B01D000F046F8C2
:1086EC000F23FB6000233B6100237B610023BB61F4
:1086FC000023FB6107F10C030021184601F070F810
:10870C000346002B01D000F031F800BF5037BD46B6
:10871C0080BD00BF003802400070004080B584B0BE
:10872C0000AF786001220E490E4801F014FB0E4B8D
:10873C001B78DAB20A4B1B78DBB29A420BD1CD23F1
:10874C00FB7307F10F014FF0FF330122054801F0D5
:10875C0077FA00F04AFB00BF1037BD4680BD00BF62
:10876C002C000020780000200000002080B400AF16
:10877C0072B600BFFEE7000080B483B000AF0023E8
:10878C007B60104B5B6C0F4A43F4804353640D4B7E
:10879C005B6C03F480437B607B6800233B60094B7C
:1087AC001B6C084A43F080531364064B1B6C03F09C
:1087BC0080533B603B6800BF0C37BD465DF8047BC3
:1087CC00704700BF0038024080B400AFFEE780B4B1
:1087DC0000AFFEE780B400AFFEE780B400AFFEE769
:1087EC0080B400AFFEE780B400AF00BFBD465DF8BB
:1087FC00047B704780B400AF00BFBD465DF8047BBE
:10880C00704780B400AF00BFBD465DF8047B704775
:10881C0080B500AF00F08AF900BF80BD80B500AF15
:10882C00024801F0BDFA00BF80BD00BF300000203F
:10883C0080B500AF024801F0B3FA00BF80BD00BFA5
:10884C007800002080B400AF074BD3F88830064A7C
:10885C0043F47003C2F88830034B044A9A6000BF9B
:10886C00BD465DF8047B704700ED00E00080000819
:10887C0080B500AF114B124A1A60104B4FF4E13225
:10888C005A600E4B00229A600C4B0022DA600B4BA4
:10889C0000221A61094B0C225A61084B00229A6182
:1088AC00064B0022DA61054801F07AF90346002BE9
:1088BC0001D0FFF75BFF00BF80BD00BF3000002080
:1088CC000044004080B500AF114B124A1A60104BA7
:1088DC004FF416525A600E4B00229A600C4B002239
:1088EC00DA600B4B00221A61094B0C225A61084BBF
:1088FC0000229A61064B0022DA61054801F050F91A
:10890C000346002B01D0FFF731FF00BF80BD00BF35
:10891C00780000200048004080B58CB000AF786033
:10892C0007F11C0300221A605A609A60DA601A611F
:10893C007B681B683A4A934234D10023BB61394BA4
:10894C001B6C384A43F400331364364B1B6C03F432
:10895C000033BB61BB6900237B61324B1B6B314A1B
:10896C0043F0080313632F4B1B6B03F008037B616D
:10897C007B696023FB6102233B6200237B62032340
:10898C00BB620723FB6207F11C031946264800F063
:10899C00CFFA00220021262000F0FDF9262000F05D
:1089AC0016FA39E07B681B68204A934234D10023C5
:1089BC003B611C4B1B6C1B4A43F480231364194B07
:1089CC001B6C03F480233B613B690023FB60154B5C
:1089DC001B6B144A43F002031363124B1B6B03F023
:1089EC000203FB60FB684FF44063FB6102233B62B4
:1089FC0000237B620323BB620723FB6207F11C038A
:108A0C0019460B4800F094FA00220021272000F0B0
:108A1C00C2F9272000F0DBF900BF3037BD4680BD1E
:108A2C000044004000380240000C02400048004066
:108A3C0000040240DFF834D0FFF704FF0C480D4966
:108A4C000D4A002302E0D458C4500433C4188C429D
:108A5C00F9D30A4A0A4C002301E013600432A24203
:108A6C00FBD302F0FBF8FFF7CBFD704700000220B0
:108A7C000000002010000020F0AC000810000020C6
:108A8C00C4000020FEE7000080B500AF0E4B1B6851
:108A9C000D4A43F4007313600B4B1B680A4A43F4F2
:108AAC0080631360084B1B68074A43F480731360A0
:108ABC00032000F065F90F2000F008F8FFF75CFECA
:108ACC000023184680BD00BF003C024080B582B038
:108ADC0000AF7860124B1A68124B1B7819464FF492
:108AEC007A73B3FBF1F3B2FBF3F3184600F081F9A0
:108AFC000346002B01D001230EE07B680F2B0AD814
:108B0C00002279684FF0FF3000F045F9064A7B6887
:108B1C001360002300E0012318460837BD4680BDD2
:108B2C00040000200C0000200800002080B400AFDE
:108B3C00064B1B781A46064B1B681344044A1360F9
:108B4C0000BFBD465DF8047B704700BF0C000020E1
:108B5C00C000002080B400AF034B1B681846BD4614
:108B6C005DF8047B704700BFC000002080B584B066
:108B7C0000AF7860FFF7EEFFB8607B68FB60FB68C6
:108B8C00B3F1FF3F05D00A4B1B781A46FB68134420
:108B9C00FB6000BFFFF7DEFF0246BB68D31AFA6822
:108BAC009A42F7D800BF00BF1037BD4680BD00BF4A
:108BBC000C00002080B485B000AF78607B6803F0B7
:108BCC000703FB600C4BDB68BB60BA684FF6FF0316
:108BDC001340BB60FB681A02BB68134343F0BF63CE
:108BEC0043F40033BB60044ABB68D36000BF143746
:108BFC00BD465DF8047B704700ED00E080B400AF2B
:108C0C00044BDB681B0A03F007031846BD465DF8EE
:108C1C00047B704700ED00E080B483B000AF0346E6
:108C2C00FB7197F90730002B0BDBFB7903F01F026C
:108C3C00074997F907305B09012000FA02F241F865
:108C4C00232000BF0C37BD465DF8047B704700BF86
:108C5C0000E100E080B483B000AF03463960FB71E3
:108C6C0097F90730002B0ADB3B68DAB20C4997F90D
:108C7C0007301201D2B20B4483F800230AE03B68A0
:108C8C00DAB20849FB7903F00F03043B1201D2B2AC
:108C9C000B441A7600BF0C37BD465DF8047B704759
:108CAC0000E100E000ED00E080B489B000AFF860B6
:108CBC00B9607A60FB6803F00703FB61FB69C3F1E1
:108CCC000703042B28BF0423BB61FB690433062B69
:108CDC0002D9FB69033B00E000237B614FF0FF32BC
:108CEC00BB6902FA03F3DA43BB681A407B699A400A
:108CFC004FF0FF317B6901FA03F3D9437B680B40DA
:108D0C00134318462437BD465DF8047B70470000BA
:108D1C0080B400AFBFF34F8F00BF064BDB6803F48A
:108D2C00E0620449044B1343CB60BFF34F8F00BF89
:108D3C0000BFFDE700ED00E00400FA0580B582B04D
:108D4C0000AF78607B68013BB3F1807F01D30123D6
:108D5C000FE00A4A7B68013B53600F214FF0FF3054
:108D6C00FFF778FF054B00229A60044B07221A602C
:108D7C00002318460837BD4680BD00BF10E000E058
:108D8C0080B582B000AF78607868FFF713FF00BF42
:108D9C000837BD4680BD80B586B000AF0346B960CC
:108DAC007A60FB7300237B61FFF728FF78617A6898
:108DBC00B9687869FFF778FF024697F90F301146CA
:108DCC001846FFF747FF00BF1837BD4680BD80B57A
:108DDC0082B000AF0346FB7197F907301846FFF7D6
:108DEC001BFF00BF0837BD4680BD80B500AFFFF745
:108DFC008FFF80B582B000AF78607868FFF79EFF78
:108E0C00034618460837BD4680BD80B584B000AF18
:108E1C0078607B689B6DFB60FFF79CFEB8607B689D
:108E2C0093F83530DBB2022B08D07B6880225A6570
:108E3C007B68002283F83420012352E07B681B6896
:108E4C001A687B681B6822F016021A607B681B6824
:108E5C005A697B681B6822F080025A617B681B6C24
:108E6C00002B03D17B689B6C002B07D07B681B68A5
:108E7C001A687B681B6822F008021A607B681B6802
:108E8C001A687B681B6822F001021A6013E0FFF776
:108E9C0061FE0246BB68D31A052B0CD97B682022D5
:108EAC005A657B68032283F835207B68002283F89F
:108EBC003420032315E07B681B681B6803F0010357
:108ECC00002BE4D17B68DB6D3F229A40FB689A60F3
:108EDC007B68012283F835207B68002283F83420DC
:108EEC00002318461037BD4680BD80B483B000AF58
:108EFC0078607B6893F83530DBB2022B04D07B684A
:108F0C0080225A6501230CE07B68052283F835200A
:108F1C007B681B681A687B681B6822F001021A6068
:108F2C00002318460C37BD465DF8047B70470000E3
:108F3C0080B489B000AF7860396000237B61002376
:108F4C003B610023BB610023FB6177E10122FB69DC
:108F5C0002FA03F37B613B681B687A6913403B613F
:108F6C003A697B699A4240F066813B685B6803F022
:108F7C000303012B05D03B685B6803F00303022B52
:108F8C0030D17B689B68BB61FB695B00032202FAF2
:108F9C0003F3DB43BA691340BB613B68DA68FB69D6
:108FAC005B0002FA03F3BA691343BB617B68BA69CD
:108FBC009A607B685B68BB610122FB6902FA03F370
:108FCC00DB43BA691340BB613B685B681B0903F068
:108FDC000102FB6902FA03F3BA691343BB617B68B4
:108FEC00BA695A603B685B6803F00303032B17D024
:108FFC007B68DB68BB61FB695B00032202FA03F34D
:10900C00DB43BA691340BB613B689A68FB695B0040
:10901C0002FA03F3BA691343BB617B68BA69DA607D
:10902C003B685B6803F00303022B23D1FB69DA086E
:10903C007B68083253F82230BB61FB6903F00703ED
:10904C009B000F2202FA03F3DB43BA691340BB61A6
:10905C003B681A69FB6903F007039B0002FA03F3F0
:10906C00BA691343BB61FB69DA087B680832B969DA
:10907C0043F822107B681B68BB61FB695B00032211
:10908C0002FA03F3DB43BA691340BB613B685B68CC
:10909C0003F00302FB695B0002FA03F3BA691343A2
:1090AC00BB617B68BA691A603B685B6803F4403348
:1090BC00002B00F0C0800023FB60664B5B6C654AA4
:1090CC0043F480435364634B5B6C03F48043FB6059
:1090DC00FB68614AFB699B08023352F82330BB6181
:1090EC00FB6903F003039B000F2202FA03F3DB433B
:1090FC00BA691340BB617B68584A934237D07B688E
:10910C00574A934231D07B68564A93422BD07B68A6
:10911C00554A934225D07B68544A93421FD07B68B2
:10912C00534A934219D07B68524A934213D07B68BE
:10913C00514A93420DD07B68504A934207D07B68CA
:10914C004F4A934201D1092312E00A2310E008236D
:10915C000EE007230CE006230AE0052308E00423B5
:10916C0006E0032304E0022302E0012300E00023D5
:10917C00FA6902F0030292009340BA691343BB618F
:10918C003549FB699B080233BA6941F823203D4BF2
:10919C009B68BB613B69DB43BA691340BB613B68AD
:1091AC005B6803F48013002B03D0BA693B6913434B
:1091BC00BB61344ABB699360324BDB68BB613B6972
:1091CC00DB43BA691340BB613B685B6803F4001373
:1091DC00002B03D0BA693B691343BB61294ABB69B5
:1091EC00D360284B5B68BB613B69DB43BA691340B6
:1091FC00BB613B685B6803F40033002B03D0BA6996
:10920C003B691343BB611F4ABB6953601D4B1B6811
:10921C00BB613B69DB43BA691340BB613B685B686C
:10922C0003F48033002B03D0BA693B691343BB6151
:10923C00144ABB691360FB690133FB61FB690F2B9B
:10924C007FF684AE00BF00BF2437BD465DF8047BBB
:10925C00704700BF00380240003801400000024057
:10926C000004024000080240000C024000100240C2
:10927C000014024000180240001C02400020024072
:10928C0000240240003C014080B483B000AF786001
:10929C000B467B8013467B707B78002B03D07A883F
:1092AC007B689A6103E07B881A047B689A6100BF33
:1092BC000C37BD465DF8047B704780B485B000AFB9
:1092CC0078600B467B807B685B69FB607A88FB6807
:1092DC0013401A04FB68D9437B880B401A437B6804
:1092EC009A6100BF1437BD465DF8047B70470000DF
:1092FC0080B586B000AF78607B68002B01D101236C
:10930C0067E27B681B6803F00103002B75D0884B68
:10931C009B6803F00C03042B0CD0854B9B6803F06B
:10932C000C03082B12D1824B5B6803F48003B3F55A
:10933C00800F0BD17E4B1B6803F40033002B5BD0EA
:10934C007B685B68002B57D1012342E27B685B682A
:10935C00B3F5803F06D1764B1B68754A43F48033D6
:10936C0013601DE07B685B68B3F5A02F0CD1704BCC
:10937C001B686F4A43F4802313606D4B1B686C4A67
:10938C0043F4803313600BE0694B1B68684A23F489
:10939C0080331360664B1B68654A23F4802313608B
:1093AC007B685B68002B13D0FFF7D4FB386108E0B7
:1093BC00FFF7D0FB02463B69D31A642B01D9032378
:1093CC0007E25B4B1B6803F40033002BF0D014E076
:1093DC00FFF7C0FB386108E0FFF7BCFB02463B69B6
:1093EC00D31A642B01D90323F3E1514B1B6803F40B
:1093FC000033002BF0D100E000BF7B681B6803F04A
:10940C000203002B63D04A4B9B6803F00C03002B28
:10941C000BD0474B9B6803F00C03082B1CD1444B1F
:10942C005B6803F48003002B16D1414B1B6803F0DF
:10943C000203002B05D07B68DB68012B01D00123D4
:10944C00C7E13B4B1B6823F0F8027B681B69DB0010
:10945C00374913430B603AE07B68DB68002B20D064
:10946C00344B01221A60FFF775FB386108E0FFF7F7
:10947C0071FB02463B69D31A022B01D90323A8E1E5
:10948C002B4B1B6803F00203002BF0D0284B1B68FE
:10949C0023F0F8027B681B69DB00254913430B6042
:1094AC0015E0244B00221A60FFF754FB386108E0EA
:1094BC00FFF750FB02463B69D31A022B01D9032359
:1094CC0087E11B4B1B6803F00203002BF0D17B6878
:1094DC001B6803F00803002B36D07B685B69002BFC
:1094EC0016D0154B01221A60FFF734FB386108E0E7
:1094FC00FFF730FB02463B69D31A022B01D9032339
:10950C0067E10B4B5B6F03F00203002BF0D01BE009
:10951C00094B00221A60FFF71DFB38610EE0FFF7C4
:10952C0019FB02463B69D31A022B07D9032350E1DE
:10953C000038024000004742800E4742884B5B6F68
:10954C0003F00203002BEAD17B681B6803F00403D1
:10955C00002B00F097800023FB75814B1B6C03F0F4
:10956C008053002B0FD10023BB607D4B1B6C7C4ABE
:10957C0043F0805313647A4B1B6C03F08053BB6035
:10958C00BB680123FB75774B1B6803F48073002BBE
:10959C0018D1744B1B68734A43F480731360FFF744
:1095AC00D9FA386108E0FFF7D5FA02463B69D31ABD
:1095BC00022B01D903230CE16A4B1B6803F4807363
:1095CC00002BF0D07B689B68012B06D1644B1B6F82
:1095DC00634A43F0010313671CE07B689B68052B0F
:1095EC000CD15F4B1B6F5E4A43F0040313675C4B5B
:1095FC001B6F5B4A43F0010313670BE0584B1B6F67
:10960C00574A23F001031367554B1B6F544A23F041
:10961C00040313677B689B68002B15D0FFF79AFA3D
:10962C0038610AE0FFF796FA02463B69D31A41F219
:10963C008832934201D90323CBE0494B1B6F03F0D3
:10964C000203002BEED014E0FFF784FA38610AE035
:10965C00FFF780FA02463B69D31A41F288329342F3
:10966C0001D90323B5E03E4B1B6F03F00203002B23
:10967C00EED1FB7D012B05D1394B1B6C384A23F005
:10968C00805313647B689B69002B00F0A180344BE2
:10969C009B6803F00C03082B5CD07B689B69022B46
:1096AC0041D1314B00221A60FFF754FA386108E0BF
:1096BC00FFF750FA02463B69D31A022B01D9032358
:1096CC0087E0274B1B6803F00073002BF0D17B68FD
:1096DC00DA697B681B6A1A437B685B6A9B011A43D5
:1096EC007B689B6A5B08013B1B041A437B68DB6A43
:1096FC001B061B4913434B601B4B01221A60FFF7DF
:10970C0029FA386108E0FFF725FA02463B69D31ABB
:10971C00022B01D903235CE0114B1B6803F000738F
:10972C00002BF0D054E0104B00221A60FFF712FA15
:10973C00386108E0FFF70EFA02463B69D31A022B98
:10974C0001D9032345E0064B1B6803F00073002B83
:10975C00F0D13DE07B689B69012B07D1012338E0F8
:10976C000038024000700040600047421B4B5B68B1
:10977C00FB607B689B69012B28D0FB6803F480029B
:10978C007B68DB699A4221D1FB6803F03F027B685E
:10979C001B6A9A421AD1FA6847F6C07313407A686A
:1097AC00526A9201934211D1FB6803F440327B68F8
:1097BC009B6A5B08013B1B049A4207D1FB6803F0D0
:1097CC0070627B68DB6A1B069A4201D0012300E0C1
:1097DC00002318461837BD4680BD00BF0038024034
:1097EC0080B584B000AF786039607B68002B01D104
:1097FC000123CCE0684B1B6803F00F033A689A42D4
:10980C000CD9654B3A68D2B21A70634B1B6803F0E3
:10981C000F033A689A4201D00123B8E07B681B68B9
:10982C0003F00203002B20D07B681B6803F00403B9
:10983C00002B05D0594B9B68584A43F4E053936076
:10984C007B681B6803F00803002B05D0534B9B6807
:10985C00524A43F460439360504B9B6823F0F002F0
:10986C007B689B684D4913438B607B681B6803F0D6
:10987C000103002B44D07B685B68012B07D1474B5D
:10988C001B6803F40033002B19D101237FE07B68A4
:10989C005B68022B03D07B685B68032B07D13F4BC3
:1098AC001B6803F00073002B09D101236FE03B4BC5
:1098BC001B6803F00203002B01D1012367E0374B37
:1098CC009B6823F003027B685B68344913438B600D
:1098DC00FFF740F9F8600AE0FFF73CF90246FB6835
:1098EC00D31A41F28832934201D903234FE02B4B18
:1098FC009B6803F00C027B685B689B009A42EBD17F
:10990C00254B1B6803F00F033A689A420CD2224B8A
:10991C003A68D2B21A70204B1B6803F00F033A68F6
:10992C009A4201D0012332E07B681B6803F00403E8
:10993C00002B08D0194B9B6823F4E0527B68DB6842
:10994C00164913438B607B681B6803F00803002BDC
:10995C0009D0124B9B6823F460427B681B69DB00C7
:10996C000E4913438B6000F021F802460B4B9B68A9
:10997C001B0903F00F030A49CB5C22FA03F3094AD3
:10998C001360094B1B681846FFF7A0F80023184614
:10999C001037BD4680BD00BF003C0240003802407D
:1099AC00C8AC000804000020080000202DE9B04FCE
:1099BC0090B000AF00237B630023FB6300233B6369
:1099CC000023BB63594B9B6803F00C03082B0DD091
:1099DC00082B00F2A180002B02D0042B03D09BE0BB
:1099EC00534BBB639BE0534BBB6398E04F4B5B68A3
:1099FC0003F03F037B634D4B5B6803F48003002B48
:109A0C0028D04A4B5B689B0900223B627A623B6A16
:109A1C00C3F308000021474B03FB01F2002300FBBA
:109A2C0003F31344434AA0FB0212FA620A46BA62D9
:109A3C00FA6A1344FB627B6B0022BB61FA61D7E9C3
:109A4C000623D7E90A01FEF7CBFB02460B46134669
:109A5C00FB6353E0354B5B689B0900223B617A61E9
:109A6C003B69C3F3080A4FF0000B52465B464FF0BC
:109A7C0000004FF00001590141EAD2615001024649
:109A8C000B46B2EB0A0863EB0B094FF000024FF0E8
:109A9C0000034FEA891343EA98634FEA8812B2EB4A
:109AAC00080463EB09054FF000024FF00003EB00D4
:109ABC0043EA5473E20014461D4614EB0A033B6060
:109ACC0045EB0B037B604FF000024FF00003D7E92E
:109ADC00004529468B02214643EA915321468A02CE
:109AEC00104619467B6B0022BB60FA60D7E9022353
:109AFC00FEF776FB02460B461346FB630B4B5B688B
:109B0C001B0C03F0030301335B003B63FA6B3B6BF1
:109B1C00B2FBF3F3BB6302E0054BBB6300BFBB6B53
:109B2C0018464037BD46BDE8B08F00BF0038024034
:109B3C000024F40040787D0180B400AF034B1B6817
:109B4C001846BD465DF8047B704700BF040000203A
:109B5C0080B500AFFFF7F0FF0246054B9B689B0AF0
:109B6C0003F007030349CB5C22FA03F3184680BDCC
:109B7C0000380240D8AC000880B500AFFFF7DCFF1E
:109B8C000246054B9B685B0B03F007030349CB5C58
:109B9C0022FA03F3184680BD00380240D8AC000806
:109BAC0080B582B000AF78607B68002B01D10123B7
:109BBC0042E07B6893F84130DBB2002B06D17B6826
:109BCC00002283F840207868FEF7A6FE7B682422EA
:109BDC0083F841207B681B68DA687B681B6822F479
:109BEC000052DA60786800F0BDFD7B681B681A696A
:109BFC007B681B6822F490421A617B681B685A6967
:109C0C007B681B6822F02A025A617B681B68DA6841
:109C1C007B681B6842F40052DA607B6800225A644D
:109C2C007B68202283F841207B68202283F8422025
:109C3C007B6800225A63002318460837BD4680BD56
:109C4C0080B58AB002AFF860B9603B601346FB8008
:109C5C0000237B61FB6893F84130DBB2202B75D17C
:109C6C00BB68002B02D0FB88002B01D101236EE0D6
:109C7C00FB6800225A64FB68212283F84120FEF71E
:109C8C0069FF7861FB68FA889A84FB68FA88DA8441
:109C9C00FB689B68B3F5805F08D1FB681B69002BE0
:109CAC0004D10023FB61BB68BB6103E0BB68FB61B3
:109CBC000023BB612EE03B6800937B69002280216E
:109CCC00F86800F01FFB0346002B05D0FB68202230
:109CDC0083F8412003233AE0FB69002B0BD1BB69CD
:109CEC001B881A46FB681B68C2F308025A60BB69E2
:109CFC000233BB6107E0FB691A78FB681B685A608A
:109D0C00FB690133FB61FB68DB8C9BB2013B9AB2B4
:109D1C00FB68DA84FB68DB8C9BB2002BCBD13B68F5
:109D2C0000937B6900224021F86800F0EBFA0346AF
:109D3C00002B05D0FB68202283F84120032306E08A
:109D4C00FB68202283F84120002300E00223184600
:109D5C002037BD4680BD80B584B000AFF860B960D7
:109D6C001346FB80FB6893F84230DBB2202B12D1F8
:109D7C00BB68002B02D0FB88002B01D101230BE028
:109D8C00FB6800221A63FB881A46B968F86800F071
:109D9C0012FB034600E0022318461037BD4680BD77
:109DAC0080B5BAB000AF78607B681B681B68C7F8D9
:109DBC00E4307B681B68DB68C7F8E0307B681B68A5
:109DCC005B69C7F8DC300023C7F8D8300023C7F82C
:109DDC00D430D7F8E43003F00F03C7F8D830D7F8F5
:109DEC00D830002B0FD1D7F8E43003F02003002B30
:109DFC0009D0D7F8E03003F02003002B03D07868AB
:109E0C0000F0F2FB5BE2D7F8D830002B00F0DE80DC
:109E1C00D7F8DC3003F00103002B06D1D7F8E03083
:109E2C0003F49073002B00F0D180D7F8E43003F0EA
:109E3C000103002B0BD0D7F8E03003F48073002B18
:109E4C0005D07B685B6C43F001027B685A64D7F8E1
:109E5C00E43003F00403002B0BD0D7F8DC3003F014
:109E6C000103002B05D07B685B6C43F002027B681E
:109E7C005A64D7F8E43003F00203002B0BD0D7F868
:109E8C00DC3003F00103002B05D07B685B6C43F0E6
:109E9C0004027B685A64D7F8E43003F00803002B03
:109EAC0011D0D7F8E03003F02003002B05D1D7F800
:109EBC00DC3003F00103002B05D07B685B6C43F0B6
:109ECC0008027B685A647B685B6C002B00F0F281A3
:109EDC00D7F8E43003F02003002B08D0D7F8E0309B
:109EEC0003F02003002B02D0786800F07DFB7B6828
:109EFC001B685B6903F04003402B0CBF012300235C
:109F0C00DBB2C7F8D4307B685B6C03F00803002B22
:109F1C0003D1D7F8D430002B4FD0786800F085FAF5
:109F2C007B681B685B6903F04003402B41D17B6865
:109F3C001B681433C7F89C30D7F89C3053E8003FAB
:109F4C00C7F89830D7F8983023F04003C7F8D030D2
:109F5C007B681B681433D7F8D020C7F8A820C7F843
:109F6C00A430D7F8A410D7F8A82041E80023C7F8EC
:109F7C00A030D7F8A030002BD9D17B68DB6B002B3D
:109F8C0013D07B68DB6B7E4A1A657B68DB6B1846EB
:109F9C00FEF7ABFF0346002B16D07B68DB6B1B6D0B
:109FAC007A68D26B104698470EE0786800F094F906
:109FBC000AE0786800F090F906E0786800F08CF917
:109FCC007B6800225A6475E100BF73E17B681B6BF0
:109FDC00012B40F04F81D7F8E43003F01003002B35
:109FEC0000F04881D7F8E03003F01003002B00F0AC
:109FFC0041810023BB607B681B681B68BB607B686E
:10A00C001B685B68BB60BB687B681B685B6903F0A3
:10A01C004003402B40F0B6807B68DB6B1B685B68B1
:10A02C00A7F8BE30B7F8BE30002B00F045817B6836
:10A03C009B8DB7F8BE209A4280F03E817B68B7F8C2
:10A04C00BE20DA857B68DB6BDB69B3F5807F00F0C3
:10A05C0088807B681B680C33C7F88830D7F8883049
:10A06C0053E8003FC7F88430D7F8843023F480736A
:10A07C00C7F8B8307B681B680C33D7F8B820C7F822
:10A08C009420C7F89030D7F89010D7F8942041E876
:10A09C000023C7F88C30D7F88C30002BD9D17B68D3
:10A0AC001B6814337B677B6F53E8003F3B673B6F48
:10A0BC0023F00103C7F8B4307B681B681433D7F85E
:10A0CC00B420C7F88020FB67F96FD7F8802041E8EF
:10A0DC000023BB67BB6F002BE1D17B681B6814337B
:10A0EC003B663B6E53E8003FFB65FB6D23F0400382
:10A0FC00C7F8B0307B681B681433D7F8B020FA6609
:10A10C00BB66B96EFA6E41E800237B667B6E002B52
:10A11C00E3D17B68202283F842207B6800221A63FB
:10A12C007B681B680C33FB64FB6C53E8003FBB641F
:10A13C00BB6C23F01003C7F8AC307B681B680C3386
:10A14C00D7F8AC20BA657B65796DBA6D41E8002310
:10A15C003B653B6D002BE3D17B68DB6B1846FEF750
:10A16C0054FE7B6802225A637B689A8D7B68DB8D78
:10A17C009BB2D31A9BB21946786800F0B7F89BE0F3
:10A18C00FDA400087B689A8D7B68DB8D9BB2D31A8B
:10A19C00A7F8CE307B68DB8D9BB2002B00F08E8055
:10A1AC00B7F8CE30002B00F089807B681B680C332D
:10A1BC00BB63BB6B53E8003F7B637B6B23F49073F7
:10A1CC00C7F8C8307B681B680C33D7F8C8207A6492
:10A1DC003B64396C7A6C41E80023FB63FB6B002B0E
:10A1EC00E3D17B681B6814337B627B6A53E8003FC6
:10A1FC003B623B6A23F00103C7F8C4307B681B68E1
:10A20C001433D7F8C4203A63FB62F96A3A6B41E81D
:10A21C000023BB62BB6A002BE3D17B68202283F84E
:10A22C0042207B6800221A637B681B680C333B61FD
:10A23C003B6953E8003FFB60FB6823F01003C7F851
:10A24C00C0307B681B680C33D7F8C020FA61BB6147
:10A25C00B969FA6941E800237B617B69002BE3D182
:10A26C007B6802225A63B7F8CE301946786800F042
:10A27C003DF823E0D7F8E43003F08003002B09D03D
:10A28C00D7F8E03003F08003002B03D0786800F09F
:10A29C0043F914E0D7F8E43003F04003002B0ED060
:10A2AC00D7F8E03003F04003002B08D0786800F0BA
:10A2BC0083F904E000BF02E000BF00E000BFE83714
:10A2CC00BD4680BD80B483B000AF786000BF0C3752
:10A2DC00BD465DF8047B704780B483B000AF7860F6
:10A2EC0000BF0C37BD465DF8047B704780B483B06B
:10A2FC0000AF78600B467B8000BF0C37BD465DF825
:10A30C00047B704780B586B000AFF860B9603B60E5
:10A31C001346FB713BE03B6AB3F1FF3F37D0FEF7CE
:10A32C0019FC02463B68D31A3A6A9A4202D33B6A3A
:10A33C00002B01D103233AE0FB681B68DB6803F0B8
:10A34C000403002B23D0BB68802B20D0BB68402B90
:10A35C001DD0FB681B681B6803F00803082B16D183
:10A36C0000237B61FB681B681B687B61FB681B68B7
:10A37C005B687B617B69F86800F057F8FB68082222
:10A38C005A64FB68002283F8402001230FE0FB682D
:10A39C001B681A68BB681340BA689A420CBF012349
:10A3AC000023DBB21A46FB799A42B4D0002318463C
:10A3BC001837BD4680BD80B485B000AFF860B96079
:10A3CC001346FB80FB68BA689A62FB68FA889A8528
:10A3DC00FB68FA88DA85FB6800225A64FB68222243
:10A3EC0083F84220FB681B69002B07D0FB681B68B5
:10A3FC00DA68FB681B6842F48072DA60FB681B68E1
:10A40C005A69FB681B6842F001025A61FB681B68C1
:10A41C00DA68FB681B6842F02002DA6000231846F9
:10A42C001437BD465DF8047B704780B495B000AF1F
:10A43C0078607B681B680C337B637B6B53E8003F55
:10A44C003B633B6B23F49073FB647B681B680C339E
:10A45C00FA6C3A64FB63F96B3A6C41E80023BB631A
:10A46C00BB6B002BE5D17B681B6814333B623B6AEA
:10A47C0053E8003FFB61FB6923F00103BB647B687D
:10A48C001B681433BA6CFA62BB62B96AFA6A41E8A7
:10A49C0000237B627B6A002BE5D17B681B6B012B55
:10A4AC0019D17B681B680C33FB60FB6853E8003FD9
:10A4BC00BB60BB6823F010037B647B681B680C33A8
:10A4CC007A6CBA617B617969BA6941E800233B61B6
:10A4DC003B69002BE5D17B68202283F842207B6806
:10A4EC0000221A6300BF5437BD465DF8047B7047E9
:10A4FC0080B584B000AF78607B689B6BFB60FB68B9
:10A50C000022DA85FB680022DA84F868FFF7E4FEA3
:10A51C0000BF1037BD4680BD80B485B000AF7860F9
:10A52C007B6893F84130DBB2212B3ED17B689B6872
:10A53C00B3F5805F14D17B681B69002B10D17B684D
:10A54C001B6AFB60FB681B881A467B681B68C2F39E
:10A55C0008025A607B681B6A9A1C7B681A6208E0C6
:10A56C007B681B6A591C7A6811621A787B681B68B5
:10A57C005A607B68DB8C9BB2013B9BB27A681946B4
:10A58C00D184002B0FD17B681B68DA687B681B6851
:10A59C0022F08002DA607B681B68DA687B681B68D3
:10A5AC0042F04002DA60002300E002231846143720
:10A5BC00BD465DF8047B704780B582B000AF786013
:10A5CC007B681B68DA687B681B6822F04002DA60E3
:10A5DC007B68202283F841207868FFF773FE002304
:10A5EC0018460837BD4680BD80B58CB000AF78608A
:10A5FC007B6893F84230DBB2222B40F0AE807B6854
:10A60C009B68B3F5805F17D17B681B69002B13D156
:10A61C000023FB627B689B6ABB627B681B685B6880
:10A62C009BB2C3F308039AB2BB6A1A807B689B6A1D
:10A63C009A1C7B689A6226E07B689B6AFB6200230B
:10A64C00BB627B689B68B3F5805F07D07B689B68B7
:10A65C00002B0AD17B681B69002B06D17B681B6819
:10A66C005B68DAB2FB6A1A7008E07B681B685B688F
:10A67C00DBB203F07F03DAB2FB6A1A707B689B6A69
:10A68C005A1C7B689A627B68DB8D9BB2013B9BB248
:10A69C007A681946D185002B5DD17B681B68DA6816
:10A6AC007B681B6822F02002DA607B681B68DA6822
:10A6BC007B681B6822F48072DA607B681B685A69BD
:10A6CC007B681B6822F001025A617B68202283F8A8
:10A6DC0042207B6800225A637B681B6B012B35D1AF
:10A6EC007B6800221A637B681B680C337B617B6977
:10A6FC0053E8003F3B613B6923F010037B627B68AE
:10A70C001B680C337A6A3A62FB61F9693A6A41E870
:10A71C000023BB61BB69002BE5D17B681B681B6800
:10A72C0003F01003102B0AD10023FB607B681B681D
:10A73C001B68FB607B681B685B68FB60FB687B6865
:10A74C009B8D19467868FFF7D1FD02E07868FDF71C
:10A75C00E5FF002302E0002300E002231846303717
:10A76C00BD4680BD2DE9B04FC0B000AFC7F8F400B6
:10A77C00D7F8F4301B681B6923F44050D7F8F43039
:10A78C00D968D7F8F4301A6840EA01031361D7F896
:10A79C00F4309A68D7F8F4301B691A43D7F8F430C0
:10A7AC005B691A43D7F8F430DB691343C7F8F83008
:10A7BC00D7F8F4301B68DB6823F4164121F00C0148
:10A7CC00D7F8F4301A68D7F8F8300B43D360D7F8C1
:10A7DC00F4301B685B6923F44070D7F8F430996946
:10A7EC00D7F8F4301A6840EA01035361D7F8F43013
:10A7FC001A688F4B9A4205D0D7F8F4301A688D4BF3
:10A80C009A4204D1FFF7B8F9C7F8FC0003E0FFF750
:10A81C009FF9C7F8FC00D7F8F430DB69B3F5004FAB
:10A82C0040F00C81D7F8FC300022C7F8E830C7F8AC
:10A83C00EC20D7E93A4522462B469118B9655B4185
:10A84C00FB65D7E91623214612EB0108294643EB99
:10A85C0001094FF000024FF000034FEAC90343EA2D
:10A86C0058734FEAC80290469946234618EB0303E7
:10A87C00C7F8E0302B4649EB0303C7F8E430D7F8B0
:10A88C00F4305B680022C7F8D830C7F8DC20D7E971
:10A89C0036120B46DB183B65134642EB03037B6514
:10A8AC00D7E91423D7E93801FDF79AFC02460B4689
:10A8BC00614BA3FB02235B091C01D7F8FC3000227F
:10A8CC00C7F8D030C7F8D420D7E9348942464B4674
:10A8DC009118B9645B41FB64D7E91223414612EB32
:10A8EC00010A494643EB010B4FF000024FF0000305
:10A8FC004FEACB0343EA5A734FEACA0292469B468D
:10A90C0043461AEB0303C7F8C8304B464BEB030323
:10A91C00C7F8CC30D7F8F4305B680022C7F8C030E9
:10A92C00C7F8C420D7E930120B46DB183B6413463A
:10A93C0042EB03037B64D7E91023D7E93201FDF71F
:10A94C004FFC02460B4611463B4BA3FB01235B0914
:10A95C00642202FB03F3CB1ADB0003F13202364B09
:10A96C00A3FB02235B095B0003F4F8731C44D7F8C8
:10A97C00FC300022C7F8B830C7F8BC20D7E92E89C4
:10A98C0042464B469118B9635B41FB63D7E90E23F2
:10A99C0041465118396349464B417B634FF00002E5
:10A9AC004FF00003D7E90CAB5946CB00514643EAB4
:10A9BC0051735146CA0010461946034642469B182D
:10A9CC00C7F8B0304B460A4642EB0303C7F8B43025
:10A9DC00D7F8F4305B680022C7F8A830C7F8AC2071
:10A9EC00D7E92A120B46DB18BB62134642EB030372
:10A9FC00FB62D7E90A23D7E92C01FDF7F1FB0246EC
:10AA0C000B460D4BA3FB02135B09642101FB03F303
:10AA1C00D31ADB003233084AA2FB03235B0903F091
:10AA2C000702D7F8F4301B6822449A6006E100BF95
:10AA3C0000100140001401401F85EB51D7F8FC3089
:10AA4C000022C7F8A030C7F8A420D7E928894246CD
:10AA5C004B46911839625B417B62D7E9082341462A
:10AA6C005418494643EB01054FF000024FF0000328
:10AA7C00EB0043EA5473E20014461D464346E318C8
:10AA8C00C7F898304B4645EB0303C7F89C30D7F812
:10AA9C00F4305B680022C7F89030C7F894204FF070
:10AAAC0000024FF00003D7E9244529468B002146CC
:10AABC0043EA917321468A00D7E92601FDF790FB02
:10AACC0002460B46604BA3FB02235B091C01D7F823
:10AADC00FC300022C7F88830C7F88C20D7E92289CF
:10AAEC0042464B469118B9615B41FB61D7E906239D
:10AAFC0041465118396149464B417B614FF0000288
:10AB0C004FF00003D7E904AB5946CB00514643EA5A
:10AB1C0051735146CA0010461946034642469B18CB
:10AB2C00C7F880304B460A4642EB0303C7F8843023
:10AB3C00D7F8F4305B680022BB67FA674FF000026D
:10AB4C004FF00003D7E91E8949468B00414643EA82
:10AB5C00917341468A00D7E92001FDF741FB02467B
:10AB6C000B461146384BA3FB01235B09642202FB05
:10AB7C0003F3CB1A1B013233334AA2FB03235B09C9
:10AB8C0003F0F0031C44D7F8FC3000223B677A67D3
:10AB9C00D7E91C8942464B469118B9605B41FB6072
:10ABAC00D7E9022341465118396049464B417B6035
:10ABBC004FF000024FF00003D7E900AB5946CB0031
:10ABCC00514643EA51735146CA0010461946034692
:10ABDC0042469B18BB664B460A4642EB0303FB6698
:10ABEC00D7F8F4305B6800223B667A664FF00002BF
:10ABFC004FF00003D7E9188949468B00414643EAD8
:10AC0C00917341468A00D7E91A01FDF7E9FA024629
:10AC1C000B460D4BA3FB02135B09642101FB03F3F1
:10AC2C00D31A1B013233084AA2FB03235B0903F03E
:10AC3C000F02D7F8F4301B6822449A6000BF07F566
:10AC4C008077BD46BDE8B08F1F85EB5102440346AB
:10AC5C00934200D1704703F8011BF9E770B50D4D15
:10AC6C000D4C641BA4100026A64209D10B4D0C4CB4
:10AC7C0000F018F8641BA4100026A64205D170BD84
:10AC8C0055F8043B98470136EEE755F8043B9847D6
:10AC9C000136F2E7E8AC0008E8AC0008E8AC0008C4
:10ACAC00ECAC0008F8B500BFF8BC08BC9E46704779
:0CACBC00F8B500BFF8BC08BC9E4670470D
:10ACC8000000000000000000010203040607080954
:08ACD80000000000010203046A
:08ACE0003CD5FF7F01000000DC
:04ACE800D18100080E
:04ACEC00AD8100082E
:10ACF0007F0000000024F4001000000001000000AC
:0400000508008A4124
:00000001FF
