:020000040800F2
:100000000000032075160008DD110008E311000848
:10001000E9110008EF110008F511000800000000C8
:10002000000000000000000000000000FB110008BC
:10003000091200080000000017120008251200082D
:10004000C516000831120008C5160008C5160008BC
:100050003D12000849120008C5160008C516000820
:10006000C5160008C5160008C5160008C516000804
:10007000C5160008C5160008C5160008C5160008F4
:10008000C5160008C5160008C5160008C5160008E4
:10009000C5160008C5160008C5160008C5160008D4
:1000A000C5160008C5160008C5160008C5160008C4
:1000B000C5160008C5160008C5160008C5160008B4
:1000C000C5160008C5160008C5160008C5160008A4
:1000D000C5160008591200086D12000881120008A8
:1000E000C5160008C5160008C5160008C516000884
:1000F000C5160008C5160008C5160008C516000874
:10010000C5160008C5160008C5160008C516000863
:10011000C5160008C5160008C5160008C516000853
:10012000C5160008C5160008C5160008C516000843
:10013000C5160008C5160008C5160008C516000833
:10014000C5160008C5160008C5160008C516000823
:10015000C5160008C5160008C5160008C516000813
:10016000C5160008C5160008C5160008C516000803
:10017000C5160008C5160008C516000800000000D6
:10018000C516000895120008C5160008C516000817
:10019000C5160008C5160008C5160008C5160008D3
:0C01A000C5160008C5160008C5160008AA
:1001B00010B5054C237833B9044B13B10448AFF3A1
:1001C00000800123237010BD70000020000000009B
:1001D000A854000808B5034B1BB103490348AFF30B
:1001E000008008BD0000000074000020A854000832
:1001F00001F0FF01102A2BDB10F0070F08D010F8D8
:10020000013B013A8B422DD010F0070F42B3F6D1DB
:10021000F0B441EA012141EA014122F007047FF0F4
:1002200000070023F0E80256083C85EA010586EA4B
:10023000010685FA47F5A3FA87F586FA47F6A5FA87
:1002400087F68EB9EED1F0BC01F0FF0102F0070293
:1002500032B110F8013B013A83EA010313B1F8D13E
:100260000020704701387047002D06BF354603381F
:10027000073815F0010F07D1013015F4807F02BF58
:10028000013015F4C03F0130F0BC0138704700BFA9
:1002900053B94AB9002908BF00281CBF4FF0FF31ED
:1002A0004FF0FF3000F070B9ADF1080C6DE904CEED
:1002B00000F006F8DDF804E0DDE9022304B0704741
:1002C0002DE9F047089E0D4604460F46002B4AD103
:1002D0008A42944665D9B2FA82F343B102FA03FC2A
:1002E000C3F120029F4020FA02F217439C404FEADC
:1002F0001C4E1FFA8CF5B7FBFEF1220C0EFB11779A
:1003000042EA074201FB05F090420AD91CEB0202C7
:1003100001F1FF3780F01C81904240F219810239CF
:100320006244121AA4B2B2FBFEF00EFB102244EAA1
:10033000024400FB05F5A5420AD91CEB040400F1B8
:10034000FF3280F00781A54240F204816444023804
:1003500040EA0140641B00211EB1DC400023C6E9D5
:100360000043BDE8F0878B4208D9002E00F0ED80F5
:100370000021C6E900050846BDE8F087B3FA83F11D
:10038000002949D1AB4202D3824200F2F880841A9C
:1003900065EB030201201746002EE2D0C6E90047B4
:1003A000DFE702B9FFDEB2FA82F3002B40F0908063
:1003B0008A1A4FEA1C471FFA8CFE0121B2FBF7F59F
:1003C00007FB1520220C42EA00420EFB05F090428A
:1003D00008D91CEB020205F1FF3802D2904200F26C
:1003E000CB804546121AA4B2B2FBF7F007FB1022ED
:1003F00044EA02440EFB00FEA64508D91CEB0404A7
:1004000000F1FF3202D2A64500F2BB801046A4EBF9
:100410000E0440EA05409FE7C1F120078B4022FA15
:1004200007FC4CEA030C05FA01F420FA07F3FD403F
:100430004FEA1C492343B5FBF9F81FFA8CFE09FB70
:1004400018551C0C44EA054408FB0EF5A54202FAB7
:1004500001F200FA01F00BD91CEB040408F1FF3A99
:1004600080F08880A54240F28580A8F102086444AB
:10047000641B9DB2B4FBF9F309FB134445EA044441
:1004800003FB0EFEA64508D91CEB040403F1FF355F
:100490006CD2A6456AD9023B644443EA0843A3FBF5
:1004A0000295A4EB0E04AC42C846AE4656D353D0D8
:1004B00056B1B0EB080264EB0E0404FA07F7CA4029
:1004C000CC401743C6E9007418460021BDE8F08708
:1004D000C3F1200102FA03FC20FA01F225FA01F12E
:1004E0009D402A434FEA1C471FFA8CFEB1FBF7F0F0
:1004F00007FB1015110C41EA054100FB0EF58D427A
:1005000004FA03F408D91CEB010100F1FF382FD2E3
:100510008D422DD902386144491B92B2B1FBF7F5E7
:1005200007FB151142EA014205FB0EF1914208D981
:100530001CEB020205F1FF3816D2914214D9023D9C
:100540006244521A45EA004138E73146304608E72E
:100550003946E6E61046FBE64845A9D2B9EB020863
:1005600065EB0C0E013BA3E74546EAE72B4694E713
:100570004046D1E7D0467BE7023D624432E7084679
:100580000AE76444023842E7704700BF0FB480B501
:100590009AB000AF00237B6007F1080360220021BE
:1005A000184603F0A9FF07F174033B603B1D3A684E
:1005B000396F184603F096FF391D4FF0FF33642260
:1005C000044802F019FE00BF6837BD46BDE8804010
:1005D00004B070476401002080B582B000AF0023F2
:1005E000FB710123BB710023BB80C82200214D4851
:1005F00003F082FF4FF0FF3301224A494A4802F0DC
:1006000086FE0346BB71BB79002B02D00123FB7130
:1006100083E0444B1B78BB80BA884FF0FF334349DB
:10062000414802F074FE0346BB71BB79002B02D037
:100630000123FB7171E03B4B5B78103B122B68D8B8
:1006400001A252F823F000BF95060008A706000893
:10065000B906000813070008CB060008DD060008ED
:10066000EF06000813070008130700081307000827
:1006700013070008130700081307000813070008F2
:1006800013070008130700081307000813070008E2
:10069000010700082648FFF779FF224800F018F903
:1006A0000023FB7139E02348FFF770FF1D4800F07D
:1006B00041F90023FB7130E01F48FFF767FF19483D
:1006C00000F066F90023FB7127E01C48FFF75EFF8E
:1006D000144800F019FA0023FB711EE01848FFF7D8
:1006E00055FF104800F097FA0023FB7115E01548FC
:1006F000FFF74CFF0B4800F022FB0023FB710CE0DE
:100700001148FFF743FF074800F07AF90023FB7117
:1007100003E00E48FFF73AFF00BFFB7918460837A1
:10072000BD4680BD8C000020F40100208D0000201B
:10073000C0540008E0540008005500081455000893
:100740005055000878550008C455000804560008A4
:1007500080B582B000AF786039603B689AB24FF0E4
:10076000FF337968034802F047FD00BF0837BD46F4
:1007700080BD00BFF401002080B584B000AF034607
:10078000FB710023BB81CD233B73FB797B7307F1A6
:100790000C0302211846FFF7DBFF00BF1037BD46F0
:1007A00080BD80B582B000AFAB23FB71FB1D012182
:1007B0001846FFF7CDFF00BF0837BD4680BD0000DB
:1007C00080B588B000AFF860B9607A600023FB772D
:1007D0000023BB610023FB7500233B610023FB75F5
:1007E0000FE0FB7DFA6813441B783B6107F11003AF
:1007F00001221946104801F006F9B861FB7D01336A
:10080000FB75FB7DBA689A42EBD80B4B1B689A6864
:10081000094B1B6842F001029A60BA697B689A42F0
:1008200002D10123FB7701E00023FB77FB7F184611
:100830002037BD4680BD00BF5401002080B48BB07E
:1008400000AFF860B9607A60002387F82730002392
:100850007B614FF0FF333B620023FB611FE0FA68CE
:10086000FB6913441B781A463B6A53403B620023E2
:10087000BB610EE03B6A002B05DA3B6A5A00134B62
:1008800053403B6202E03B6A5B003B62BB69013361
:10089000BB61BB691F2BEDD9FB690133FB61FA69B1
:1008A000BB689A42DBD33A6A7B689A4203D1012340
:1008B00087F8273002E0002387F8273097F82730A1
:1008C00018462C37BD465DF8047B7047C11CC7082D
:1008D00080B586B000AF7860154BFB600023FB82CB
:1008E00000233B617B681B789BB20133FB82FB8A50
:1008F000043B7A6813441B683B61FB8A043B3A69FA
:1009000019467868FFF79AFF0346012B09D10420A6
:10091000FFF732FF07F10C0304211846FFF718FF19
:1009200001E0FFF73EFF00BF1837BD4680BD00BFA6
:100930006401000180B584B000AF78600023FB81C2
:100940000023BB607B681B789BB20133FB81FB8972
:10095000043B7A6813441B68BB60FB89043BBA689C
:1009600019467868FFF76AFF0346012B07D10C2070
:10097000FFF702FF0C210548FFF7EAFE01E0FFF751
:1009800010FF00BF1037BD4680BD00BF0000002033
:1009900080B586B000AF78600023FB8200233B6106
:1009A0000023FB817B681B789BB20133FB82FB8AAF
:1009B000043B7A6813441B683B61FB8A043B3A6939
:1009C00019467868FFF73AFF0346012B10D10B4B0D
:1009D0001B689BB2C3F30B039BB2FB810220FFF7A2
:1009E000CBFE07F10E0302211846FFF7B1FE01E02E
:1009F000FFF7D7FE00BF1837BD4680BD002004E0DA
:100A000080B588B000AF78600023FB830023BB6112
:100A10007B681B789BB20133FB83FB8B043B7A68BA
:100A200013441B68BB61FB8B043BBA6919467868A9
:100A3000FFF704FF0346012B1BD10120FFF79CFEAB
:100A400001210120FFF784FE00F01EF80C4B1B680B
:100A50007B610C4B1B683B613B69FB607B69BB6046
:100A6000BB6883F3088800BF02F07EFAFB689847F2
:100A700001E0FFF796FE00BF2037BD4680BD00BFF6
:100A8000008000080480000880B584B000AF084BE7
:100A90001B68FB60FB6883F30888064B1B68BB6020
:100AA000BB687B607B68984700BF1037BD4680BD40
:100AB000008000080480000880B485B000AF786032
:100AC0000023FB737B68B3F1005F06D37B680D4A9C
:100AD000934202D80123FB730CE07B68B3F1006FF3
:100AE00006D37B68B3F1026F02D80123FB7301E0E8
:100AF0000023FB73FB7B18461437BD465DF8047B6F
:100B0000704700BF0000042080B588B000AF786057
:100B10000023FB830023BB6100237B610023FB7365
:100B20007B681B789BB20133FB83FB8B043B7A68A9
:100B300013441B68BB61FB8B043BBA691946786898
:100B4000FFF73EFE0346012B21D10120FFF714FEE3
:100B50007B68D3F802307B617869FFF7ADFF03460D
:100B6000FB73FB7B012B0BD107F10F03012118460F
:100B7000FFF7EEFD7B6901333B613B69984708E075
:100B800007F10F0301211846FFF7E2FD01E0FFF72F
:100B900008FE00BF2037BD4680BD80B58AB000AFDB
:100BA00003460A46FB711346BB710023BB60012359
:100BB00087F82730BB79172B01D9122327E0BB799F
:100BC000172B23D8BB79C3F118033B62BB793A6A70
:100BD0009A4201D23B6ABB710023FB60FB797B61C7
:100BE000BB79BB6101F0D6F80223FB6107F1080273
:100BF00007F10C031146184601F03EFA034687F848
:100C0000273001F0E9F897F8273000E01223184662
:100C10002837BD4680BD80B586B000AF7860002320
:100C2000FB8200233B610023FB737B681B789BB234
:100C30000133FB82FB8A043B7A6813441B683B61E7
:100C4000FB8A043B3A6919467868FFF7F7FD0346CB
:100C5000012B15D10120FFF78FFD7B6802331A7835
:100C60007B6803331B7819461046FFF796FF03464F
:100C7000FB7307F10F0301211846FFF769FD01E03F
:100C8000FFF78FFD00BF1837BD4680BDB0B588B0F7
:100C900000AFF860B9601346FB800123FB770023A7
:100CA000BB7700237B8300237B6101F073F803464D
:100CB000FB77FB7F002B02D00023BB7725E00023CE
:100CC000BB831EE0BB8BFA6813443B61BA8BBB68E5
:100CD000D1183B691B889BB200221C461546224650
:100CE0002B46012000F04CFF0346FB77FB7F002BD7
:100CF00002D00023BB7708E00123BB77BB8B023314
:100D0000BB83BA8BFB889A42DCD3BB7F012B0FD10C
:100D1000FB7F002B0CD101F05FF80346FB77FB7FD4
:100D2000002B02D00023BB7704E00123BB7701E056
:100D30000023BB77BB7F18462037BD46B0BD80B5CA
:100D400086B000AF78600023FB8200233B61002364
:100D5000FB600023BB720023FB7200237B727B6865
:100D60001B789BB20133FB82FB8A043B7A681344F5
:100D70001B683B61FB8A043B3A6919467868FFF7B8
:100D80005DFD0346012B39D10120FFF7F5FC7B689F
:100D90009B79FB727B68D3F80230FB60F868FFF741
:100DA0008BFE0346BB72BB7A012B1ED17B680733D7
:100DB000FA7A92B2F9681846FFF768FF03467B7229
:100DC0007B7A012B0AD107F1090301211846FFF7AD
:100DD000BFFC0121CD20FFF7BBFC11E007F10903A7
:100DE00001211846FFF7B4FC0AE00023BB7207F1AB
:100DF0000A0301211846FFF7ABFC01E0FFF7D1FC25
:100E000000BF1837BD4680BD80B500AF064B074A0E
:100E10001A60054800F0DBFD0346002B01D000F00E
:100E200091F900BF80BD00BF540100200030024096
:100E300080B485B000AF78607B681B680B4A934232
:100E40000DD10023FB600A4B1B6B094A43F480530E
:100E50001363074B1B6B03F48053FB60FB6800BFFD
:100E60001437BD465DF8047B704700BF0030024078
:100E70000038024080B58CB000AF07F11C0300229F
:100E80001A605A609A60DA601A610023BB613F4BB6
:100E90001B6B3E4A43F0040313633C4B1B6B03F094
:100EA0000403BB61BB6900237B61384B1B6B374A72
:100EB00043F080031363354B1B6B03F080037B61AE
:100EC0007B6900233B61314B1B6B304A43F00103CC
:100ED00013632E4B1B6B03F001033B613B69002343
:100EE000FB602A4B1B6B294A43F002031363274B19
:100EF0001B6B03F00203FB60FB680023BB60234B0A
:100F00001B6B224A43F008031363204B1B6B03F057
:100F10000803BB60BB6800237B601C4B1B6B1B4A38
:100F200043F040031363194B1B6B03F040037B60DA
:100F30007B6800222021164801F08AFB00224FF432
:100F4000C041144801F084FB2023FB6101233B6274
:100F500000237B620023BB6207F11C0319460C4887
:100F600001F0CAF94FF4C043FB6101233B62002347
:100F70007B620023BB6207F11C031946054801F0A0
:100F8000BBF900BF3037BD4680BD00BF003802400E
:100F9000000002400018024080B483B000AF7860C7
:100FA0004FF06043D3F8803E03F00103002B13D0D1
:100FB0004FF06043D3F8003E03F00103002B0BD049
:100FC00000E000BF4FF060431B68002BF9D04FF0EA
:100FD00060437A68D2B21A707B6818460C37BD46F7
:100FE0005DF8047B704780B586B000AFF860B960EB
:100FF0007A6000237B6100237B6109E0BB685A1C97
:10100000BA601B781846FFF7C7FF7B6901337B6125
:101010007A697B689A42F1DB7B6818461837BD46CF
:1010200080BD000080B500AF124803F0EFF900F07A
:101030004BFB00F027F8FFF71DFF00F0F9F900F077
:10104000CDF9FFF7E1FE00F01DFA01224FF48041D7
:10105000094801F0FDFA4FF0FF3301220749084823
:1010600002F055F9054B1B78DBB27F2BF3D1FFF76C
:10107000B3FAF0E734560008001802405C01002083
:10108000F401002080B594B000AF07F120033022B6
:101090000021184603F030FA07F10C0300221A6011
:1010A0005A609A60DA601A610023BB60234B1B6CA4
:1010B000224A43F080531364204B1B6C03F080538F
:1010C000BB60BB6800237B601D4B1B6823F440435F
:1010D0001B4A43F480431360194B1B6803F44043DD
:1010E0007B607B6802233B620123FB6210233B632E
:1010F0000023BB6307F12003184601F0DDFA034625
:10110000002B01D000F01EF80F23FB6000233B6191
:1011100000237B610023BB610023FB6107F10C030B
:101120000021184601F040FD0346002B01D000F0DD
:1011300009F800BF5037BD4680BD00BF00380240EF
:101140000070004080B400AF72B600BFFEE7000040
:1011500080B582B000AF00237B601F4B5B6C1E4AE2
:1011600043F4804353641C4B5B6C03F480437B600B
:101170007B6800233B60184B1B6C174A43F080537D
:101180001364154B1B6C03F080533B603B680022DB
:101190000021012000F0E5FB012000F0FEFB002211
:1011A0000021042000F0DDFB042000F0F6FB00220B
:1011B0000021052000F0D5FB052000F0EEFB002209
:1011C0000021512000F0CDFB512000F0E6FB00BFD4
:1011D0000837BD4680BD00BF0038024080B400AF74
:1011E000FEE780B400AFFEE780B400AFFEE780B456
:1011F00000AFFEE780B400AFFEE780B400AF00BFF1
:10120000BD465DF8047B704780B400AF00BFBD46AB
:101210005DF8047B704780B400AF00BFBD465DF849
:10122000047B704780B500AF00F0A0FA00BF80BD1E
:1012300080B500AF01F026FA00BF80BD80B500AFD9
:1012400000F0F2FC00BF80BD80B400AF00BFBD461F
:101250005DF8047B7047000080B500AF024802F0E3
:10126000EDF800BF80BD00BF6401002080B500AF75
:10127000024802F0E3F800BF80BD00BFAC010020CF
:1012800080B500AF024802F0D9F800BF80BD00BFB2
:10129000F401002080B400AF00BFBD465DF8047BC0
:1012A000704780B586B000AFF860B9607A600023FF
:1012B0007B610AE0AFF300800146BB685A1CBA604C
:1012C000CAB21A707B6901337B617A697B689A4282
:1012D000F0DB7B6818461837BD4680BD80B483B00C
:1012E00000AF78604FF0FF3318460C37BD465DF80D
:1012F000047B704780B483B000AF786039603B688E
:101300004FF400525A60002318460C37BD465DF872
:10131000047B704780B483B000AF78600123184627
:101320000C37BD465DF8047B704780B485B000AFD4
:10133000F860B9607A60002318461437BD465DF83E
:10134000047B704780B586B000AF7860144A154BB7
:10135000D31A7B617B693B61134B1B68002B02D165
:10136000114B124A1A60104B1A687B6813443A6991
:101370009A4207D203F00EF903460C221A604FF08E
:10138000FF3309E0084B1B68FB60074B1A687B685A
:101390001344054A1360FB6818461837BD4680BDE4
:1013A000000003200004000060010020B0030020C2
:1013B00080B400AF084BD3F88830074A43F4700379
:1013C000C2F88830044B4FF000629A6000BFBD46FF
:1013D0005DF8047B704700BF00ED00E080B500AF12
:1013E000114B124A1A60104B4FF4E1325A600E4B07
:1013F00000229A600C4B0022DA600B4B00221A612B
:10140000094B0C225A61084B00229A61064B0022BC
:10141000DA61054801F0A0FE0346002B01D0FFF77A
:1014200091FE00BF80BD00BF64010020001001409C
:1014300080B500AF114B124A1A60104B4FF4E132E5
:101440005A600E4B00229A600C4B0022DA600B4B64
:1014500000221A61094B0C225A61084B00229A6142
:10146000064B0022DA61054801F076FE0346002BA8
:1014700001D0FFF767FE00BF80BD00BFAC010020B8
:101480000044004080B500AF114B124A1A60104B67
:101490004FF416525A600E4B00229A600C4B0022F9
:1014A000DA600B4B00221A61094B0C225A61084B7F
:1014B00000229A61064B0022DA61054801F04CFED9
:1014C0000346002B01D0FFF73DFE00BF80BD00BFEB
:1014D000F40100200048004080B58EB000AF786075
:1014E00007F1240300221A605A609A60DA601A61D8
:1014F0007B681B68584A934235D100233B62574BA7
:101500005B6C564A43F010035364544B5B6C03F01E
:1015100010033B623B6A0023FB61504B1B6B4F4A3D
:1015200043F0010313634D4B1B6B03F00103FB619D
:10153000FB694FF4C0637B620223BB620023FB6242
:1015400003233B6307237B6307F1240319464448C5
:1015500000F0D2FE00220021252000F002FA252012
:1015600000F01BFA73E07B681B683E4A934234D15B
:101570000023BB61394B1B6C384A43F400331364BE
:10158000364B1B6C03F40033BB61BB6900237B61EA
:10159000324B1B6B314A43F0080313632F4B1B6B19
:1015A00003F008037B617B6960237B620223BB62DB
:1015B0000023FB6203233B6307237B6307F12403C0
:1015C0001946294800F098FE00220021262000F04C
:1015D000C8F9262000F0E1F939E07B681B68234A4E
:1015E000934234D100233B611C4B1B6C1B4A43F4D8
:1015F00080231364194B1B6C03F480233B613B690C
:101600000023FB60154B1B6B144A43F0020313636A
:10161000124B1B6B03F00203FB60FB684FF440634B
:101620007B620223BB620023FB6203233B6307232D
:101630007B6307F1240319460D4800F05DFE00228C
:101640000021272000F08DF9272000F0A6F900BF27
:101650003837BD4680BD00BF001001400038024051
:101660000000024000440040000C024000480040DE
:1016700000040240DFF834D0FFF79AFE0C480D4911
:101680000D4A002302E0D458C4500433C4188C42DD
:10169000F9D30A4A0A4C002301E013600432A24243
:1016A000FBD302F07DFFFFF7BDFC70470000032075
:1016B00000000020700000209C56000870000020F0
:1016C000AC030020FEE7000080B500AF0E4B1B68A6
:1016D0000D4A43F4007313600B4B1B680A4A43F432
:1016E00080631360084B1B68074A43F480731360E0
:1016F000032000F02BF90F2000F008F8FFF728FD79
:101700000023184680BD00BF003C024080B582B077
:1017100000AF7860124B1A68124B1B7819464FF4D1
:101720007A73B3FBF1F3B2FBF3F3184600F043F91D
:101730000346002B01D001230EE07B680F2B0AD853
:10174000002279684FF0FF3000F00BF9064A7B6801
:101750001360002300E0012318460837BD4680BD12
:1017600008000020100000200C00002080B400AF12
:10177000064B1B781A46064B1B681344044A136039
:1017800000BFBD465DF8047B704700BF100000201D
:101790003C02002080B400AF034B1B681846BD46D6
:1017A0005DF8047B704700BF3C02002080B485B028
:1017B00000AF78607B6803F00703FB600C4BDB68CD
:1017C000BB60BA684FF6FF031340BB60FB681A02A8
:1017D000BB68134343F0BF6343F40033BB60044A68
:1017E000BB68D36000BF1437BD465DF8047B70470B
:1017F00000ED00E080B400AF044BDB681B0A03F08F
:1018000007031846BD465DF8047B704700ED00E015
:1018100080B483B000AF0346FB7197F90730002B0B
:101820000BDBFB7903F01F02074997F907305B09CF
:10183000012000FA02F241F8232000BF0C37BD4618
:101840005DF8047B704700BF00E100E080B483B026
:1018500000AF03463960FB7197F90730002B0ADBB4
:101860003B68DAB20C4997F907301201D2B20B4447
:1018700083F800230AE03B68DAB20849FB7903F0F9
:101880000F03043B1201D2B20B441A7600BF0C378F
:10189000BD465DF8047B704700E100E000ED00E02C
:1018A00080B489B000AFF860B9607A60FB6803F07B
:1018B0000703FB61FB69C3F10703042B28BF042363
:1018C000BB61FB690433062B02D9FB69033B00E0D3
:1018D00000237B614FF0FF32BB6902FA03F3DA4366
:1018E000BB681A407B699A404FF0FF317B6901FA6F
:1018F00003F3D9437B680B40134318462437BD4696
:101900005DF8047B7047000080B582B000AF78605E
:101910007B68013BB3F1807F01D301230FE00A4ACA
:101920007B68013B53600F214FF0FF30FFF78EFFC4
:10193000054B00229A60044B07221A6000231846C8
:101940000837BD4680BD00BF10E000E080B582B022
:1019500000AF78607868FFF729FF00BF0837BD4601
:1019600080BD80B586B000AF0346B9607A60FB7376
:1019700000237B61FFF73EFF78617A68B968786978
:10198000FFF78EFF024697F90F3011461846FFF712
:101990005DFF00BF1837BD4680BD80B582B000AF87
:1019A0000346FB7197F907301846FFF731FF00BF78
:1019B0000837BD4680BD80B582B000AF78607868DA
:1019C000FFF7A2FF034618460837BD4680BD80B525
:1019D00082B000AF78607B68002B01D101230EE05C
:1019E0007B685B79DBB2002B05D17B6800221A7122
:1019F0007868FFF71DFA7B6801225A7100231846A8
:101A00000837BD4680BD80B487B000AFF860B960CC
:101A10007A6000233B61FB6802225A7100237B61DC
:101A20000AE07B699B00BA681A44FB681B6812686D
:101A30001A607B6901337B617A697B689A42F0D3D3
:101A4000FB681B681B683B61FB6801225A713B699C
:101A500018461C37BD465DF8047B704780B584B0DE
:101A600000AF78607B689B6DFB60FFF793FEB8600A
:101A70007B6893F83530DBB2022B08D07B6880227C
:101A80005A657B68002283F83420012352E07B688A
:101A90001B681A687B681B6822F016021A607B6854
:101AA0001B685A697B681B6822F080025A617B6858
:101AB0001B6C002B03D17B689B6C002B07D07B68D1
:101AC0001B681A687B681B6822F008021A607B6832
:101AD0001B681A687B681B6822F001021A6013E019
:101AE000FFF758FE0246BB68D31A052B0CD97B685A
:101AF00020225A657B68032283F835207B68002208
:101B000083F83420032315E07B681B681B6803F00F
:101B10000103002BE4D17B68DB6D3F229A40FB6818
:101B20009A607B68012283F835207B68002283F865
:101B30003420002318461037BD4680BD80B483B0E2
:101B400000AF78607B6893F83530DBB2022B04D0AD
:101B50007B6880225A6501230CE07B68052283F8AC
:101B600035207B681B681A687B681B6822F00102BD
:101B70001A60002318460C37BD465DF8047B704799
:101B800080B586B000AFF860B960C7E900230123D3
:101B9000FB75234B1B7E012B01D102233BE0204B25
:101BA00001221A764CF2503000F026F90346FB75FC
:101BB000FB7D002B2BD1FB68002B05D13B78194610
:101BC000B86800F0D1F916E0FB68012B05D13B881D
:101BD0001946B86800F0A4F90DE0FB68022B05D1A6
:101BE0003B681946B86800F079F904E0D7E90023AA
:101BF000B86800F041F94CF2503000F0FDF80346AF
:101C0000FB75084B1B69074A23F001031361044B62
:101C100000221A76FB7D18461837BD4680BD00BFEE
:101C200040020020003C024080B582B000AF00239B
:101C30007B604C4BDB6803F4F973002B20D04A4BDC
:101C40001B78DBB2012B07D1474BDB687B60464B2F
:101C50004FF0FF32DA600BE0434B1B78DBB2022B14
:101C600003D1414B1B697B6002E03F4B5B697B60AA
:101C700000F09CF9786800F083F83B4B00221A7062
:101C8000384BDB6803F00103002B4AD0354B0122AF
:101C9000DA60354B1B78DBB2012B2DD1324B5B6800
:101CA000013B314A5360304B5B68002B15D02E4B03
:101CB000DB687B60786800F059F82B4BDB680133F8
:101CC000294AD360284BDB687B60274B1B7ADBB249
:101CD0001946786800F07CFA23E04FF0FF337B6010
:101CE000214A7B68D360204B00221A7000F0BEFAB4
:101CF000786800F03BF814E01B4B1B78DBB2022B3A
:101D000007D100F0B3FA184B1B69184600F02EF803
:101D100004E0154B5B69184600F028F8124B0022CE
:101D20001A70114B1B78DBB2002B16D10D4B1B69BF
:101D30000C4A23F4004323F0FF031361094B1B6992
:101D4000084A23F080731361064B1B69054A23F090
:101D500000731361044B00221A7600BF0837BD469A
:101D600080BD00BF003C02404002002080B483B030
:101D700000AF786000BF0C37BD465DF8047B70474C
:101D800080B483B000AF786000BF0C37BD465DF80B
:101D9000047B704780B483B000AF0023FB710B4B12
:101DA0001B69002B0BDA094B094A5A60074B094A99
:101DB0005A60064B1B69002B01DA0123FB71FB798A
:101DC00018460C37BD465DF8047B7047003C024066
:101DD00023016745AB89EFCD80B400AF054B1B698C
:101DE000044A43F00043136100231846BD465DF8E2
:101DF000047B7047003C024080B584B000AF78603F
:101E00000023FB601A4B0022DA61FFF7C3FCF86085
:101E100010E07B68B3F1FF3F0CD07B68002B07D04C
:101E2000FFF7B8FC0246FB68D31A7A689A4201D2DF
:101E3000032319E00F4BDB6803F48033002BE8D158
:101E40000C4BDB6803F00103002B02D0094B01228D
:101E5000DA60084BDB6803F4F973002B03D000F061
:101E6000A5F8012300E0002318461037BD4680BDC9
:101E700040020020003C024080B485B000AFF86012
:101E8000C7E90023144B1B69134A23F44073136101
:101E9000114B1B69104A43F4407313610E4B1B69CD
:101EA0000D4A43F001031361FB683A681A60BFF3FF
:101EB0006F8F00BFD7E900014FF000024FF0000321
:101EC0000A000023F968043113460B6000BF143781
:101ED000BD465DF8047B7047003C024080B483B08F
:101EE00000AF786039600D4B1B690C4A23F44073D6
:101EF00013610A4B1B69094A43F400731361074BD2
:101F00001B69064A43F0010313617B683A681A6053
:101F100000BF0C37BD465DF8047B7047003C0240B3
:101F200080B483B000AF78600B467B800D4B1B699B
:101F30000C4A23F4407313610A4B1B69094A43F4AA
:101F400080731361074B1B69064A43F00103136159
:101F50007B687A881A8000BF0C37BD465DF8047B29
:101F6000704700BF003C024080B483B000AF78608F
:101F70000B46FB700C4B1B690B4A23F44073136137
:101F8000094B094A1B691361074B1B69064A43F059
:101F9000010313617B68FA781A7000BF0C37BD46E5
:101FA0005DF8047B704700BF003C024080B400AF86
:101FB0002F4BDB6803F01003002B08D02D4BDB699F
:101FC00043F010032B4AD361294B1022DA60284BCF
:101FD000DB6803F02003002B08D0264BDB6943F0BD
:101FE0000803244AD361224B2022DA60204BDB68AD
:101FF00003F04003002B08D01E4BDB6943F00403C1
:102000001C4AD3611A4B4022DA60194BDB6803F09B
:102010008003002B08D0174BDB6943F00203154AFD
:10202000D361134B8022DA60114BDB6803F48073B9
:10203000002B09D00F4BDB6943F001030D4AD3613C
:102040000B4B4FF48072DA60094BDB6803F002033C
:10205000002B08D0074BDB6943F02003054AD3610E
:10206000034B0222DA6000BFBD465DF8047B704777
:10207000003C02404002002080B584B000AF786090
:1020800039600123FB730023BB60324B1B7E012BA5
:1020900001D102235AE02F4B01221A764CF2503024
:1020A000FFF7AAFE0346FB73FB7B002B4AD13B687C
:1020B0004FF0FF321A607B681B68012B17D17B68D9
:1020C0001B69DAB27B685B681946104600F046F877
:1020D0004CF25030FFF790FE0346FB731E4B1B691A
:1020E0001D4A23F4004323F00403136128E07B68B6
:1020F0009B68BB601CE07B681B69DBB21946B86853
:1021000000F066F84CF25030FFF776FE0346FB73A2
:10211000114B1B69104A23F0FA031361FB7B002B60
:1021200003D03B68BA681A600AE0BB680133BB6041
:102130007B68DA687B689B681344BA689A42DAD392
:1021400000F094F8034B00221A76FB7B18461037F8
:10215000BD4680BD40020020003C024080B483B0F8
:1021600000AF03463960FB71184B1B69174A23F413
:10217000407313613B68032B08D1144B1B69134A4E
:1021800043F4004343F0040313610FE03B68012B69
:1021900006D10E4B1B690D4A43F00403136105E0A1
:1021A0000A4B1B69094A43F400431361074B1A6940
:1021B000FB791B021343054A43F48033136100BFCC
:1021C0000C37BD465DF8047B704700BF003C024001
:1021D00080B485B000AF78600B46FB700023FB60D5
:1021E000FB78002B02D10023FB6010E0FB78012B71
:1021F00003D14FF48073FB6009E0FB78022B03D11D
:102200004FF40073FB6002E04FF44073FB607B68A7
:102210000B2B02D97B6804337B60134B1B69124A7A
:1022200023F440731361104B1A690F49FB68134381
:102230000B610D4B1B690C4A23F0F80313610A4B29
:102240001A697B68DB001343074A43F002031361FA
:10225000054B1B69044A43F48033136100BF1437F4
:10226000BD465DF8047B7047003C024080B400AF7F
:10227000204B1B6803F40073002B17D01D4B1B6809
:102280001C4A23F4007313601A4B1B68194A43F469
:1022900000631360174B1B68164A23F40063136036
:1022A000144B1B68134A43F400731360114B1B68F3
:1022B00003F48063002B17D00E4B1B680D4A23F4E8
:1022C000806313600B4B1B680A4A43F4805313600E
:1022D000084B1B68074A23F480531360054B1B68A7
:1022E000044A43F48063136000BFBD465DF8047B7D
:1022F000704700BF003C024080B489B000AF7860F6
:10230000396000237B6100233B610023BB61002314
:10231000FB6177E10122FB6902FA03F37B613B6811
:102320001B687A6913403B613A697B699A4240F0C5
:1023300066813B685B6803F00303012B05D03B68B3
:102340005B6803F00303022B30D17B689B68BB61A1
:10235000FB695B00032202FA03F3DB43BA69134013
:10236000BB613B68DA68FB695B0002FA03F3BA6998
:102370001343BB617B68BA699A607B685B68BB6129
:102380000122FB6902FA03F3DB43BA691340BB6124
:102390003B685B681B0903F00102FB6902FA03F367
:1023A000BA691343BB617B68BA695A603B685B6872
:1023B00003F00303032B17D07B68DB68BB61FB6969
:1023C0005B00032202FA03F3DB43BA691340BB61EB
:1023D0003B689A68FB695B0002FA03F3BA6913432E
:1023E000BB617B68BA69DA603B685B6803F0030332
:1023F000022B23D1FB69DA087B68083253F82230BC
:10240000BB61FB6903F007039B000F2202FA03F391
:10241000DB43BA691340BB613B681A69FB6903F08F
:1024200007039B0002FA03F3BA691343BB61FB691C
:10243000DA087B680832B96943F822107B681B68A8
:10244000BB61FB695B00032202FA03F3DB43BA6959
:102450001340BB613B685B6803F00302FB695B00F0
:1024600002FA03F3BA691343BB617B68BA691A6065
:102470003B685B6803F44033002B00F0C08000230E
:10248000FB60664B5B6C654A43F480435364634B6B
:102490005B6C03F48043FB60FB68614AFB699B084B
:1024A000023352F82330BB61FB6903F003039B0046
:1024B0000F2202FA03F3DB43BA691340BB617B6866
:1024C000584A934237D07B68574A934231D07B6851
:1024D000564A93422BD07B68554A934225D07B685D
:1024E000544A93421FD07B68534A934219D07B6869
:1024F000524A934213D07B68514A93420DD07B6875
:10250000504A934207D07B684F4A934201D1092336
:1025100012E00A2310E008230EE007230CE0062354
:102520000AE0052308E0042306E0032304E0022375
:1025300002E0012300E00023FA6902F003029200A6
:102540009340BA691343BB613549FB699B08023369
:10255000BA6941F823203D4B9B68BB613B69DB4373
:10256000BA691340BB613B685B6803F48013002BBE
:1025700003D0BA693B691343BB61344ABB699360BA
:10258000324BDB68BB613B69DB43BA691340BB611B
:102590003B685B6803F40013002B03D0BA693B6906
:1025A0001343BB61294ABB69D360284B5B68BB619D
:1025B0003B69DB43BA691340BB613B685B6803F46A
:1025C0000033002B03D0BA693B691343BB611F4A38
:1025D000BB6953601D4B1B68BB613B69DB43BA6938
:1025E0001340BB613B685B6803F48033002B03D06E
:1025F000BA693B691343BB61144ABB691360FB6949
:102600000133FB61FB690F2B7FF684AE00BF00BF77
:102610002437BD465DF8047B704700BF0038024098
:10262000003801400000024000040240000802405F
:10263000000C02400010024000140240001802404A
:10264000001C02400020024000240240003C0140E7
:1026500080B483B000AF78600B467B8013467B70FC
:102660007B78002B03D07A887B689A6103E07B88B3
:102670001A047B689A6100BF0C37BD465DF8047B85
:102680007047000080B500AF064B5B6903F48033F0
:10269000002B05D000F008F8024B4FF480325A614D
:1026A00000BF80BD003C014080B400AF00BFBD460C
:1026B0005DF8047B7047000080B586B000AF78609D
:1026C0007B68002B01D1012367E27B681B6803F064
:1026D0000103002B75D0884B9B6803F00C03042B7F
:1026E0000CD0854B9B6803F00C03082B12D1824B56
:1026F0005B6803F48003B3F5800F0BD17E4B1B683E
:1027000003F40033002B5BD07B685B68002B57D150
:10271000012342E27B685B68B3F5803F06D1764BCC
:102720001B68754A43F4803313601DE07B685B6867
:10273000B3F5A02F0CD1704B1B686F4A43F4802374
:1027400013606D4B1B686C4A43F4803313600BE0DD
:10275000694B1B68684A23F480331360664B1B681F
:10276000654A23F4802313607B685B68002B13D0D9
:10277000FFF710F8386108E0FFF70CF802463B69F4
:10278000D31A642B01D9032307E25B4B1B6803F4C4
:102790000033002BF0D014E0FEF7FCFF386108E0B6
:1027A000FEF7F8FF02463B69D31A642B01D90323D5
:1027B000F3E1514B1B6803F40033002BF0D100E030
:1027C00000BF7B681B6803F00203002B63D04A4BF9
:1027D0009B6803F00C03002B0BD0474B9B6803F066
:1027E0000C03082B1CD1444B5B6803F48003002BC3
:1027F00016D1414B1B6803F00203002B05D07B6808
:10280000DB68012B01D00123C7E13B4B1B6823F0A0
:10281000F8027B681B69DB00374913430B603AE021
:102820007B68DB68002B20D0344B01221A60FEF756
:10283000B1FF386108E0FEF7ADFF02463B69D31AED
:10284000022B01D90323A8E12B4B1B6803F00203E1
:10285000002BF0D0284B1B6823F0F8027B681B6923
:10286000DB00254913430B6015E0244B00221A605E
:10287000FEF790FF386108E0FEF78CFF02463B69E7
:10288000D31A022B01D9032387E11B4B1B6803F0EA
:102890000203002BF0D17B681B6803F00803002BB8
:1028A00036D07B685B69002B16D0154B01221A606D
:1028B000FEF770FF386108E0FEF76CFF02463B69E7
:1028C000D31A022B01D9032367E10B4B5B6F03F093
:1028D0000203002BF0D01BE0094B00221A60FEF728
:1028E00059FF38610EE0FEF755FF02463B69D31AE7
:1028F000022B07D9032350E1003802400000474271
:10290000800E4742884B5B6F03F00203002BEAD135
:102910007B681B6803F00403002B00F09780002302
:10292000FB75814B1B6C03F08053002B0FD10023F0
:10293000BB607D4B1B6C7C4A43F0805313647A4B25
:102940001B6C03F08053BB60BB680123FB75774BA6
:102950001B6803F48073002B18D1744B1B68734AF7
:1029600043F480731360FEF715FF386108E0FEF74B
:1029700011FF02463B69D31A022B01D903230CE154
:102980006A4B1B6803F48073002BF0D07B689B6854
:10299000012B06D1644B1B6F634A43F0010313679D
:1029A0001CE07B689B68052B0CD15F4B1B6F5E4A5C
:1029B00043F0040313675C4B1B6F5B4A43F0010356
:1029C00013670BE0584B1B6F574A23F00103136743
:1029D000554B1B6F544A23F0040313677B689B68B5
:1029E000002B15D0FEF7D6FE38610AE0FEF7D2FEC6
:1029F00002463B69D31A41F28832934201D903233C
:102A0000CBE0494B1B6F03F00203002BEED014E028
:102A1000FEF7C0FE38610AE0FEF7BCFE02463B69E5
:102A2000D31A41F28832934201D90323B5E03E4BD9
:102A30001B6F03F00203002BEED1FB7D012B05D1B0
:102A4000394B1B6C384A23F0805313647B689B69B5
:102A5000002B00F0A180344B9B6803F00C03082B83
:102A60005CD07B689B69022B41D1314B00221A60FC
:102A7000FEF790FE386108E0FEF78CFE02463B69E7
:102A8000D31A022B01D9032387E0274B1B6803F0DD
:102A90000073002BF0D17B68DA697B681B6A1A43EC
:102AA0007B685B6A9B011A437B689B6A5B08013BFE
:102AB0001B041A437B68DB6A1B061B4913434B60EC
:102AC0001B4B01221A60FEF765FE386108E0FEF735
:102AD00061FE02463B69D31A022B01D903235CE055
:102AE000114B1B6803F00073002BF0D054E0104B27
:102AF00000221A60FEF74EFE386108E0FEF74AFE3B
:102B000002463B69D31A022B01D9032345E0064B49
:102B10001B6803F00073002BF0D13DE07B689B69DC
:102B2000012B07D1012338E000380240007000403B
:102B3000600047421B4B5B68FB607B689B69012B15
:102B400028D0FB6803F480027B68DB699A4221D1BC
:102B5000FB6803F03F027B681B6A9A421AD1FA684D
:102B600047F6C07313407A68526A9201934211D1BA
:102B7000FB6803F440327B689B6A5B08013B1B04E3
:102B80009A4207D1FB6803F070627B68DB6A1B0620
:102B90009A4201D0012300E0002318461837BD46B1
:102BA00080BD00BF0038024080B584B000AF7860BF
:102BB00039607B68002B01D10123CCE0684B1B6896
:102BC00003F00F033A689A420CD9654B3A68D2B2C7
:102BD0001A70634B1B6803F00F033A689A4201D0E6
:102BE0000123B8E07B681B6803F00203002B20D0B0
:102BF0007B681B6803F00403002B05D0594B9B68CE
:102C0000584A43F4E05393607B681B6803F0080361
:102C1000002B05D0534B9B68524A43F460439360AA
:102C2000504B9B6823F0F0027B689B684D4913432F
:102C30008B607B681B6803F00103002B44D07B682A
:102C40005B68012B07D1474B1B6803F40033002B53
:102C500019D101237FE07B685B68022B03D07B687E
:102C60005B68032B07D13F4B1B6803F00073002BFD
:102C700009D101236FE03B4B1B6803F00203002BDB
:102C800001D1012367E0374B9B6823F003027B6887
:102C90005B68344913438B60FEF77CFDF8600AE003
:102CA000FEF778FD0246FB68D31A41F28832934260
:102CB00001D903234FE02B4B9B6803F00C027B6888
:102CC0005B689B009A42EBD1254B1B6803F00F0316
:102CD0003A689A420CD2224B3A68D2B21A70204B10
:102CE0001B6803F00F033A689A4201D0012332E0D7
:102CF0007B681B6803F00403002B08D0194B9B680A
:102D000023F4E0527B68DB68164913438B607B68D1
:102D10001B6803F00803002B09D0124B9B6823F4B7
:102D200060427B681B69DB000E4913438B6000F037
:102D300021F802460B4B9B681B0903F00F030A495D
:102D4000CB5C22FA03F3094A1360094B1B6818464F
:102D5000FEF7DCFC002318461037BD4680BD00BFDF
:102D6000003C0240003802404056000808000020A5
:102D70000C0000202DE9B04F90B000AF00237B6322
:102D80000023FB6300233B630023BB63594B9B6819
:102D900003F00C03082B0DD0082B00F2A180002BB0
:102DA00002D0042B03D09BE0534BBB639BE0534BFF
:102DB000BB6398E04F4B5B6803F03F037B634D4B75
:102DC0005B6803F48003002B28D04A4B5B689B09A7
:102DD00000223B627A623B6AC3F308000021474B42
:102DE00003FB01F2002300FB03F31344434AA0FB5F
:102DF0000212FA620A46BA62FA6A1344FB627B6BF9
:102E00000022BB61FA61D7E90623D7E90A01FDF781
:102E10003FFA02460B461346FB6353E0354B5B68B3
:102E20009B0900223B617A613B69C3F3080A4FF0BA
:102E3000000B52465B464FF000004FF00001590175
:102E400041EAD261500102460B46B2EB0A0863EB3D
:102E50000B094FF000024FF000034FEA891343EAD9
:102E600098634FEA8812B2EB080463EB09054FF050
:102E700000024FF00003EB0043EA5473E2001446F3
:102E80001D4614EB0A033B6045EB0B037B604FF0E0
:102E900000024FF00003D7E9004529468B02214686
:102EA00043EA915321468A02104619467B6B002261
:102EB000BB60FA60D7E90223FDF7EAF902460B4648
:102EC0001346FB630B4B5B681B0C03F003030133DE
:102ED0005B003B63FA6B3B6BB2FBF3F3BB6302E05B
:102EE000054BBB6300BFBB6B18464037BD46BDE812
:102EF000B08F00BF003802400024F40040787D010C
:102F000080B400AF034B1B681846BD465DF8047BD8
:102F1000704700BF0800002080B500AFFFF7F0FF4A
:102F20000246054B9B689B0A03F007030349CB5CF1
:102F300022FA03F3184680BD0038024050560008BC
:102F400080B500AFFFF7DCFF0246054B9B685B0BCB
:102F500003F007030349CB5C22FA03F3184680BD54
:102F6000003802405056000880B582B000AFFEF72E
:102F700011FC7860724B1B68714A43F001031360C7
:102F800008E0FEF707FC02467B68D31A022B01D942
:102F90000323D0E06A4B1B6803F00203002BF0D040
:102FA000674B1B68664A43F080031360FEF7F2FB31
:102FB0007860634B00229A600AE0FEF7EBFB024662
:102FC0007B68D31A41F28832934201D90323B2E0DD
:102FD0005B4B9B6803F00C03002BEED1FEF7DAFB92
:102FE0007860574B1B68564A23F45023136008E05F
:102FF000FEF7D0FB02467B68D31A642B01D903236A
:1030000099E04F4B1B6803F40033002BF0D1FEF71F
:10301000C1FB78604A4B1B68494A23F080731360F8
:1030200008E0FEF7B7FB02467B68D31A022B01D9F2
:10303000032380E0424B1B6803F00073002BF0D1A8
:10304000FEF7A8FB78603E4B1B683D4A23F0806387
:10305000136008E0FEF79EFB02467B68D31A022B42
:1030600001D9032367E0364B1B6803F00063002B94
:10307000F0D1FEF78FFB7860314B1B68304A23F0AC
:103080008053136008E0FEF785FB02467B68D31A85
:10309000022B01D903234EE0294B1B6803F0005398
:1030A000002BF0D1264B274A5A60254B264AC3F8FD
:1030B0008420234B244AC3F88820214BDB68204A14
:1030C00023F4F853D3601E4BDB681D4A23F40053EE
:1030D000D3601B4BDB681A4A23F48043D360184B40
:1030E000DB68174A43F41F03D360154BDB68144AAF
:1030F00043F40013D360124BDB68114A43F480039E
:10310000D3600F4B5B6F0E4A23F0010353670C4BE8
:103110005B6F0B4A43F0807353670C4B0C4A1A6089
:103120000C4B1B681846FEF7F1FA0346002B01D042
:10313000012300E0002318460837BD4680BD00BFCC
:103140000038024010300004003000240800002045
:103150000024F4000C00002080B582B000AF78603D
:103160007B68002B01D1012342E07B6893F841305A
:10317000DBB2002B06D17B68002283F84020786800
:10318000FEF7AAF97B68242283F841207B681B683C
:10319000DA687B681B6822F40052DA60786800F015
:1031A000FFFD7B681B681A697B681B6822F49042EC
:1031B0001A617B681B685A697B681B6822F02A02C7
:1031C0005A617B681B68DA687B681B6842F40052AE
:1031D000DA607B6800225A647B68202283F84120F1
:1031E0007B68202283F842207B6800225A630023F8
:1031F00018460837BD4680BD80B58AB002AFF8607A
:10320000B9603B601346FB8000237B61FB6893F849
:103210004130DBB2202B75D1BB68002B02D0FB887C
:10322000002B01D101236EE0FB6800225A64FB6889
:10323000212283F84120FEF7ADFA7861FB68FA8815
:103240009A84FB68FA88DA84FB689B68B3F5805F30
:1032500008D1FB681B69002B04D10023FB61BB680C
:10326000BB6103E0BB68FB610023BB612EE03B68F0
:1032700000937B6900228021F86800F09BFB0346E5
:10328000002B05D0FB68202283F8412003233AE07D
:10329000FB69002B0BD1BB691B881A46FB681B68B6
:1032A000C2F308025A60BB690233BB6107E0FB69E5
:1032B0001A78FB681B685A60FB690133FB61FB6885
:1032C000DB8C9BB2013B9AB2FB68DA84FB68DB8C37
:1032D0009BB2002BCBD13B6800937B69002240213D
:1032E000F86800F067FB0346002B05D0FB6820223E
:1032F00083F84120032306E0FB68202283F8412065
:10330000002300E0022318462037BD4680BD80B56B
:103310008AB002AFF860B9603B601346FB800023BF
:103320007B61FB6893F84230DBB2202B40F0818058
:10333000BB68002B02D0FB88002B01D1012379E070
:10334000FB6800225A64FB68222283F84220FB6853
:1033500000221A63FEF71EFA7861FB68FA889A85E4
:10336000FB68FA88DA85FB689B68B3F5805F08D153
:10337000FB681B69002B04D10023FB61BB68BB61A8
:1033800003E0BB68FB610023BB6147E03B6800933F
:103390007B6900222021F86800F00CFB0346002B1B
:1033A00005D0FB68202283F84220032342E0FB691A
:1033B000002B0CD1FB681B685B689BB2C3F308034E
:1033C0009AB2BB691A80BB690233BB611FE0FB681C
:1033D0009B68B3F5805F07D0FB689B68002B0AD120
:1033E000FB681B69002B06D1FB681B685B68DAB2BF
:1033F000FB691A7008E0FB681B685B68DBB203F0CE
:103400007F03DAB2FB691A70FB690133FB61FB6869
:10341000DB8D9BB2013B9AB2FB68DA85FB68DB8DE2
:103420009BB2002BB2D1FB68202283F842200023FC
:1034300000E0022318462037BD4680BD80B5BAB0F3
:1034400000AF78607B681B681B68C7F8E4307B6856
:103450001B68DB68C7F8E0307B681B685B69C7F8EE
:10346000DC300023C7F8D8300023C7F8D430D7F8B1
:10347000E43003F00F03C7F8D830D7F8D830002B6A
:103480000FD1D7F8E43003F02003002B09D0D7F890
:10349000E03003F02003002B03D0786800F0C2FB7B
:1034A0005BE2D7F8D830002B00F0DE80D7F8DC30B4
:1034B00003F00103002B06D1D7F8E03003F490733A
:1034C000002B00F0D180D7F8E43003F00103002B8B
:1034D0000BD0D7F8E03003F48073002B05D07B6865
:1034E0005B6C43F001027B685A64D7F8E43003F068
:1034F0000403002B0BD0D7F8DC3003F00103002BC2
:1035000005D07B685B6C43F002027B685A64D7F895
:10351000E43003F00203002B0BD0D7F8DC3003F0CB
:103520000103002B05D07B685B6C43F004027B68D1
:103530005A64D7F8E43003F00803002B11D0D7F811
:10354000E03003F02003002B05D1D7F8DC3003F086
:103550000103002B05D07B685B6C43F008027B689D
:103560005A647B685B6C002B00F0F281D7F8E43082
:1035700003F02003002B08D0D7F8E03003F020033D
:10358000002B02D0786800F04DFB7B681B685B69FC
:1035900003F04003402B0CBF01230023DBB2C7F82C
:1035A000D4307B685B6C03F00803002B03D1D7F8A1
:1035B000D430002B4FD0786800F055FA7B681B6838
:1035C0005B6903F04003402B41D17B681B681433D7
:1035D000C7F89C30D7F89C3053E8003FC7F89830C4
:1035E000D7F8983023F04003C7F8D0307B681B68C9
:1035F0001433D7F8D020C7F8A820C7F8A430D7F8DC
:10360000A410D7F8A82041E80023C7F8A030D7F8C5
:10361000A030002BD9D17B68DB6B002B13D07B68EB
:10362000DB6B7E4A1A657B68DB6B1846FEF786FA11
:103630000346002B16D07B68DB6B1B6D7A68D26B60
:10364000104698470EE0786800F09EF90AE0786826
:1036500000F09AF906E0786800F096F97B6800229D
:103660005A6475E100BF73E17B681B6B012B40F06E
:103670004F81D7F8E43003F01003002B00F04881AD
:10368000D7F8E03003F01003002B00F04181002355
:10369000BB607B681B681B68BB607B681B685B68E2
:1036A000BB60BB687B681B685B6903F04003402B11
:1036B00040F0B6807B68DB6B1B685B68A7F8BE30A8
:1036C000B7F8BE30002B00F045817B689B8DB7F8C2
:1036D000BE209A4280F03E817B68B7F8BE20DA8532
:1036E0007B68DB6BDB69B3F5807F00F088807B68EB
:1036F0001B680C33C7F88830D7F8883053E8003F90
:10370000C7F88430D7F8843023F48073C7F8B83012
:103710007B681B680C33D7F8B820C7F89420C7F82B
:103720009030D7F89010D7F8942041E80023C7F8DC
:103730008C30D7F88C30002BD9D17B681B681433C0
:103740007B677B6F53E8003F3B673B6F23F00103D0
:10375000C7F8B4307B681B681433D7F8B420C7F8B7
:103760008020FB67F96FD7F8802041E80023BB6712
:10377000BB6F002BE1D17B681B6814333B663B6E4B
:1037800053E8003FFB65FB6D23F04003C7F8B03002
:103790007B681B681433D7F8B020FA66BB66B96E35
:1037A000FA6E41E800237B667B6E002BE3D17B68D9
:1037B000202283F842207B6800221A637B681B6802
:1037C0000C33FB64FB6C53E8003FBB64BB6C23F021
:1037D0001003C7F8AC307B681B680C33D7F8AC20FB
:1037E000BA657B65796DBA6D41E800233B653B6D39
:1037F000002BE3D17B68DB6B1846FEF72FF97B6863
:1038000002225A637B689A8D7B68DB8D9BB2D31A48
:103810009BB21946786800F0C1F89BE02D3B000888
:103820007B689A8D7B68DB8D9BB2D31AA7F8CE306C
:103830007B68DB8D9BB2002B00F08E80B7F8CE301A
:10384000002B00F089807B681B680C33BB63BB6B6B
:1038500053E8003F7B637B6B23F49073C7F8C83059
:103860007B681B680C33D7F8C8207A643B64396CDA
:103870007A6C41E80023FB63FB6B002BE3D17B6890
:103880001B6814337B627B6A53E8003F3B623B6AF0
:1038900023F00103C7F8C4307B681B681433D7F8E2
:1038A000C4203A63FB62F96A3A6B41E80023BB62C9
:1038B000BB6A002BE3D17B68202283F842207B681F
:1038C00000221A637B681B680C333B613B6953E839
:1038D000003FFB60FB6823F01003C7F8C0307B6833
:1038E0001B680C33D7F8C020FA61BB61B969FA696B
:1038F00041E800237B617B69002BE3D17B680222D6
:103900005A63B7F8CE301946786800F047F823E0DC
:10391000D7F8E43003F08003002B09D0D7F8E0306B
:1039200003F08003002B03D0786800F013F914E053
:10393000D7F8E43003F04003002B0ED0D7F8E03086
:1039400003F04003002B08D0786800F053F904E03E
:1039500000BF02E000BF00E000BFE837BD4680BD09
:1039600080B483B000AF786000BF0C37BD465DF80F
:10397000047B704780B483B000AF786000BF0C3721
:10398000BD465DF8047B704780B483B000AF7860BB
:1039900000BF0C37BD465DF8047B704780B483B030
:1039A00000AF78600B467B8000BF0C37BD465DF8EA
:1039B000047B704780B586B000AFF860B9603B60AB
:1039C0001346FB713BE03B6AB3F1FF3F37D0FDF795
:1039D000E1FE02463B68D31A3A6A9A4202D33B6A36
:1039E000002B01D103233AE0FB681B68DB6803F07E
:1039F0000403002B23D0BB68802B20D0BB68402B56
:103A00001DD0FB681B681B6803F00803082B16D148
:103A100000237B61FB681B681B687B61FB681B687C
:103A20005B687B617B69F86800F01DF8FB68082221
:103A30005A64FB68002283F8402001230FE0FB68F2
:103A40001B681A68BB681340BA689A420CBF01230E
:103A50000023DBB21A46FB799A42B4D00023184601
:103A60001837BD4680BD80B495B000AF78607B68E4
:103A70001B680C337B637B6B53E8003F3B633B6B02
:103A800023F49073FB647B681B680C33FA6C3A6414
:103A9000FB63F96B3A6C41E80023BB63BB6B002B03
:103AA000E5D17B681B6814333B623B6A53E8003FF7
:103AB000FB61FB6923F00103BB647B681B68143363
:103AC000BA6CFA62BB62B96AFA6A41E800237B62A7
:103AD0007B6A002BE5D17B681B6B012B19D17B68BE
:103AE0001B680C33FB60FB6853E8003FBB60BB689E
:103AF00023F010037B647B681B680C337A6CBA611B
:103B00007B617969BA6941E800233B613B69002B1D
:103B1000E5D17B68202283F842207B6800221A636B
:103B200000BF5437BD465DF8047B704780B584B054
:103B300000AF78607B689B6BFB60FB680022DA85D6
:103B4000FB680022DA84F868FFF71EFF00BF103719
:103B5000BD4680BD80B485B000AF78607B6893F8C7
:103B60004130DBB2212B3ED17B689B68B3F5805F8F
:103B700014D17B681B69002B10D17B681B6AFB602A
:103B8000FB681B881A467B681B68C2F308025A60F0
:103B90007B681B6A9A1C7B681A6208E07B681B6A58
:103BA000591C7A6811621A787B681B685A607B68B6
:103BB000DB8C9BB2013B9BB27A681946D184002B07
:103BC0000FD17B681B68DA687B681B6822F0800273
:103BD000DA607B681B68DA687B681B6842F0400229
:103BE000DA60002300E0022318461437BD465DF872
:103BF000047B704780B582B000AF78607B681B683B
:103C0000DA687B681B6822F04002DA607B68202259
:103C100083F841207868FFF7A3FE00231846083791
:103C2000BD4680BD80B58CB000AF78607B6893F8EE
:103C30004230DBB2222B40F0AE807B689B68B3F54C
:103C4000805F17D17B681B69002B13D10023FB62B7
:103C50007B689B6ABB627B681B685B689BB2C3F333
:103C600008039AB2BB6A1A807B689B6A9A1C7B68BD
:103C70009A6226E07B689B6AFB620023BB627B68DA
:103C80009B68B3F5805F07D07B689B68002B0AD1E7
:103C90007B681B69002B06D17B681B685B68DAB206
:103CA000FB6A1A7008E07B681B685B68DBB203F094
:103CB0007F03DAB2FB6A1A707B689B6A5A1C7B68C6
:103CC0009A627B68DB8D9BB2013B9BB27A68194696
:103CD000D185002B5DD17B681B68DA687B681B6827
:103CE00022F02002DA607B681B68DA687B681B6858
:103CF00022F48072DA607B681B685A697B681B68F3
:103D000022F001025A617B68202283F842207B68FE
:103D100000225A637B681B6B012B35D17B68002224
:103D20001A637B681B680C337B617B6953E8003F37
:103D30003B613B6923F010037B627B681B680C339B
:103D40007A6A3A62FB61F9693A6A41E80023BB6129
:103D5000BB69002BE5D17B681B681B6803F010036F
:103D6000102B0AD10023FB607B681B681B68FB607B
:103D70007B681B685B68FB60FB687B689B8D1946F2
:103D80007868FFF70BFE02E07868FFF7F3FD002389
:103D900002E0002300E0022318463037BD4680BD14
:103DA0002DE9B04FC0B000AFC7F8F400D7F8F43039
:103DB0001B681B6923F44050D7F8F430D968D7F852
:103DC000F4301A6840EA01031361D7F8F4309A68B6
:103DD000D7F8F4301B691A43D7F8F4305B691A43FB
:103DE000D7F8F430DB691343C7F8F830D7F8F4306C
:103DF0001B68DB6823F4164121F00C01D7F8F4307E
:103E00001A68D7F8F8300B43D360D7F8F4301B6842
:103E10005B6923F44070D7F8F4309969D7F8F4302F
:103E20001A6840EA01035361D7F8F4301A688F4BDF
:103E30009A4205D0D7F8F4301A688D4B9A4204D1D3
:103E4000FFF77EF8C7F8FC0003E0FFF765F8C7F856
:103E5000FC00D7F8F430DB69B3F5004F40F00C817B
:103E6000D7F8FC300022C7F8E830C7F8EC20D7E9D3
:103E70003A4522462B469118B9655B41FB65D7E967
:103E80001623214612EB0108294643EB01094FF0A6
:103E900000024FF000034FEAC90343EA58734FEAA8
:103EA000C80290469946234618EB0303C7F8E03052
:103EB0002B4649EB0303C7F8E430D7F8F4305B68CE
:103EC0000022C7F8D830C7F8DC20D7E936120B46F5
:103ED000DB183B65134642EB03037B65D7E91423EC
:103EE000D7E93801FCF7D4F902460B46614BA3FB36
:103EF00002235B091C01D7F8FC300022C7F8D03040
:103F0000C7F8D420D7E9348942464B469118B964A2
:103F10005B41FB64D7E91223414612EB010A494693
:103F200043EB010B4FF000024FF000034FEACB03CD
:103F300043EA5A734FEACA0292469B4643461AEB3B
:103F40000303C7F8C8304B464BEB0303C7F8CC302C
:103F5000D7F8F4305B680022C7F8C030C7F8C42037
:103F6000D7E930120B46DB183B64134642EB0303E0
:103F70007B64D7E91023D7E93201FCF789F90246BF
:103F80000B4611463B4BA3FB01235B09642202FB5A
:103F900003F3CB1ADB0003F13202364BA3FB0223FF
:103FA0005B095B0003F4F8731C44D7F8FC30002273
:103FB000C7F8B830C7F8BC20D7E92E8942464B462F
:103FC0009118B9635B41FB63D7E90E234146511851
:103FD000396349464B417B634FF000024FF00003C9
:103FE000D7E90CAB5946CB00514643EA51735146D1
:103FF000CA0010461946034642469B18C7F8B0301F
:104000004B460A4642EB0303C7F8B430D7F8F43006
:104010005B680022C7F8A830C7F8AC20D7E92A129D
:104020000B46DB18BB62134642EB0303FB62D7E986
:104030000A23D7E92C01FCF72BF902460B460D4B5E
:10404000A3FB02135B09642101FB03F3D31ADB001A
:104050003233084AA2FB03235B0903F00702D7F8B7
:10406000F4301B6822449A6006E100BF0010014052
:10407000001401401F85EB51D7F8FC300022C7F82F
:10408000A030C7F8A420D7E9288942464B469118AA
:1040900039625B417B62D7E908234146541849469F
:1040A00043EB01054FF000024FF00003EB0043EA41
:1040B0005473E20014461D464346E318C7F898308F
:1040C0004B4645EB0303C7F89C30D7F8F4305B68E8
:1040D0000022C7F89030C7F894204FF000024FF04C
:1040E0000003D7E9244529468B00214643EA917312
:1040F00021468A00D7E92601FCF7CAF802460B469A
:10410000604BA3FB02235B091C01D7F8FC300022A3
:10411000C7F88830C7F88C20D7E9228942464B4639
:104120009118B9615B41FB61D7E9062341465118FB
:10413000396149464B417B614FF000024FF000036B
:10414000D7E904AB5946CB00514643EA5173514677
:10415000CA0010461946034642469B18C7F88030ED
:104160004B460A4642EB0303C7F88430D7F8F430D5
:104170005B680022BB67FA674FF000024FF0000354
:10418000D7E91E8949468B00414643EA917341466F
:104190008A00D7E92001FCF77BF802460B4611465E
:1041A000384BA3FB01235B09642202FB03F3CB1A08
:1041B0001B013233334AA2FB03235B0903F0F003F4
:1041C0001C44D7F8FC3000223B677A67D7E91C898A
:1041D00042464B469118B9605B41FB60D7E9022328
:1041E00041465118396049464B417B604FF000020F
:1041F0004FF00003D7E900AB5946CB00514643EAE4
:1042000051735146CA0010461946034642469B1850
:10421000BB664B460A4642EB0303FB66D7F8F43015
:104220005B6800223B667A664FF000024FF00003A5
:10423000D7E9188949468B00414643EA91734146C4
:104240008A00D7E91A01FCF723F802460B460D4B0A
:10425000A3FB02135B09642101FB03F3D31A1B01C7
:104260003233084AA2FB03235B0903F00F02D7F89D
:10427000F4301B6822449A6000BF07F58077BD4682
:10428000BDE8B08F1F85EB51002310B50446C0E98F
:104290000033C0E90433836081814366C281836156
:1042A000194608225C3000F027F90D4B63620D4B74
:1042B000A3620D4BE3620D4B23630D4B24629C42C2
:1042C00006D003F16802944202D0D0339C4205D15B
:1042D00004F15800BDE8104000F086B910BD00BFE1
:1042E00031440008534400088B440008AF440008E0
:1042F00060020020024A0349034800F069B800BF89
:1043000014000020455100082000002041680C4B9B
:10431000994210B5044601D000F014FFA168094B82
:10432000994202D0204600F00DFFE168064B994209
:1043300004D02046BDE8104000F004BF10BD00BF0F
:1043400060020020C80200203003002010B50B4B93
:104350000B4C0C4A1A60204600220421FFF794FF00
:1043600004F1680001220921FFF78EFF04F1D0005B
:104370000222BDE810401221FFF786BF98030020FB
:1043800060020020F5420008014800F02EB900BF8D
:10439000A1030020014800F029B900BFA1030020BB
:1043A00010B50446FFF7F0FF236A1BB1BDE81040CB
:1043B000FFF7F0BF044B2362044B1B68002BF5D1C1
:1043C000FFF7C4FFF2E700BF0D4300089803002089
:1043D0002DE9F8430746884614460026D4E901959E
:1043E000B9F1010905D52468002CF7D13046BDE8A4
:1043F000F883AB89012B07D9B5F90E30013303D00F
:1044000029463846C04706436835E9E70FB407B583
:10441000064904AB086853F8042B8168019300F047
:1044200061FB03B05DF804EB04B070476C00002042
:1044300010B50C46B1F90E1000F088F80028ABBF9B
:10444000636DA3891B1823F48053ACBF6365A381FC
:1044500010BD2DE9F0411F468B89DB0505460C4652
:10446000164605D5B1F90E100223002200F05CF8C3
:10447000A389B4F90E1023F48053A38132463B463E
:104480002846BDE8F04100F073B810B50C46B1F90C
:104490000E1000F049F8431CA38915BF606523F492
:1044A000805343F48053A38118BFA38110BDB1F999
:1044B0000E1000F029B8000000B59BB000910491E7
:1044C0006FF000410591029105490391694600F0A2
:1044D000E1F9009B00221A701BB05DF804FB00BFDD
:1044E0000802FFFF13460A46014602480068FFF72C
:1044F000E3BF00BF6C00002002440346934200D19A
:10450000704703F8011BF9E738B5064D0023044650
:1045100008462B60FCF7E2FE431C02D12B6803B176
:10452000236038BD9C03002038B5074D044608467B
:10453000114600222A601A46FCF7F7FE431C02D1FE
:104540002B6803B1236038BD9C03002038B5074DAC
:1045500004460846114600222A601A46FCF7A1FECE
:10456000431C02D12B6803B1236038BD9C0300209B
:1045700038B5074D04460846114600222A601A46FF
:10458000FCF731FD431C02D12B6803B1236038BD19
:104590009C030020014B1868704700BF6C0000208E
:1045A00070B50D4D0D4C641BA4100026A64209D118
:1045B0000B4D0C4C00F078FF641BA4100026A642A3
:1045C00005D170BD55F8043B98470136EEE755F824
:1045D000043B98470136F2E79456000894560008C9
:1045E00094560008985600087047704770470000BE
:1045F00037B5002944D051F8043C0190002BA1F1BB
:104600000404B8BFE41800F0DFF81E4A01981368EC
:1046100033B96360146003B0BDE8304000F0DAB82D
:10462000A34208D9256861198B4201BF19685B68EC
:1046300049192160EDE71A465B680BB1A342FAD92C
:1046400011685518A5420BD1246821445418A3427F
:104650001160E0D11C685B6853600C441460DAE7B9
:1046600002D90C230360D6E7256861198B4204BF89
:1046700019685B68636004BF491921605460CAE728
:1046800003B030BDA403002070B50E4E0C46316857
:10469000054611B900F02EFE30602146284600F094
:1046A00029FE431C0AD0C41C24F00304A04207D0F6
:1046B000211A284600F01EFE013001D14FF0FF34D0
:1046C000204670BDA80300202DE9F843CD1C25F03D
:1046D000030508350C2D38BF0C25002D074601DBDE
:1046E000A94205D90C233B6000263046BDE8F8837B
:1046F000DFF8D08000F068F8D8F800301C465CBBCA
:1047000029463846FFF7C0FF431C044655D1D8F868
:1047100000402646002E45D1002C48D02368314663
:10472000384604EB030900F0E5FD81453FD12168DF
:104730006D1A29463846FFF7A7FF013037D02368A6
:104740002B442360D8F80030002B38D05A68A2429E
:104750002BD100225A600FE02268521B1FD40B2A73
:1047600017D96119A342256018BF5960636808BF53
:10477000C8F8001062514B60384604F10B0600F097
:1047800029F826F00706231DF21AAED09B1BA35072
:10479000ABE7A3426268DDD1C8F80020ECE723460E
:1047A0006468ACE734467668B4E71346CCE70C237C
:1047B0003B60384600F00EF897E72560DCE75B6069
:1047C000FFDE00BFA40300200148FFF70EBF00BFBB
:1047D000A00300200148FFF709BF00BFA00300208D
:1047E0002DE9F0478E681F46BE420B6882460C4694
:1047F00090462CD88A8912F4906F26D06569096991
:1048000005EB4505A3EB010905EBD5757B1C4B4476
:104810006D109D4238BF1D46530527D52946FFF729
:1048200053FF064660B321694A4600F073FDA38931
:1048300023F4906343F08003A381266165614E44B5
:10484000A5EB09052660A5603E46BE4200D93E465E
:1048500020683246414600F033FDA3689B1BA360ED
:104860002368334423600020BDE8F0872A4600F027
:104870005FFD06460028E0D121695046FFF7B8FEEB
:104880000C23CAF80030A38943F04003A3814FF002
:10489000FF30E9E72DE9F04F98468B891B069DB064
:1048A00007460D4614460ED50B6963B94021FFF744
:1048B0000BFF2860286120B90C233B604FF0FF30CC
:1048C000D0E040236B610023099320238DF8293029
:1048D000CDF80C803023DFF8A4818DF82A304FF01A
:1048E000010923469A4613F8012B0AB1252AF9D16A
:1048F000BAEB040B0BD05B46224629463846FFF73D
:104900006FFF013000F0A980099A5A4409929AF881
:104910000030002B00F0A18000234FF0FF32CDE9E2
:1049200005230AF1010A049307938DF853301A9373
:104930005446052214F8011B5048FBF759FC049A11
:10494000D8B9D00644BF20238DF85330110744BF97
:104950002B238DF853309AF800302A2B15D0079A64
:10496000544600204FF00A0C214611F8013B303B21
:10497000092B4DD9B0B1079214E0A0EB080309FA56
:1049800003F313430493A246D2E7039B191D1B684C
:104990000391002BBBBF5B4242F0020207930793D7
:1049A000B8BF049223782E2B0CD163782A2B34D1F4
:1049B000039B1A1D1B680392002BB8BF4FF0FF33F7
:1049C00002340593DFF8C4A0217803225046FBF798
:1049D0000FFC38B1049BA0EB0A0040228240134335
:1049E0000134049314F8011B25488DF82810062281
:1049F000FBF7FEFB002838D0224B1BBB039B073381
:104A000023F0070308330393099B3344099368E7B2
:104A10000CFB02320C460120A6E70023013405936B
:104A200019464FF00A0C204610F8012B303A092A9B
:104A300003D9002BC6D00591C4E70CFB0121044625
:104A40000123F0E703AB00932A460F4B04A9384635
:104A5000AFF30080421C0646D6D1AB895B063FF51A
:104A60002DAF09981DB0BDE8F08F03AB00932A4627
:104A7000054B04A9384600F0BDF9EBE7585600088D
:104A80006256000800000000E14700085E5600087A
:104A90009368013B002B10B4936008DA9469A34239
:104AA00001DB0A2903D15DF8044B00F073BB1368E6
:104AB000581C1060197008465DF8044B7047F8B533
:104AC00006460F461446D518AC4201D1002007E037
:104AD00014F8011B3A463046FFF7DAFF431CF3D1C6
:104AE000F8BD00002DE9F04F0D469DB014469846E4
:104AF000064618B1036A0BB9FFF752FC6B6ED90773
:104B000005D4AB899A0502D4A86DFFF76EFDAB8979
:104B10001B0701D52B699BB92946304600F078FB6D
:104B200070B16B6EDC0704D54FF0FF301DB0BDE8EF
:104B3000F08FAB899805F7D4A86DFFF757FDF3E721
:104B40000023099320238DF82930CDF80C803023E1
:104B5000DFF8B0818DF82A304FF0010923469A46DC
:104B600013F8012B0AB1252AF9D1BAEB040B0BD0AB
:104B70005B46224629463046FFF7A1FF013000F090
:104B8000A980099A5A4409929AF80030002B00F043
:104B9000A18000234FF0FF32CDE905230AF1010A7D
:104BA000049307938DF853301A935446052214F852
:104BB000011B5448FBF71CFB049AD8B9D10644BF2B
:104BC00020238DF85330130744BF2B238DF8533027
:104BD0009AF800302A2B15D0079A544600204FF03F
:104BE0000A0C214611F8013B303B092B4DD9B0B1DD
:104BF000079214E0A0EB080309FA03F313430493AC
:104C0000A246D2E7039B191D1B680391002BBBBF73
:104C10005B4242F0020207930793B8BF04922378E5
:104C20002E2B0CD163782A2B34D1039B1A1D1B68C1
:104C30000392002BB8BF4FF0FF3302340593DFF827
:104C4000D4A0217803225046FBF7D2FA38B1049B56
:104C5000A0EB0A004022824013430134049314F86D
:104C6000011B29488DF828100622FBF7C1FA0028FD
:104C70003FD0264B1BBB039B073323F007030833AE
:104C80000393099B3B44099368E70CFB02320C46F3
:104C90000120A6E700230134059319464FF00A0CC2
:104CA000204610F8012B303A092A03D9002BC6D030
:104CB0000591C4E70CFB012104460123F0E703AB97
:104CC00000932A46124B04A93046AFF300800746F2
:104CD000781CD6D16B6ED90705D4AB899A0502D45E
:104CE000A86DFFF783FCAB895B063FF51DAF099804
:104CF0001CE703AB00932A46054B04A9304600F09D
:104D000079F8E4E7585600086256000800000000F1
:104D1000BF4A00085E5600082DE9F047164699463E
:104D20008A680B69DDF820809342B8BF1346336070
:104D300091F8432007460C460AB1013333602368DB
:104D4000990642BF336802333360256815F00605C3
:104D500006D104F1190AE36832689B1AAB4226DCDB
:104D600094F84320131E226818BF012392062BD407
:104D700004F1430249463846C04701301ED023683B
:104D8000226903F00603042B02BFE5683368ED1ABD
:104D9000A3680CBF25EAE57500259342C4BF9B1AA2
:104DA000ED1800261A34B5421AD1002008E001237C
:104DB000524649463846C047013003D14FF0FF30D4
:104DC000BDE8F0870135C6E7E1185A1C302081F8AC
:104DD0004300224494F8451082F843100233C7E799
:104DE0000123224649463846C0470130E6D0013605
:104DF000D9E700002DE9FF470F7E0C9D782F9146E3
:104E000080460C469A4601F1430207D8622F0AD821
:104E1000002F00F0D480582F00F0C08004F142052C
:104E200084F842703AE0A7F16303152BF6D801A18C
:104E300051F823F08D4E0008A14E00081D4E0008C9
:104E40001D4E00081D4E00081D4E0008A14E000812
:104E50001D4E00081D4E00081D4E00081D4E000886
:104E6000A54F0008CD4E00085F4F00081D4E0008FA
:104E70001D4E0008C74F00081D4E0008CD4E00080B
:104E80001D4E00081D4E0008674F00082B681A1DB4
:104E90001B682A6004F1420584F8423001239FE038
:104EA00020682B68070603F10401296001D51E68FC
:104EB00003E04606FBD5B3F90060002E03DA2D238C
:104EC000764284F843305A480A2312E02B6820685F
:104ED000191D2960050601D51E6802E04106FBD5B3
:104EE0001E8853486F2F0CBF08230A23002184F823
:104EF00043106568A560002DA2BF216821F0040160
:104F000021600EB9002D4BD01546B6FBF3F103FB23
:104F10001167C75D05F8017D3746BB420E46F4D9DF
:104F2000082B0BD12368DE0708D5236961689942F5
:104F3000DEBF302305F8013C05F1FF35521B22612D
:104F4000CDF800A04B4603AA21464046FFF7E4FEF9
:104F500001304AD14FF0FF3004B0BDE8F08723683C
:104F600043F0200323603348782784F84570236892
:104F700029681F0651F8046B02D45F0648BFB6B219
:104F8000DF0748BF43F02003296048BF23601EB9F4
:104F9000236823F0200323601023A7E72448E4E7D5
:104FA0001546BDE72B6826686169181D286035061F
:104FB0001B6801D5196002E07006FBD5198000233B
:104FC00023611546BCE72B681A1D2A601D686268BC
:104FD00000212846FBF70CF908B1401B60606368AC
:104FE0002361002384F84330AAE723692A4649460F
:104FF0004046D0470130ADD023689B0713D4E0680A
:10500000039B9842B8BF1846A6E70123324649469B
:105010004046D04701309DD00135E36803995B1AC3
:10502000AB42F2DCEBE7002504F11906F5E700BF1F
:10503000695600087A5600088A892DE9F04105462C
:1050400010070C4658D44B68002B05DC0B6C002B6A
:1050500002DC0020BDE8F081E66A002EF9D00023D2
:1050600012F480522F68216A2B6032D0606DA389C0
:105070005A0705D56368C01A636B0BB1236CC01A5D
:1050800000230246E66A216A2846B047431CA389EA
:1050900006D129681D292BD8294A0A41D60727D4C9
:1050A00000226260D9042269226004D5421C01D129
:1050B0002B6803B96065616B2F600029C9D004F1CA
:1050C0004403994202D02846FFF792FA0020606319
:1050D000C0E701232846B047411CC8D12B68002BEC
:1050E000C5D01D2B01D0162B01D12F60B1E7A389AC
:1050F00043F04003A381ADE70F69002FA9D09307C8
:105100000E6808BF4B690F6018BF0023A6EB0708A5
:105110008B60B8F1000F9CDD216AA66A43463A46CF
:105120002846B047002806DCA38943F04003A3814A
:105130004FF0FF308EE70744A8EB0008E9E700BF17
:10514000FEFFBFDF38B50B6905460C4613B90025D5
:10515000284638BD18B1036A0BB9FFF721F9B4F935
:105160000C30002BF3D0626ED00704D4990502D422
:10517000A06DFFF73AFA28462146FFF75DFF636E00
:10518000DA070546E4D4A3899B05E1D4A06DFFF7B7
:105190002DFADDE7F8B50E461446054618B1036A48
:1051A0000BB9FFF7FDF8A369A360A3891A0725D5FA
:1051B00023691BB323682269981A6369F6B2834294
:1051C000374604DC21462846FFF7BCFFE0B9A36858
:1051D000013BA36023685A1C22601E706269431C55
:1051E0009A4204D0A389DB0706D50A2E04D12146B2
:1051F0002846FFF7A7FF38B93846F8BD21462846AC
:1052000000F006F80028D5D04FF0FF37F4E7000093
:1052100038B52A4B054618680C4618B1036A0BB915
:10522000FFF7BEF8A389B4F90C20180722D4D906D9
:1052300007D409232B6042F04003A3814FF0FF30D5
:1052400034E0580712D5616B41B104F1440399422F
:1052500002D02846FFF7CCF900236363A38923F02B
:105260002403A3810023636023692360A38943F09F
:105270000803A38123694BB9A38903F42073B3F511
:10528000007F03D02146284600F0A7F8A089B4F992
:105290000C2010F001030AD00023A36063695B4275
:1052A000A361236943B910F08000C4D138BD8107E0
:1052B00058BF6369A360F4E70020F7E76C000020A3
:1052C000884210B501EB020402D98442234607D874
:1052D000431EA14208D011F8012B03F8012FF8E773
:1052E000024401468A4200D110BD13F8014D02F874
:1052F000014DF7E738B5064D0023044608462B60FC
:10530000FCF720F8431C02D12B6803B1236038BDA1
:105310009C0300200A44914200F1FF3300D1704702
:1053200010B511F8014B03F8014F9142F9D110BDAE
:105330002DE9F041804614460E4621B9BDE8F04102
:105340001146FFF7C1B92AB9FFF752F92546284699
:10535000BDE8F08100F0A0F88442074602D8B4EB23
:10536000500F12D821464046FFF7AEF905460028F7
:10537000EDD0BC422246314628BF3A46FFF7CAFF6D
:1053800031464046FFF734F9E1E73546DFE770B5CF
:105390000C46B1F90E10002996B015461E460DDADE
:1053A000A38913F0800F4FF000010CBF4FF480630E
:1053B0004023002031602B6016B070BD6A4600F0BB
:1053C00049F80028ECDB019901F47041A1F5005384
:1053D000594259414FF48063EBE78B8973B59D07C0
:1053E00006460C4607D504F14703236023610123D9
:1053F000636102B070BD01AB6A46FFF7C8FF009958
:1054000005463046FFF760F948B9B4F90C309A0503
:10541000EFD423F0030343F00203A381E3E7A3895E
:10542000206043F08003A381009B6361019B2061A6
:105430005BB1B4F90E10304600F01EF828B1A38914
:1054400023F0030343F00103A381A3891D43A58136
:10545000CFE7000038B5074D002304460846114643
:105460002B60FBF747FF431C02D12B6803B123607D
:1054700038BD00BF9C03002038B5064D002304460C
:1054800008462B60FBF746FF431C02D12B6803B193
:10549000236038BD9C03002051F8043C181F002BEA
:1054A000BCBF0B58C0187047F8B500BFF8BC08BCAB
:1054B0009E467047F8B500BFF8BC08BC9E467047D2
:1054C00047657473207468652070726F746F636FC2
:1054D0006C2076657273696F6E200D0A0000000003
:1054E000476574732068656C702077697468204321
:1054F0006F6D6D616E6473204944200D0A000000D9
:105500004765747320746865206368697020494436
:10551000200D0A004A756D707320746F20737065DA
:1055200063696669632061646472657373206C6F7C
:10553000636174656420696E2074686520666C61BF
:105540007368206D656D6F7279200D0A0000000090
:1055500045726173657320736F6D65207061676557
:105560007320696E20666C617368206D656D6F7263
:1055700079200D0A00000000577269746520627975
:1055800074657320696E20466C617368204D656D8B
:105590006F72792066726F6D2061646472657373D7
:1055A0002073706563696669656420627920746838
:1055B00065206170706C69636174696F6E200D0A9B
:1055C000000000004A756D707320746F207573655C
:1055D00072206170706C69636174696F6E20636FB3
:1055E0006465206C6F636174656420696E20746803
:1055F0006520666C617368206D656D6F7279200D32
:105600000A000000496E76616C696420636F6D6DFD
:10561000616E6420636F6465207265636569766599
:10562000642066726F6D20686F7374202121200DD5
:105630000A0000007374617274696E670A0D0000DD
:105640000000000000000000010203040607080932
:105650000000000001020304232D302B2000686CA1
:105660004C00656667454647003031323334353685
:1056700037383941424344454600303132333435BE
:0C568000363738396162636465660000EB
:08568C0034ACFF7F01000000B7
:04569400D501000834
:04569800B101000854
:10569C0010111214151622000024F4001000000042
:1056AC000100000000000000030000006002002068
:1056BC000000000060020020C8020020300300201F
:1056CC0000000000000000000000000000000000CE
:1056DC0000000000000000000000000000000000BE
:1056EC0000000000000000000000000000000000AE
:1056FC00000000000000000000000000200000205E
:040000050800167564
:00000001FF
