:020000040800F2
:1000000000000320811800089D140008A3140008B4
:10001000A9140008AF140008B5140008000000007F
:10002000000000000000000000000000C1660008A1
:10003000BB1400080000000011690008796900087D
:10004000D1180008C9140008D1180008D1180008F8
:10005000D5140008E1140008D1180008D1180008D0
:10006000D1180008D1180008D1180008D1180008CC
:10007000D1180008D1180008D1180008D1180008BC
:10008000D1180008D1180008D1180008D1180008AC
:10009000D1180008D1180008D1180008D11800089C
:1000A000D1180008F1140008D1180008D118000870
:1000B000D1180008D1180008D1180008D11800087C
:1000C000D1180008D1180008D1180008D11800086C
:1000D000D118000805150008191500082D1500088D
:1000E000D1180008D1180008D1180008D11800084C
:1000F000D1180008D1180008D1180008D11800083C
:10010000D1180008D1180008D1180008D11800082B
:10011000D1180008D1180008D1180008D11800081B
:10012000D1180008D1180008D1180008D11800080B
:10013000D1180008D1180008D1180008D1180008FB
:10014000D1180008D1180008D1180008D1180008EB
:10015000D1180008D1180008D1180008D1180008DB
:10016000D1180008D1180008D1180008D1180008CB
:10017000D1180008D1180008D118000800000000AC
:10018000D118000841150008D1180008D11800083E
:10019000D1180008D1180008D1180008D11800089B
:0C01A000D1180008D1180008D118000880
:1001B00010B5054C237833B9044B13B10448AFF3A1
:1001C00000800123237010BD6800002000000000A3
:1001D000FC78000808B5034B1BB103490348AFF393
:1001E000008008BD000000006C000020FC780008C2
:1001F00001F0FF01102A2BDB10F0070F08D010F8D8
:10020000013B013A8B422DD010F0070F42B3F6D1DB
:10021000F0B441EA012141EA014122F007047FF0F4
:1002200000070023F0E80256083C85EA010586EA4B
:10023000010685FA47F5A3FA87F586FA47F6A5FA87
:1002400087F68EB9EED1F0BC01F0FF0102F0070293
:1002500032B110F8013B013A83EA010313B1F8D13E
:100260000020704701387047002D06BF354603381F
:10027000073815F0010F07D1013015F4807F02BF58
:10028000013015F4C03F0130F0BC0138704700BFA9
:1002900053B94AB9002908BF00281CBF4FF0FF31ED
:1002A0004FF0FF3000F070B9ADF1080C6DE904CEED
:1002B00000F006F8DDF804E0DDE9022304B0704741
:1002C0002DE9F047089E0D4604460F46002B4AD103
:1002D0008A42944665D9B2FA82F343B102FA03FC2A
:1002E000C3F120029F4020FA02F217439C404FEADC
:1002F0001C4E1FFA8CF5B7FBFEF1220C0EFB11779A
:1003000042EA074201FB05F090420AD91CEB0202C7
:1003100001F1FF3780F01C81904240F219810239CF
:100320006244121AA4B2B2FBFEF00EFB102244EAA1
:10033000024400FB05F5A5420AD91CEB040400F1B8
:10034000FF3280F00781A54240F204816444023804
:1003500040EA0140641B00211EB1DC400023C6E9D5
:100360000043BDE8F0878B4208D9002E00F0ED80F5
:100370000021C6E900050846BDE8F087B3FA83F11D
:10038000002949D1AB4202D3824200F2F880841A9C
:1003900065EB030201201746002EE2D0C6E90047B4
:1003A000DFE702B9FFDEB2FA82F3002B40F0908063
:1003B0008A1A4FEA1C471FFA8CFE0121B2FBF7F59F
:1003C00007FB1520220C42EA00420EFB05F090428A
:1003D00008D91CEB020205F1FF3802D2904200F26C
:1003E000CB804546121AA4B2B2FBF7F007FB1022ED
:1003F00044EA02440EFB00FEA64508D91CEB0404A7
:1004000000F1FF3202D2A64500F2BB801046A4EBF9
:100410000E0440EA05409FE7C1F120078B4022FA15
:1004200007FC4CEA030C05FA01F420FA07F3FD403F
:100430004FEA1C492343B5FBF9F81FFA8CFE09FB70
:1004400018551C0C44EA054408FB0EF5A54202FAB7
:1004500001F200FA01F00BD91CEB040408F1FF3A99
:1004600080F08880A54240F28580A8F102086444AB
:10047000641B9DB2B4FBF9F309FB134445EA044441
:1004800003FB0EFEA64508D91CEB040403F1FF355F
:100490006CD2A6456AD9023B644443EA0843A3FBF5
:1004A0000295A4EB0E04AC42C846AE4656D353D0D8
:1004B00056B1B0EB080264EB0E0404FA07F7CA4029
:1004C000CC401743C6E9007418460021BDE8F08708
:1004D000C3F1200102FA03FC20FA01F225FA01F12E
:1004E0009D402A434FEA1C471FFA8CFEB1FBF7F0F0
:1004F00007FB1015110C41EA054100FB0EF58D427A
:1005000004FA03F408D91CEB010100F1FF382FD2E3
:100510008D422DD902386144491B92B2B1FBF7F5E7
:1005200007FB151142EA014205FB0EF1914208D981
:100530001CEB020205F1FF3816D2914214D9023D9C
:100540006244521A45EA004138E73146304608E72E
:100550003946E6E61046FBE64845A9D2B9EB020863
:1005600065EB0C0E013BA3E74546EAE72B4694E713
:100570004046D1E7D0467BE7023D624432E7084679
:100580000AE76444023842E7704700BF0FB480B501
:100590009AB000AF00237B6007F1080360220021BE
:1005A000184606F027FD07F174033B603B1D3A68CF
:1005B000396F184606F014FD391D4FF0FF336422E1
:1005C000044803F049FB00BF6837BD46BDE88040E2
:1005D00004B070470004002080B582B000AF002353
:1005E000FB710123BB710023BB80C82200214D4851
:1005F00006F000FD4FF0FF3301224A494A4803F05C
:10060000B6FB0346BB71BB79002B02D00123FB7103
:1006100083E0444B1B78BB80BA884FF0FF334349DB
:10062000414803F0A4FB0346BB71BB79002B02D009
:100630000123FB7171E03B4B5B78103B122B68D8B8
:1006400001A252F823F000BF95060008A706000893
:10065000B906000813070008CB060008DD060008ED
:10066000EF06000813070008130700081307000827
:1006700013070008130700081307000813070008F2
:1006800013070008130700081307000813070008E2
:10069000010700082648FFF779FF224800F018F903
:1006A0000023FB7139E02348FFF770FF1D4800F07D
:1006B00041F90023FB7130E01F48FFF767FF19483D
:1006C00000F066F90023FB7127E01C48FFF75EFF8E
:1006D000144800F05BFA0023FB711EE01848FFF796
:1006E00055FF104800F0D9FA0023FB7115E01548BA
:1006F000FFF74CFF0B4800F064FB0023FB710CE09C
:100700001148FFF743FF074800F07AF90023FB7117
:1007100003E00E48FFF73AFF00BFFB7918460837A1
:10072000BD4680BD8400002090040020850000208C
:1007300014790008347900085479000868790008B1
:10074000A4790008CC790008187A0008587A0008C3
:1007500080B582B000AF786039603B689AB24FF0E4
:10076000FF337968034803F077FA00BF0837BD46C6
:1007700080BD00BF9004002080B584B000AF034668
:10078000FB710023BB81CD233B73FB797B7307F1A6
:100790000C0302211846FFF7DBFF00BF1037BD46F0
:1007A00080BD80B582B000AFAB23FB71FB1D012182
:1007B0001846FFF7CDFF00BF0837BD4680BD0000DB
:1007C00080B588B000AFF860B9607A600023FB772D
:1007D0000023BB610023FB7500233B610023FB75F5
:1007E0000FE0FB7DFA6813441B783B6107F11003AF
:1007F00001221946104801F0ECF9B861FB7D013384
:10080000FB75FB7DBA689A42EBD80B4B1B689A6864
:10081000094B1B6842F001029A60BA697B689A42F0
:1008200002D10123FB7701E00023FB77FB7F184611
:100830002037BD4680BD00BF4C01002080B48BB086
:1008400000AFF860B9607A60002387F82730002392
:100850007B614FF0FF333B620023FB611FE0FA68CE
:10086000FB6913441B781A463B6A53403B620023E2
:10087000BB610EE03B6A002B05DA3B6A5A00134B62
:1008800053403B6202E03B6A5B003B62BB69013361
:10089000BB61BB691F2BEDD9FB690133FB61FA69B1
:1008A000BB689A42DBD33A6A7B689A4203D1012340
:1008B00087F8273002E0002387F8273097F82730A1
:1008C00018462C37BD465DF8047B7047C11CC7082D
:1008D00080B586B000AF7860154BFB600023FB82CB
:1008E00000233B617B681B789BB20133FB82FB8A50
:1008F000043B7A6813441B683B61FB8A043B3A69FA
:1009000019467868FFF79AFF0346012B09D10420A6
:10091000FFF732FF07F10C0304211846FFF718FF19
:1009200001E0FFF73EFF00BF1837BD4680BD00BFA6
:100930006401000180B584B000AF78600023FB81C2
:100940000023BB607B681B789BB20133FB81FB8972
:10095000043B7A6813441B68BB60FB89043BBA689C
:1009600019467868FFF76AFF0346012B07D10C2070
:10097000FFF702FF0C210548FFF7EAFE01E0FFF751
:1009800010FF00BF1037BD4680BD00BF0000002033
:1009900080B586B000AF78600023FB8200233B6106
:1009A0000023FB817B681B789BB20133FB82FB8AAF
:1009B000043B7A6813441B683B61FB8A043B3A6939
:1009C00019467868FFF73AFF0346012B10D10B4B0D
:1009D0001B689BB2C3F30B039BB2FB810220FFF7A2
:1009E000CBFE07F10E0302211846FFF7B1FE01E02E
:1009F000FFF7D7FE00BF1837BD4680BD002004E0DA
:100A000080B588B000AF78600023FB830023BB6112
:100A10007B681B789BB20133FB83FB8B043B7A68BA
:100A200013441B68BB61FB8B043BBA6919467868A9
:100A3000FFF704FF0346012B1BD10120FFF79CFEAB
:100A400001210120FFF784FE00F01EF80C4B1B680B
:100A50007B610C4B1B683B613B69FB607B69BB6046
:100A6000BB6883F3088800BF02F00CFDFB68984761
:100A700001E0FFF796FE00BF2037BD4680BD00BFF6
:100A8000008000080480000880B584B000AF084BE7
:100A90001B68FB60FB6883F30888064B1B68BB6020
:100AA000BB687B607B68984700BF1037BD4680BD40
:100AB000008000080480000880B485B000AF786032
:100AC0000023FB737B68B3F1005F06D37B680D4A9C
:100AD000934202D80123FB730CE07B68B3F1006FF3
:100AE00006D37B68B3F1026F02D80123FB7301E0E8
:100AF0000023FB73FB7B18461437BD465DF8047B6F
:100B0000704700BF0000042080B586B000AF01F040
:100B100027FA01F057FA3B1D184601F083FC022327
:100B20007B603B7D03F01003002B02D000233B755C
:100B300001E010233B753B1D184601F035FC0346D0
:100B4000002B09D04FF47A7000F006FF4FF480417B
:100B50000D4801F0D8FFF5E701F060FA0346002BDD
:100B600008D0642000F0F8FE4FF48041064801F000
:100B7000CAFFF6E701F042FA01F014FA01F009F8B1
:100B800000BF1837BD4680BD0018024080B588B050
:100B900000AF78600023FB830023BB6100237B61EF
:100BA0000023FB737B681B789BB20133FB83FB8BB9
:100BB000043B7A6813441B68BB61FB8B043BBA6936
:100BC00019467868FFF7FCFD0346012B21D101206F
:100BD000FFF7D2FD7B68D3F802307B617869FFF7BD
:100BE0006BFF0346FB73FB7B012B0BD107F10F035C
:100BF00001211846FFF7ACFD7B6901333B613B697E
:100C0000984708E007F10F0301211846FFF7A0FD00
:100C100001E0FFF7C6FD00BF2037BD4680BD80B5AF
:100C20008AB000AF03460A46FB711346BB7100232E
:100C3000BB60012387F82730BB79172B01D912231A
:100C400027E0BB79172B23D8BB79C3F118033B628C
:100C5000BB793A6A9A4201D23B6ABB710023FB60BE
:100C6000FB797B61BB79BB6101F07AF90223FB61FF
:100C700007F1080207F10C031146184601F022FBA8
:100C8000034687F8273001F08DF997F8273000E008
:100C9000122318462837BD4680BD80B586B000AF08
:100CA00078600023FB8200233B610023FB737B6899
:100CB0001B789BB20133FB82FB8A043B7A681344A6
:100CC0001B683B61FB8A043B3A6919467868FFF769
:100CD000B5FD0346012B15D10120FFF74DFD7B68C3
:100CE00002331A787B6803331B7819461046FFF7E6
:100CF00096FF0346FB7307F10F0301211846FFF728
:100D000027FD01E0FFF74DFD00BF1837BD4680BD50
:100D1000B0B588B000AFF860B9601346FB8001231E
:100D2000FB770023BB7700237B8300237B6101F0EB
:100D300017F90346FB77FB7F002B02D00023BB771C
:100D400025E00023BB831EE0BB8BFA6813443B61A4
:100D5000BA8BBB68D1183B691B889BB200221C462A
:100D6000154622462B46012000F0F0FF0346FB7794
:100D7000FB7F002B02D00023BB7708E00123BB7769
:100D8000BB8B0233BB83BA8BFB889A42DCD3BB7F1D
:100D9000012B0FD1FB7F002B0CD101F003F903468F
:100DA000FB77FB7F002B02D00023BB7704E00123FD
:100DB000BB7701E00023BB77BB7F18462037BD46D9
:100DC000B0BD80B586B000AF78600023FB82002301
:100DD0003B610023FB600023BB720023FB720023F6
:100DE0007B727B681B789BB20133FB82FB8A043BDE
:100DF0007A6813441B683B61FB8A043B3A691946D5
:100E00007868FFF71BFD0346012B39D10120FFF75E
:100E1000B3FC7B689B79FB727B68D3F80230FB6084
:100E2000F868FFF749FE0346BB72BB7A012B1ED15F
:100E30007B680733FA7A92B2F9681846FFF768FFC1
:100E400003467B727B7A012B0AD107F1090301214A
:100E50001846FFF77DFC0121CD20FFF779FC11E05A
:100E600007F1090301211846FFF772FC0AE000238D
:100E7000BB7207F10A0301211846FFF769FC01E084
:100E8000FFF78FFC00BF1837BD4680BD80B483B02C
:100E900000AF074B7B607B681B681B0903F00103F5
:100EA0003B603B6818460C37BD465DF8047B7047D5
:100EB00000C0FF1F80B584B000AF104BFB60FB6823
:100EC0001B68BB600023FB71BB684AF2A00293421F
:100ED00008D10123FB71F91D0A230122084802F001
:100EE000BBFE07E00223FB71F91D0A23012204481F
:100EF00002F0B2FE00BF1037BD4680BD0080100872
:100F00000004002080B500AF064B074A1A60054870
:100F100000F043FE0346002B01D000F0FBF900BFB8
:100F200080BD00BF4C0100200030024080B485B07D
:100F300000AF78607B681B680B4A93420DD1002399
:100F4000FB600A4B1B6B094A43F480531363074B46
:100F50001B6B03F48053FB60FB6800BF1437BD4676
:100F60005DF8047B704700BF00300240003802404B
:100F700080B500AF01220A490A4802F08FFF4FF006
:100F8000FF3301220849094802F0F1FE064B1B78A5
:100F9000DBB27F2B01D1FFF71FFB00BF80BD00BF7D
:100FA0005D010020000400205C010020900400206E
:100FB00080B483B000AF786000BF0C37BD465DF8E9
:100FC000047B704780B483B000AF786000BF0C37FB
:100FD000BD465DF8047B704780B485B000AFF86013
:100FE000B9607A60FB68074A1A60BB68064A1A60F3
:100FF0007B6880221A6000BF1437BD465DF8047B11
:10100000704700BF60010020B4010020B0B58AB075
:1010100000AF00233B6200237B6207F120031846E8
:1010200003F037FF03460B4A13600B4B3C1D1D4674
:101030000FCD0FC495E8070084E807003B1D002191
:10104000184603F0C6FE0346044A136000BF283763
:10105000BD46B0BD58010020907A00085401002020
:1010600080B582B000AF78604FF48041034801F052
:101070004AFD642003F0F9FEF6E700BF00180240C5
:1010800080B584B000AF786001221349134802F0A4
:1010900005FF114B1B78DBB2662B0BD1FFF7F6FE79
:1010A0000346DBB2FB7307F10F010A2301220B4851
:1010B00002F0D2FD084B1B78DBB28C2B01D1FFF77D
:1010C00023FD054B1B78DBB24C2B01D1FFF7F2FE61
:1010D00000BF1037BD4680BD5D0100200004002028
:1010E00080B58CB000AF07F11C0300221A605A6073
:1010F0009A60DA601A610023BB613F4B1B6B3E4A6A
:1011000043F0040313633C4B1B6B03F00403BB610C
:10111000BB6900237B61384B1B6B374A43F080036C
:101120001363354B1B6B03F080037B617B690023EA
:101130003B61314B1B6B304A43F0010313632E4B71
:101140001B6B03F001033B613B690023FB602A4BEF
:101150001B6B294A43F002031363274B1B6B03F0FD
:101160000203FB60FB680023BB60234B1B6B224A1E
:1011700043F008031363204B1B6B03F00803BB60B1
:10118000BB6800237B601C4B1B6B1B4A43F0400376
:101190001363194B1B6B03F040037B607B680022D9
:1011A0002021164801F096FC00224FF4C04114485B
:1011B00001F090FC2023FB6101233B6200237B6252
:1011C0000023BB6207F11C0319460C4801F0D6FA54
:1011D0004FF4C043FB6101233B6200237B62002389
:1011E000BB6207F11C031946054801F0C7FA00BFAE
:1011F0003037BD4680BD00BF0038024000000240CD
:101200000018024080B500AF00F064FB00F010F859
:10121000FFF766FF00F012FA00F0E6F9FFF772FE42
:1012200000F036FAFFF7F2FE03F0CCFDFEE7000017
:1012300080B594B000AF07F120033022002118469A
:1012400005F0D8FE07F10C0300221A605A609A607C
:10125000DA601A610023BB60234B1B6C224A43F007
:1012600080531364204B1B6C03F08053BB60BB683E
:1012700000237B601D4B1B6823F440431B4A43F44F
:1012800080431360194B1B6803F440437B607B6809
:1012900002233B620123FB6210233B630023BB63F9
:1012A00007F12003184601F063FC0346002B01D030
:1012B00000F030F80F23FB6000233B6100237B61CB
:1012C0000023BB610023FB6107F10C0300211846DA
:1012D00001F0C6FE0346002B01D000F01BF800BF52
:1012E0005037BD4680BD00BF00380240007000404E
:1012F00080B582B000AF78607B681B68044A934277
:1013000001D100F009FB00BF0837BD4680BD00BF1A
:101310000000014080B400AF72B600BFFEE70000DD
:1013200080B582B000AF00237B60224B5B6C214A0A
:1013300043F4804353641F4B5B6C03F480437B6036
:101340007B6800233B601B4B1B6C1A4A43F08053A5
:101350001364184B1B6C03F080533B603B68002206
:101360000F216FF0010000F0EAFB002205210120AF
:1013700000F0E5FB012000F0FEFB00220521042027
:1013800000F0DDFB042000F0F6FB00220521052023
:1013900000F0D5FB052000F0EEFB002205215120D6
:1013A00000F0CDFB512000F0E6FB00BF0837BD4642
:1013B00080BD00BF0038024080B58CB000AF7860BF
:1013C0000023BB6200237B620023BB602E4B5B6C5F
:1013D0002D4A43F0010353642B4B5B6C03F0010374
:1013E000BB60BB6807F10C0207F1100311461846F9
:1013F00002F016F802F000F8B862BB6A234AA2FBBA
:1014000003239B0C013B7B62214B224A1A60204B39
:1014100040F2E732DA601E4A7B6A53601C4B0022BE
:101420001A611B4B00229A60194B00229A611848DE
:1014300002F020F9034687F82F3097F82F30002B61
:101440001BD1134802F070F9034687F82F3097F844
:101450002F30002B11D1192000F08DFB7B680F2B52
:1014600008D800227968192000F069FB0A4A7B68D5
:10147000136002E0012387F82F3097F82F301846C9
:101480003037BD4680BD00BF0038024083DE1B43BD
:10149000B4030020000001400C00002080B400AF25
:1014A000FEE780B400AFFEE780B400AFFEE780B493
:1014B00000AFFEE780B400AFFEE780B400AF00BF2E
:1014C000BD465DF8047B704780B500AF01F036FB88
:1014D00000BF80BD80B500AF00F08CFC00BF80BDB8
:1014E00080B400AF00BFBD465DF8047B70470000CC
:1014F00080B500AF024802F087F900BF80BD00BF91
:10150000B403002080B500AF024802F0EDFC00BF3C
:1015100080BD00BF0004002080B500AF024802F08B
:10152000E3FC00BF80BD00BF4804002080B500AFD1
:10153000024802F0D9FC00BF80BD00BF900400202B
:1015400080B400AF00BFBD465DF8047B704700006B
:1015500080B586B000AF7860144A154BD31A7B6112
:101560007B693B61134B1B68002B02D1114B124A64
:101570001A60104B1A687B6813443A699A4207D282
:1015800005F040FD03460C221A604FF0FF3309E0DE
:10159000084B1B68FB60074B1A687B681344054ABD
:1015A0001360FB6818461837BD4680BD0000032055
:1015B00000040000FC030020A843002080B400AF1A
:1015C000084BD3F88830074A43F47003C2F88830D8
:1015D000044B4FF000629A6000BFBD465DF8047B8B
:1015E000704700BF00ED00E080B500AF114B124A1C
:1015F0001A60104B4FF416525A600E4B00229A603C
:101600000C4B0022DA600B4B00221A61094B0C22B2
:101610005A61084B00229A61064B0022DA610548A4
:1016200002F0CAFA0346002B01D0FFF773FE00BF99
:1016300080BD00BF000400200010014080B500AF55
:10164000114B124A1A60104B4FF4E1325A600E4BA4
:1016500000229A600C4B0022DA600B4B00221A61C8
:10166000094B0C225A61084B00229A61064B00225A
:10167000DA61054802F0A0FA0346002B01D0FFF71B
:1016800049FE00BF80BD00BF480400200044004068
:1016900080B500AF114B124A1A60104B4FF416522E
:1016A0005A600E4B00229A600C4B0022DA600B4B02
:1016B00000221A61094B0C225A61084B00229A61E0
:1016C000064B0022DA61054802F076FA0346002B49
:1016D00001D0FFF71FFE00BF80BD00BF90040020B7
:1016E0000048004080B58EB000AF786007F1240359
:1016F00000221A605A609A60DA601A617B681B687F
:10170000584A934235D100233B62574B5B6C564A93
:1017100043F010035364544B5B6C03F010033B62C3
:101720003B6A0023FB61504B1B6B4F4A43F00103A4
:1017300013634D4B1B6B03F00103FB61FB694FF41B
:10174000C0637B620223BB620023FB6203233B6313
:1017500007237B6307F124031946444801F00EF880
:1017600000220521252000F0EAF9252000F003FAE7
:1017700073E07B681B683E4A934234D10023BB610F
:10178000394B1B6C384A43F400331364364B1B6CE3
:1017900003F40033BB61BB6900237B61324B1B6BDD
:1017A000314A43F0080313632F4B1B6B03F008030C
:1017B0007B617B6960237B620223BB620023FB6247
:1017C00003233B6307237B6307F12403194629485E
:1017D00000F0D4FF00220521262000F0B0F92620D9
:1017E00000F0C9F939E07B681B68234A934234D181
:1017F00000233B611C4B1B6C1B4A43F48023136486
:10180000194B1B6C03F480233B613B690023FB6095
:10181000154B1B6B144A43F002031363124B1B6BF3
:1018200003F00203FB60FB684FF440637B6202231A
:10183000BB620023FB6203233B6307237B6307F147
:10184000240319460D4800F099FF002205212720A6
:1018500000F075F9272000F08EF900BF3837BD463B
:1018600080BD00BF0010014000380240000002406F
:1018700000440040000C02400048004000040240C8
:10188000DFF834D0FFF79AFE0C480D490D4A0023CB
:1018900002E0D458C4500433C4188C42F9D30A4A25
:1018A0000A4C002301E013600432A242FBD305F08E
:1018B000AFFBFFF7A7FC70470000032000000020EB
:1018C00068000020107B000868000020A44300206E
:1018D000FEE7000080B500AF0E4B1B680D4A43F4D5
:1018E000007313600B4B1B680A4A43F48063136058
:1018F000084B1B68074A43F480731360032000F011
:1019000013F90F20FFF758FDFFF70AFD00231846D3
:1019100080BD00BF003C024080B400AF064B1B7886
:101920001A46064B1B681344044A136000BFBD46A9
:101930005DF8047B704700BF10000020D804002031
:1019400080B400AF034B1B681846BD465DF8047BAE
:10195000704700BFD804002080B584B000AF786025
:10196000FFF7EEFFB8607B68FB60FB68B3F1FF3FF9
:1019700005D00A4B1B781A46FB681344FB6000BF76
:10198000FFF7DEFF0246BB68D31AFA689A42F7D81F
:1019900000BF00BF1037BD4680BD00BF1000002053
:1019A00080B485B000AF78607B6803F00703FB600C
:1019B0000C4BDB68BB60BA684FF6FF031340BB609B
:1019C000FB681A02BB68134343F0BF6343F4003360
:1019D000BB60044ABB68D36000BF1437BD465DF8E6
:1019E000047B704700ED00E080B400AF044BDB687F
:1019F0001B0A03F007031846BD465DF8047B7047D9
:101A000000ED00E080B483B000AF0346FB7197F9AE
:101A10000730002B0BDBFB7903F01F02074997F916
:101A200007305B09012000FA02F241F8232000BFD1
:101A30000C37BD465DF8047B704700BF00E100E055
:101A400080B483B000AF03463960FB7197F907306B
:101A5000002B0ADB3B68DAB20C4997F90730120118
:101A6000D2B20B4483F800230AE03B68DAB208499B
:101A7000FB7903F00F03043B1201D2B20B441A7638
:101A800000BF0C37BD465DF8047B704700E100E005
:101A900000ED00E080B489B000AFF860B9607A6012
:101AA000FB6803F00703FB61FB69C3F10703042B29
:101AB00028BF0423BB61FB690433062B02D9FB69F1
:101AC000033B00E000237B614FF0FF32BB6902FA69
:101AD00003F3DA43BB681A407B699A404FF0FF3149
:101AE0007B6901FA03F3D9437B680B401343184623
:101AF0002437BD465DF8047B7047000080B400AF1A
:101B0000BFF34F8F00BF064BDB6803F4E06204496C
:101B1000044B1343CB60BFF34F8F00BF00BFFDE703
:101B200000ED00E00400FA0580B582B000AF7860F7
:101B30007868FFF735FF00BF0837BD4680BD80B528
:101B400086B000AF0346B9607A60FB7300237B6107
:101B5000FFF74AFF78617A68B9687869FFF79AFFFA
:101B6000024697F90F3011461846FFF769FF00BF8C
:101B70001837BD4680BD80B582B000AF0346FB710B
:101B800097F907301846FFF73DFF00BF0837BD46FD
:101B900080BD80B500AFFFF7B1FF80B582B000AF68
:101BA00078607B68002B01D101230EE07B685B79B4
:101BB000DBB2002B05D17B6800221A717868FFF731
:101BC000B5F97B6801225A71002318460837BD46D3
:101BD00080BD80B487B000AFF860B9607A60002340
:101BE0003B61FB6802225A7100237B610AE07B693A
:101BF0009B00BA681A44FB681B6812681A607B690C
:101C000001337B617A697B689A42F0D3FB681B6879
:101C10001B683B61FB6801225A713B6918461C37FF
:101C2000BD465DF8047B704780B584B000AF786036
:101C30007B689B6DFB60FFF783FEB8607B6893F861
:101C40003530DBB2022B08D07B6880225A657B6876
:101C5000002283F83420012352E07B681B681A6855
:101C60007B681B6822F016021A607B681B685A6941
:101C70007B681B6822F080025A617B681B6C002B1A
:101C800003D17B689B6C002B07D07B681B681A68AC
:101C90007B681B6822F008021A607B681B681A6860
:101CA0007B681B6822F001021A6013E0FFF748FE10
:101CB0000246BB68D31A052B0CD97B6820225A65D3
:101CC0007B68032283F835207B68002283F8342068
:101CD000032315E07B681B681B6803F00103002BDE
:101CE000E4D17B68DB6D3F229A40FB689A607B6899
:101CF000012283F835207B68002283F834200023FA
:101D000018461037BD4680BD80B483B000AF786000
:101D10007B6893F83530DBB2022B04D07B688022DD
:101D20005A6501230CE07B68052283F835207B6827
:101D30001B681A687B681B6822F001021A60002386
:101D400018460C37BD465DF8047B704780B586B0F9
:101D500000AFF860B960C7E900230123FB75234B8E
:101D60001B7E012B01D102233BE0204B01221A767E
:101D70004CF2503000F066F90346FB75FB7D002BFA
:101D80002BD1FB68002B05D13B781946B86800F0D1
:101D900011FA16E0FB68012B05D13B881946B8689B
:101DA00000F0E4F90DE0FB68022B05D13B68194611
:101DB000B86800F0B9F904E0D7E90023B86800F08A
:101DC00081F94CF2503000F03DF90346FB75084BA9
:101DD0001B69074A23F001031361044B00221A76A2
:101DE000FB7D18461837BD4680BD00BFDC040020CF
:101DF000003C024080B582B000AF00237B604C4BBA
:101E0000DB6803F4F973002B20D04A4B1B78DBB25C
:101E1000012B07D1474BDB687B60464B4FF0FF320D
:101E2000DA600BE0434B1B78DBB2022B03D1414B52
:101E30001B697B6002E03F4B5B697B6000F0DCF973
:101E4000786800F083F83B4B00221A70384BDB684F
:101E500003F00103002B4AD0354B0122DA60354BE9
:101E60001B78DBB2012B2DD1324B5B68013B314A31
:101E70005360304B5B68002B15D02E4BDB687B60CA
:101E8000786800F059F82B4BDB680133294AD3609E
:101E9000284BDB687B60274B1B7ADBB219467868DE
:101EA00000F01AFB23E04FF0FF337B60214A7B6890
:101EB000D360204B00221A7000F01AFC786800F002
:101EC0003BF814E01B4B1B78DBB2022B07D100F070
:101ED0000FFC184B1B69184600F02EF804E0154B58
:101EE0005B69184600F028F8124B00221A70114B5B
:101EF0001B78DBB2002B16D10D4B1B690C4A23F467
:101F0000004323F0FF031361094B1B69084A23F0C8
:101F100080731361064B1B69054A23F0007313613C
:101F2000044B00221A7600BF0837BD4680BD00BFB3
:101F3000003C0240DC04002080B483B000AF786035
:101F400000BF0C37BD465DF8047B704780B483B09A
:101F500000AF786000BF0C37BD465DF8047B70476A
:101F600080B483B000AF0023FB710B4B1B69002BC7
:101F70000BDA094B094A5A60074B094A5A60064B6B
:101F80001B69002B01DA0123FB71FB7918460C3722
:101F9000BD465DF8047B7047003C02402301674565
:101FA000AB89EFCD80B400AF054B1B69044A43F009
:101FB0000043136100231846BD465DF8047B70475B
:101FC000003C024080B400AF094B5B6903F00103A1
:101FD000002B07D0064B074A9A60054B064A9A60C9
:101FE000002300E001231846BD465DF8047B7047DE
:101FF000003C02403B2A19087F6E5D4C80B400AF64
:10200000054B5B69044A43F0010353610023184602
:10201000BD465DF8047B7047003C024080B500AFD0
:10202000074B1B78DBB2064A43F00203DBB21370A6
:102030004CF2503000F006F80346184680BD00BF51
:10204000143C024080B584B000AF78600023FB6090
:102050001A4B0022DA61FFF773FCF86010E07B682E
:10206000B3F1FF3F0CD07B68002B07D0FFF768FC73
:102070000246FB68D31A7A689A4201D2032319E018
:102080000F4BDB6803F48033002BE8D10C4BDB688B
:1020900003F00103002B02D0094B0122DA60084B48
:1020A000DB6803F4F973002B03D000F0A5F80123DB
:1020B00000E0002318461037BD4680BDDC04002038
:1020C000003C024080B485B000AFF860C7E900234F
:1020D000144B1B69134A23F440731361114B1B69A2
:1020E000104A43F4407313610E4B1B690D4A43F0D1
:1020F00001031361FB683A681A60BFF36F8F00BF7A
:10210000D7E900014FF000024FF000030A0000235E
:10211000F968043113460B6000BF1437BD465DF803
:10212000047B7047003C024080B483B000AF78600D
:1021300039600D4B1B690C4A23F4407313610A4B41
:102140001B69094A43F400731361074B1B69064A74
:1021500043F0010313617B683A681A6000BF0C37D3
:10216000BD465DF8047B7047003C024080B483B0FC
:1021700000AF78600B467B800D4B1B690C4A23F443
:10218000407313610A4B1B69094A43F4807313615E
:10219000074B1B69064A43F0010313617B687A8889
:1021A0001A8000BF0C37BD465DF8047B704700BF46
:1021B000003C024080B483B000AF78600B46FB70F7
:1021C0000C4B1B690B4A23F440731361094B094AFA
:1021D0001B691361074B1B69064A43F00103136136
:1021E0007B68FA781A7000BF0C37BD465DF8047B37
:1021F000704700BF003C024080B400AF2F4BDB684B
:1022000003F01003002B08D02D4BDB6943F01003C3
:102210002B4AD361294B1022DA60284BDB6803F08C
:102220002003002B08D0264BDB6943F00803244A27
:10223000D361224B2022DA60204BDB6803F040039D
:10224000002B08D01E4BDB6943F004031C4AD3610A
:102250001A4B4022DA60194BDB6803F08003002B35
:1022600008D0174BDB6943F00203154AD361134BC7
:102270008022DA60114BDB6803F48073002B09D0F5
:102280000F4BDB6943F001030D4AD3610B4B4FF455
:102290008072DA60094BDB6803F00203002B08D080
:1022A000074BDB6943F02003054AD361034B02224D
:1022B000DA6000BFBD465DF8047B7047003C024019
:1022C000DC04002080B584B000AF78603960012361
:1022D000FB730023BB60324B1B7E012B01D1022319
:1022E0005AE02F4B01221A764CF25030FFF7AAFE2B
:1022F0000346FB73FB7B002B4AD13B684FF0FF3258
:102300001A607B681B68012B17D17B681B69DAB2E6
:102310007B685B681946104600F0A4F84CF2503018
:10232000FFF790FE0346FB731E4B1B691D4A23F407
:10233000004323F00403136128E07B689B68BB60C3
:102340001CE07B681B69DBB21946B86800F0C4F872
:102350004CF25030FFF776FE0346FB73114B1B69BE
:10236000104A23F0FA031361FB7B002B03D03B6878
:10237000BA681A600AE0BB680133BB607B68DA6840
:102380007B689B681344BA689A42DAD300F0B0F9CC
:10239000034B00221A76FB7B18461037BD4680BDE2
:1023A000DC040020003C024080B584B000AF7860BF
:1023B0000123FB737B681B6803F00103002B1ED015
:1023C0007B685B68012B0DD17B689B8918467B6815
:1023D000DB8919467B689B681A4600F0F3F80346D0
:1023E000FB730CE07B689B8918467B68DB89194688
:1023F0007B689B681A4600F02DF90346FB737B68E7
:102400001B6803F00203002B06D07B681B7C184678
:1024100000F0B0F80346FB73FB7B18461037BD464F
:1024200080BD000080B483B000AF78600A4B1B8889
:102430009AB27B689A81094B1B889AB27B68DA81D1
:10244000074B1B78DAB27B681A7400BF0C37BD46A5
:102450005DF8047B704700BF163C02401A3C024006
:10246000143C024080B483B000AF03463960FB7176
:10247000184B1B69174A23F4407313613B68032B05
:1024800008D1144B1B69134A43F4004343F004037F
:1024900013610FE03B68012B06D10E4B1B690D4AFF
:1024A00043F00403136105E00A4B1B69094A43F436
:1024B00000431361074B1A69FB791B021343054A5A
:1024C00043F48033136100BF0C37BD465DF8047BD5
:1024D000704700BF003C024080B485B000AF786018
:1024E0000B46FB700023FB60FB78002B02D100231E
:1024F000FB6010E0FB78012B03D14FF48073FB608D
:1025000009E0FB78022B03D14FF40073FB6002E07B
:102510004FF44073FB607B680B2B02D97B6804335C
:102520007B60134B1B69124A23F440731361104BF9
:102530001A690F49FB6813430B610D4B1B690C4A69
:1025400023F0F80313610A4B1A697B68DB0013431D
:10255000074A43F002031361054B1B69044A43F425
:102560008033136100BF1437BD465DF8047B7047AC
:10257000003C024080B584B000AF0346FB710023ED
:10258000FB734CF25030FFF75DFD0346FB73FB7BA2
:10259000002B0FD10A4B1B78DBB2094A23F0100342
:1025A000DBB21370064B1B78DAB20549FB79134393
:1025B000DBB20B70FB7B18461037BD4680BD00BFF9
:1025C000143C024080B586B000AFF860B9607A6014
:1025D0000023FB754CF25030FFF734FD0346FB75CA
:1025E000FB7D002B2DD17B68012B02D07B68032B58
:1025F00009D1164B1B889AB2FB689BB2134913434F
:102600009BB20B8008E0124B1B889AB2BB689BB24E
:102610000F4913439BB20B807B68032B11D14CF203
:102620005030FFF70FFD0346FB75FB7D002B08D1F3
:10263000074B1B889AB2BB689BB2054913439BB2F8
:102640000B80FB7D18461837BD4680BD163C024006
:102650001A3C024080B586B000AFF860B9607A607D
:102660000023FB754CF25030FFF7ECFC0346FB7582
:10267000FB7D002B33D17B68012B02D07B68032BC1
:102680000BD1194B1B889AB2FB689BB2DB439BB200
:10269000154913409BB20B800AE0144B1B889AB279
:1026A000BB689BB2DB439BB2104913409BB20B80CB
:1026B0007B68032B13D14CF25030FFF7C3FC034669
:1026C000FB75FB7D002B0AD1084B1B889AB2BB68B7
:1026D0009BB2DB439BB2054913409BB20B80FB7D51
:1026E00018461837BD4680BD163C02401A3C0240D1
:1026F00080B400AF204B1B6803F40073002B17D08D
:102700001D4B1B681C4A23F4007313601A4B1B6893
:10271000194A43F400631360174B1B68164A23F4ED
:1027200000631360144B1B68134A43F40073136077
:10273000114B1B6803F48063002B17D00E4B1B68F2
:102740000D4A23F4806313600B4B1B680A4A43F461
:1027500080531360084B1B68074A23F480531360AF
:10276000054B1B68044A43F48063136000BFBD46F9
:102770005DF8047B704700BF003C024080B489B024
:1027800000AF7860396000237B6100233B61002348
:10279000BB610023FB6177E10122FB6902FA03F3CD
:1027A0007B613B681B687A6913403B613A697B69CE
:1027B0009A4240F066813B685B6803F00303012B9B
:1027C00005D03B685B6803F00303022B30D17B68C4
:1027D0009B68BB61FB695B00032202FA03F3DB43E6
:1027E000BA691340BB613B68DA68FB695B0002FAB7
:1027F00003F3BA691343BB617B68BA699A607B686B
:102800005B68BB610122FB6902FA03F3DB43BA692F
:102810001340BB613B685B681B0903F00102FB6965
:1028200002FA03F3BA691343BB617B68BA695A6061
:102830003B685B6803F00303032B17D07B68DB68FE
:10284000BB61FB695B00032202FA03F3DB43BA6955
:102850001340BB613B689A68FB695B0002FA03F3B3
:10286000BA691343BB617B68BA69DA603B685B682D
:1028700003F00303022B23D1FB69DA087B680832DB
:1028800053F82230BB61FB6903F007039B000F2262
:1028900002FA03F3DB43BA691340BB613B681A6970
:1028A000FB6903F007039B0002FA03F3BA691343C1
:1028B000BB61FB69DA087B680832B96943F822100A
:1028C0007B681B68BB61FB695B00032202FA03F3B0
:1028D000DB43BA691340BB613B685B6803F00302EA
:1028E000FB695B0002FA03F3BA691343BB617B68BF
:1028F000BA691A603B685B6803F44033002B00F050
:10290000C0800023FB60664B5B6C654A43F48043E8
:102910005364634B5B6C03F48043FB60FB68614A68
:10292000FB699B08023352F82330BB61FB6903F05B
:1029300003039B000F2202FA03F3DB43BA6913403F
:10294000BB617B68584A934237D07B68574A9342B1
:1029500031D07B68564A93422BD07B68554A9342CC
:1029600025D07B68544A93421FD07B68534A9342D8
:1029700019D07B68524A934213D07B68514A9342E4
:102980000DD07B68504A934207D07B684F4A9342F0
:1029900001D1092312E00A2310E008230EE00723E7
:1029A0000CE006230AE0052308E0042306E00323E5
:1029B00004E0022302E0012300E00023FA6902F0B0
:1029C000030292009340BA691343BB613549FB6926
:1029D0009B080233BA6941F823203D4B9B68BB61D9
:1029E0003B69DB43BA691340BB613B685B6803F436
:1029F0008013002B03D0BA693B691343BB61344A8F
:102A0000BB699360324BDB68BB613B69DB43BA69EE
:102A10001340BB613B685B6803F40013002B03D0D9
:102A2000BA693B691343BB61294ABB69D360284B30
:102A30005B68BB613B69DB43BA691340BB613B68C0
:102A40005B6803F40033002B03D0BA693B6913437E
:102A5000BB611F4ABB6953601D4B1B68BB613B696F
:102A6000DB43BA691340BB613B685B6803F48033A6
:102A7000002B03D0BA693B691343BB61144ABB699D
:102A80001360FB690133FB61FB690F2B7FF684AE9A
:102A900000BF00BF2437BD465DF8047B704700BF10
:102AA00000380240003801400000024000040240AB
:102AB00000080240000C02400010024000140240D6
:102AC00000180240001C0240002002400024024086
:102AD000003C014080B483B000AF78600B467B803F
:102AE00013467B707B78002B03D07A887B689A61D1
:102AF00003E07B881A047B689A6100BF0C37BD46EF
:102B00005DF8047B704780B485B000AF78600B46F9
:102B10007B807B685B69FB607A88FB6813401A04E2
:102B2000FB68D9437B880B401A437B689A6100BFDE
:102B30001437BD465DF8047B7047000080B500AFD8
:102B4000064B5B6903F48033002B05D000F008F8D6
:102B5000024B4FF480325A6100BF80BD003C0140FF
:102B600080B400AF00BFBD465DF8047B7047000035
:102B700080B586B000AF78607B68002B01D101235F
:102B800067E27B681B6803F00103002B75D0884B5C
:102B90009B6803F00C03042B0CD0854B9B6803F05F
:102BA0000C03082B12D1824B5B6803F48003B3F54E
:102BB000800F0BD17E4B1B6803F40033002B5BD0DE
:102BC0007B685B68002B57D1012342E27B685B681E
:102BD000B3F5803F06D1764B1B68754A43F48033CA
:102BE00013601DE07B685B68B3F5A02F0CD1704BC0
:102BF0001B686F4A43F4802313606D4B1B686C4A5B
:102C000043F4803313600BE0694B1B68684A23F47C
:102C100080331360664B1B68654A23F4802313607E
:102C20007B685B68002B13D0FEF78AFE386108E0F2
:102C3000FEF786FE02463B69D31A642B01D90323B3
:102C400007E25B4B1B6803F40033002BF0D014E069
:102C5000FEF776FE386108E0FEF772FE02463B6939
:102C6000D31A642B01D90323F3E1514B1B6803F4FE
:102C70000033002BF0D100E000BF7B681B6803F03D
:102C80000203002B63D04A4B9B6803F00C03002B1C
:102C90000BD0474B9B6803F00C03082B1CD1444B13
:102CA0005B6803F48003002B16D1414B1B6803F0D3
:102CB0000203002B05D07B68DB68012B01D00123C8
:102CC000C7E13B4B1B6823F0F8027B681B69DB0004
:102CD000374913430B603AE07B68DB68002B20D058
:102CE000344B01221A60FEF72BFE386108E0FEF734
:102CF00027FE02463B69D31A022B01D90323A8E120
:102D00002B4B1B6803F00203002BF0D0284B1B68F1
:102D100023F0F8027B681B69DB00254913430B6035
:102D200015E0244B00221A60FEF70AFE386108E025
:102D3000FEF706FE02463B69D31A022B01D9032394
:102D400087E11B4B1B6803F00203002BF0D17B686B
:102D50001B6803F00803002B36D07B685B69002BEF
:102D600016D0154B01221A60FEF7EAFD386108E023
:102D7000FEF7E6FD02463B69D31A022B01D9032375
:102D800067E10B4B5B6F03F00203002BF0D01BE0FD
:102D9000094B00221A60FEF7D3FD38610EE0FEF702
:102DA000CFFD02463B69D31A022B07D9032350E11A
:102DB0000038024000004742800E4742884B5B6F5C
:102DC00003F00203002BEAD17B681B6803F00403C5
:102DD000002B00F097800023FB75814B1B6C03F0E8
:102DE0008053002B0FD10023BB607D4B1B6C7C4AB2
:102DF00043F0805313647A4B1B6C03F08053BB6029
:102E0000BB680123FB75774B1B6803F48073002BB1
:102E100018D1744B1B68734A43F480731360FEF738
:102E20008FFD386108E0FEF78BFD02463B69D31A3F
:102E3000022B01D903230CE16A4B1B6803F4807356
:102E4000002BF0D07B689B68012B06D1644B1B6F75
:102E5000634A43F0010313671CE07B689B68052B02
:102E60000CD15F4B1B6F5E4A43F0040313675C4B4E
:102E70001B6F5B4A43F0010313670BE0584B1B6F5A
:102E8000574A23F001031367554B1B6F544A23F035
:102E9000040313677B689B68002B15D0FEF750FD79
:102EA00038610AE0FEF74CFD02463B69D31A41F255
:102EB0008832934201D90323CBE0494B1B6F03F0C7
:102EC0000203002BEED014E0FEF73AFD38610AE071
:102ED000FEF736FD02463B69D31A41F2883293422F
:102EE00001D90323B5E03E4B1B6F03F00203002B17
:102EF000EED1FB7D012B05D1394B1B6C384A23F0F9
:102F0000805313647B689B69002B00F0A180344BD5
:102F10009B6803F00C03082B5CD07B689B69022B39
:102F200041D1314B00221A60FEF70AFD386108E0FA
:102F3000FEF706FD02463B69D31A022B01D9032393
:102F400087E0274B1B6803F00073002BF0D17B68F0
:102F5000DA697B681B6A1A437B685B6A9B011A43C8
:102F60007B689B6A5B08013B1B041A437B68DB6A36
:102F70001B061B4913434B601B4B01221A60FEF7D3
:102F8000DFFC386108E0FEF7DBFC02463B69D31A40
:102F9000022B01D903235CE0114B1B6803F0007383
:102FA000002BF0D054E0104B00221A60FEF7C8FC52
:102FB000386108E0FEF7C4FC02463B69D31A022BD5
:102FC00001D9032345E0064B1B6803F00073002B77
:102FD000F0D13DE07B689B69012B07D1012338E0EC
:102FE0000038024000700040600047421B4B5B68A5
:102FF000FB607B689B69012B28D0FB6803F480028F
:103000007B68DB699A4221D1FB6803F03F027B6851
:103010001B6A9A421AD1FA6847F6C07313407A685D
:10302000526A9201934211D1FB6803F440327B68EB
:103030009B6A5B08013B1B049A4207D1FB6803F0C3
:1030400070627B68DB6A1B069A4201D0012300E0B4
:10305000002318461837BD4680BD00BF0038024027
:1030600080B584B000AF786039607B68002B01D1F7
:103070000123CCE0684B1B6803F00F033A689A42C7
:103080000CD9654B3A68D2B21A70634B1B6803F0D7
:103090000F033A689A4201D00123B8E07B681B68AD
:1030A00003F00203002B20D07B681B6803F00403AD
:1030B000002B05D0594B9B68584A43F4E05393606A
:1030C0007B681B6803F00803002B05D0534B9B68FB
:1030D000524A43F460439360504B9B6823F0F002E4
:1030E0007B689B684D4913438B607B681B6803F0CA
:1030F0000103002B44D07B685B68012B07D1474B51
:103100001B6803F40033002B19D101237FE07B6897
:103110005B68022B03D07B685B68032B07D13F4BB6
:103120001B6803F00073002B09D101236FE03B4BB8
:103130001B6803F00203002B01D1012367E0374B2A
:103140009B6823F003027B685B68344913438B6000
:10315000FEF7F6FBF8600AE0FEF7F2FB0246FB68BA
:10316000D31A41F28832934201D903234FE02B4B0B
:103170009B6803F00C027B685B689B009A42EBD172
:10318000254B1B6803F00F033A689A420CD2224B7E
:103190003A68D2B21A70204B1B6803F00F033A68EA
:1031A0009A4201D0012332E07B681B6803F00403DC
:1031B000002B08D0194B9B6823F4E0527B68DB6836
:1031C000164913438B607B681B6803F00803002BD0
:1031D00009D0124B9B6823F460427B681B69DB00BB
:1031E0000E4913438B6000F021F802460B4B9B689D
:1031F0001B0903F00F030A49CB5C22FA03F3094AC7
:103200001360094B1B681846FEF7D6F800231846D2
:103210001037BD4680BD00BF003C02400038024070
:10322000B47A0008080000200C0000202DE9B04FFF
:1032300090B000AF00237B630023FB6300233B635C
:103240000023BB63594B9B6803F00C03082B0DD084
:10325000082B00F2A180002B02D0042B03D09BE0AE
:10326000534BBB639BE0534BBB6398E04F4B5B6896
:1032700003F03F037B634D4B5B6803F48003002B3B
:1032800028D04A4B5B689B0900223B627A623B6A0A
:10329000C3F308000021474B03FB01F2002300FBAE
:1032A00003F31344434AA0FB0212FA620A46BA62CD
:1032B000FA6A1344FB627B6B0022BB61FA61D7E9B7
:1032C0000623D7E90A01FCF7E3FF02460B46134643
:1032D000FB6353E0354B5B689B0900223B617A61DD
:1032E0003B69C3F3080A4FF0000B52465B464FF0B0
:1032F00000004FF00001590141EAD261500102463D
:103300000B46B2EB0A0863EB0B094FF000024FF0DB
:1033100000034FEA891343EA98634FEA8812B2EB3D
:10332000080463EB09054FF000024FF00003EB00C7
:1033300043EA5473E20014461D4614EB0A033B6053
:1033400045EB0B037B604FF000024FF00003D7E921
:10335000004529468B02214643EA915321468A02C1
:10336000104619467B6B0022BB60FA60D7E9022346
:10337000FCF78EFF02460B461346FB630B4B5B6864
:103380001B0C03F0030301335B003B63FA6B3B6BE5
:10339000B2FBF3F3BB6302E0054BBB6300BFBB6B47
:1033A00018464037BD46BDE8B08F00BF0038024028
:1033B0000024F40040787D0180B400AF034B1B680B
:1033C0001846BD465DF8047B704700BF080000202A
:1033D00080B500AFFFF7F0FF0246054B9B689B0AE4
:1033E00003F007030349CB5C22FA03F3184680BDC0
:1033F00000380240C47A000880B500AFFFF7DCFF58
:103400000246054B9B685B0B03F007030349CB5C4B
:1034100022FA03F3184680BD00380240C47A00083F
:1034200080B483B000AF786039607B680F221A6087
:10343000124B9B6803F003027B685A600F4B9B683A
:1034400003F0F0027B689A600C4B9B6803F4E05237
:103450007B68DA60094B9B68DB0803F4E0527B6809
:103460001A61074B1B6803F00F023B681A6000BF2C
:103470000C37BD465DF8047B704700BF0038024042
:10348000003C024080B582B000AFFEF759FA786088
:10349000724B1B68714A43F00103136008E0FEF7AA
:1034A0004FFA02467B68D31A022B01D90323D0E0DE
:1034B0006A4B1B6803F00203002BF0D0674B1B68BC
:1034C000664A43F080031360FEF73AFA7860634B74
:1034D00000229A600AE0FEF733FA02467B68D31AAC
:1034E00041F28832934201D90323B2E05B4B9B68DF
:1034F00003F00C03002BEED1FEF722FA7860574B55
:103500001B68564A23F45023136008E0FEF718FAAC
:1035100002467B68D31A642B01D9032399E04F4BF1
:103520001B6803F40033002BF0D1FEF709FA786032
:103530004A4B1B68494A23F08073136008E0FEF78A
:10354000FFF902467B68D31A022B01D9032380E0DE
:10355000424B1B6803F00073002BF0D1FEF7F0F92B
:1035600078603E4B1B683D4A23F08063136008E09F
:10357000FEF7E6F902467B68D31A022B01D9032332
:1035800067E0364B1B6803F00063002BF0D1FEF7B9
:10359000D7F97860314B1B68304A23F080531360B1
:1035A00008E0FEF7CDF902467B68D31A022B01D959
:1035B00003234EE0294B1B6803F00053002BF0D18E
:1035C000264B274A5A60254B264AC3F88420234BB2
:1035D000244AC3F88820214BDB68204A23F4F8539F
:1035E000D3601E4BDB681D4A23F40053D3601B4B92
:1035F000DB681A4A23F48043D360184BDB68174A10
:1036000043F41F03D360154BDB68144A43F40013E3
:10361000D360124BDB68114A43F48003D3600F4B35
:103620005B6F0E4A23F0010353670C4B5B6F0B4A31
:1036300043F0807353670C4B0C4A1A600C4B1B68A9
:103640001846FDF7B9FE0346002B01D0012300E028
:10365000002318460837BD4680BD00BF0038024031
:103660001030000400300024080000200024F40082
:103670000C00002080B582B000AF78607B68002B22
:1036800001D1012341E07B6893F83D30DBB2002B90
:1036900006D17B68002283F83C20786800F039F876
:1036A0007B68022283F83D207B681A687B680433BC
:1036B0001946104600F0C0F97B68012283F84620C5
:1036C0007B68012283F83E207B68012283F83F203B
:1036D0007B68012283F840207B68012283F8412027
:1036E0007B68012283F842207B68012283F8432013
:1036F0007B68012283F844207B68012283F84520FF
:103700007B68012283F83D20002318460837BD4618
:1037100080BD80B483B000AF786000BF0C37BD4679
:103720005DF8047B7047000080B485B000AF78601E
:103730007B6893F83D30DBB2012B01D001234EE0D2
:103740007B68022283F83D207B681B68DA687B680F
:103750001B6842F00102DA607B681B68234A9342CF
:1037600022D07B681B68B3F1804F1DD07B681B683B
:103770001F4A934218D07B681B681E4A934213D09D
:103780007B681B681C4A93420ED07B681B681B4AEF
:10379000934209D07B681B68194A934204D07B6826
:1037A0001B68184A934211D17B681B689B6803F021
:1037B0000703FB60FB68062B10D07B681B681A6848
:1037C0007B681B6842F001021A6007E07B681B6897
:1037D0001A687B681B6842F001021A6000231846D1
:1037E0001437BD465DF8047B704700BF0000014000
:1037F0000004004000080040000C004000040140AC
:10380000004001400018004080B584B000AF7860EF
:103810007B681B68DB68FB607B681B681B69BB609F
:10382000BB6803F00203002B20D0FB6803F0020307
:10383000002B1BD07B681B686FF002021A617B684B
:1038400001221A777B681B689B6903F00303002B36
:1038500003D0786800F0D2F805E0786800F0C4F88A
:10386000786800F0D5F87B6800221A77BB6803F00F
:103870000403002B20D0FB6803F00403002B1BD0B3
:103880007B681B686FF004021A617B6802221A775A
:103890007B681B689B6903F44073002B03D0786836
:1038A00000F0ACF805E0786800F09EF8786800F069
:1038B000AFF87B6800221A77BB6803F00803002B7F
:1038C00020D0FB6803F00803002B1BD07B681B682B
:1038D0006FF008021A617B6804221A777B681B6804
:1038E000DB6903F00303002B03D0786800F086F84F
:1038F00005E0786800F078F8786800F089F87B686F
:1039000000221A77BB6803F01003002B20D0FB685D
:1039100003F01003002B1BD07B681B686FF01002B4
:103920001A617B6808221A777B681B68DB6903F4DD
:103930004073002B03D0786800F060F805E07868E9
:1039400000F052F8786800F063F87B6800221A777C
:10395000BB6803F00103002B0CD0FB6803F00103EC
:10396000002B07D07B681B686FF001021A61786832
:10397000FDF7BEFCBB6803F08003002B0CD0FB6896
:1039800003F08003002B07D07B681B686FF0800278
:103990001A61786800F006F9BB6803F04003002B59
:1039A0000CD0FB6803F04003002B07D07B681B683A
:1039B0006FF040021A61786800F034F8BB6803F0D9
:1039C0002003002B0CD0FB6803F02003002B07D052
:1039D0007B681B686FF020021A61786800F0D8F8E5
:1039E00000BF1037BD4680BD80B483B000AF7860A3
:1039F00000BF0C37BD465DF8047B704780B483B0D0
:103A000000AF786000BF0C37BD465DF8047B70479F
:103A100080B483B000AF786000BF0C37BD465DF85E
:103A2000047B704780B483B000AF786000BF0C3770
:103A3000BD465DF8047B704780B485B000AF786008
:103A400039607B681B68FB607B68464A934213D0F1
:103A50007B68B3F1804F0FD07B68434A93420BD011
:103A60007B68424A934207D07B68414A934203D025
:103A70007B68404A934208D1FB6823F07003FB60E7
:103A80003B685B68FA681343FB607B68354A934286
:103A90002BD07B68B3F1804F27D07B68324A9342AA
:103AA00023D07B68314A93421FD07B68304A9342CF
:103AB0001BD07B682F4A934217D07B682E4A9342D3
:103AC00013D07B682D4A93420FD07B682C4A9342D7
:103AD0000BD07B682B4A934207D07B682A4A9342DB
:103AE00003D07B68294A934208D1FB6823F44073D2
:103AF000FB603B68DB68FA681343FB60FB6823F0FC
:103B000080023B685B691343FB607B68FA681A605C
:103B10003B689A687B68DA623B681A687B689A62DD
:103B20007B68104A934203D07B68124A934203D1C8
:103B30003B681A697B681A637B6801225A617B685B
:103B40001B6903F00103012B05D17B681B6923F07E
:103B500001027B681A6100BF1437BD465DF8047B23
:103B6000704700BF00000140000400400008004012
:103B7000000C0040000401400040014000440140AE
:103B80000048014000180040001C00400020004098
:103B900080B483B000AF786000BF0C37BD465DF8DD
:103BA000047B704780B483B000AF786000BF0C37EF
:103BB000BD465DF8047B704780B582B000AF786089
:103BC0007B68002B01D1012342E07B6893F84130F0
:103BD000DBB2002B06D17B68002283F84020786896
:103BE000FDF780FD7B68242283F841207B681B68F9
:103BF000DA687B681B6822F40052DA60786800F0AB
:103C000055FE7B681B681A697B681B6822F490422A
:103C10001A617B681B685A697B681B6822F02A025C
:103C20005A617B681B68DA687B681B6842F4005243
:103C3000DA607B6800225A647B68202283F8412086
:103C40007B68202283F842207B6800225A6300238D
:103C500018460837BD4680BD80B58AB002AFF8600F
:103C6000B9603B601346FB8000237B61FB6893F8DF
:103C70004130DBB2202B75D1BB68002B02D0FB8812
:103C8000002B01D101236EE0FB6800225A64FB681F
:103C9000212283F84120FDF753FE7861FB68FA8802
:103CA0009A84FB68FA88DA84FB689B68B3F5805FC6
:103CB00008D1FB681B69002B04D10023FB61BB68A2
:103CC000BB6103E0BB68FB610023BB612EE03B6886
:103CD00000937B6900228021F86800F0B7FB03465F
:103CE000002B05D0FB68202283F8412003233AE013
:103CF000FB69002B0BD1BB691B881A46FB681B684C
:103D0000C2F308025A60BB690233BB6107E0FB697A
:103D10001A78FB681B685A60FB690133FB61FB681A
:103D2000DB8C9BB2013B9AB2FB68DA84FB68DB8CCC
:103D30009BB2002BCBD13B6800937B6900224021D2
:103D4000F86800F083FB0346002B05D0FB682022B7
:103D500083F84120032306E0FB68202283F84120FA
:103D6000002300E0022318462037BD4680BD80B501
:103D70008AB002AFF860B9603B601346FB80002355
:103D80007B61FB6893F84230DBB2202B40F08180EE
:103D9000BB68002B02D0FB88002B01D1012379E006
:103DA000FB6800225A64FB68222283F84220FB68E9
:103DB00000221A63FDF7C4FD7861FB68FA889A85D2
:103DC000FB68FA88DA85FB689B68B3F5805F08D1E9
:103DD000FB681B69002B04D10023FB61BB68BB613E
:103DE00003E0BB68FB610023BB6147E03B680093D5
:103DF0007B6900222021F86800F028FB0346002B95
:103E000005D0FB68202283F84220032342E0FB69AF
:103E1000002B0CD1FB681B685B689BB2C3F30803E3
:103E20009AB2BB691A80BB690233BB611FE0FB68B1
:103E30009B68B3F5805F07D0FB689B68002B0AD1B5
:103E4000FB681B69002B06D1FB681B685B68DAB254
:103E5000FB691A7008E0FB681B685B68DBB203F063
:103E60007F03DAB2FB691A70FB690133FB61FB68FF
:103E7000DB8D9BB2013B9AB2FB68DA85FB68DB8D78
:103E80009BB2002BB2D1FB68202283F84220002392
:103E900000E0022318462037BD4680BD80B584B0BF
:103EA00000AFF860B9601346FB80FB6893F84230BE
:103EB000DBB2202B12D1BB68002B02D0FB88002B79
:103EC00001D101230BE0FB6800221A63FB881A462C
:103ED000B968F86800F013FB034600E002231846B7
:103EE0001037BD4680BD000080B5BAB000AF786025
:103EF0007B681B681B68C7F8E4307B681B68DB685D
:103F0000C7F8E0307B681B685B69C7F8DC300023CA
:103F1000C7F8D8300023C7F8D430D7F8E43003F01E
:103F20000F03C7F8D830D7F8D830002B0FD1D7F807
:103F3000E43003F02003002B09D0D7F8E03003F081
:103F40002003002B03D0786800F0F2FB5BE2D7F887
:103F5000D830002B00F0DE80D7F8DC3003F001030E
:103F6000002B06D1D7F8E03003F49073002B00F05B
:103F7000D180D7F8E43003F00103002B0BD0D7F841
:103F8000E03003F48073002B05D07B685B6C43F05A
:103F900001027B685A64D7F8E43003F00403002B75
:103FA0000BD0D7F8DC3003F00103002B05D07B6881
:103FB0005B6C43F002027B685A64D7F8E43003F08C
:103FC0000203002B0BD0D7F8DC3003F00103002BE9
:103FD00005D07B685B6C43F004027B685A64D7F8B9
:103FE000E43003F00803002B11D0D7F8E03003F0E1
:103FF0002003002B05D1D7F8DC3003F00103002BA0
:1040000005D07B685B6C43F008027B685A647B6870
:104010005B6C002B00F0F281D7F8E43003F0200352
:10402000002B08D0D7F8E03003F02003002B02D09B
:10403000786800F07DFB7B681B685B6903F04003D8
:10404000402B0CBF01230023DBB2C7F8D4307B68C0
:104050005B6C03F00803002B03D1D7F8D430002B9E
:104060004FD0786800F085FA7B681B685B6903F0C5
:104070004003402B41D17B681B681433C7F89C3048
:10408000D7F89C3053E8003FC7F89830D7F89830FD
:1040900023F04003C7F8D0307B681B681433D7F88F
:1040A000D020C7F8A820C7F8A430D7F8A410D7F8B4
:1040B000A82041E80023C7F8A030D7F8A030002B93
:1040C000D9D17B68DB6B002B13D07B68DB6B7E4A1E
:1040D0001A657B68DB6B1846FDF716FE0346002B5E
:1040E00016D07B68DB6B1B6D7A68D26B10469847E5
:1040F0000EE0786800F094F90AE0786800F090F932
:1041000006E0786800F08CF97B6800225A6475E15B
:1041100000BF73E17B681B6B012B40F04F81D7F828
:10412000E43003F01003002B00F04881D7F8E030B2
:1041300003F01003002B00F041810023BB607B687B
:104140001B681B68BB607B681B685B68BB60BB68E7
:104150007B681B685B6903F04003402B40F0B6802E
:104160007B68DB6B1B685B68A7F8BE30B7F8BE30B6
:10417000002B00F045817B689B8DB7F8BE209A42EA
:1041800080F03E817B68B7F8BE20DA857B68DB6B08
:10419000DB69B3F5807F00F088807B681B680C3397
:1041A000C7F88830D7F8883053E8003FC7F8843024
:1041B000D7F8843023F48073C7F8B8307B681B6865
:1041C0000C33D7F8B820C7F89420C7F89030D7F848
:1041D0009010D7F8942041E80023C7F88C30D7F826
:1041E0008C30002BD9D17B681B6814337B677B6FC5
:1041F00053E8003F3B673B6F23F00103C7F8B4303F
:104200007B681B681433D7F8B420C7F88020FB679D
:10421000F96FD7F8802041E80023BB67BB6F002B04
:10422000E1D17B681B6814333B663B6E53E8003F6B
:10423000FB65FB6D23F04003C7F8B0307B681B685B
:104240001433D7F8B020FA66BB66B96EFA6E41E84F
:1042500000237B667B6E002BE3D17B68202283F8F2
:1042600042207B6800221A637B681B680C33FB6466
:10427000FB6C53E8003FBB64BB6C23F01003C7F832
:10428000AC307B681B680C33D7F8AC20BA657B6513
:10429000796DBA6D41E800233B653B6D002BE3D19E
:1042A0007B68DB6B1846FDF7BFFC7B6802225A6314
:1042B0007B689A8D7B68DB8D9BB2D31A9BB21946C3
:1042C000786800F0B7F89BE0394600087B689A8D63
:1042D0007B68DB8D9BB2D31AA7F8CE307B68DB8D71
:1042E0009BB2002B00F08E80B7F8CE30002B00F090
:1042F00089807B681B680C33BB63BB6B53E8003F52
:104300007B637B6B23F49073C7F8C8307B681B68B2
:104310000C33D7F8C8207A643B64396C7A6C41E876
:104320000023FB63FB6B002BE3D17B681B6814331A
:104330007B627B6A53E8003F3B623B6A23F00103E8
:10434000C7F8C4307B681B681433D7F8C4203A63BD
:10435000FB62F96A3A6B41E80023BB62BB6A002B3F
:10436000E3D17B68202283F842207B6800221A6315
:104370007B681B680C333B613B6953E8003FFB6083
:10438000FB6823F01003C7F8C0307B681B680C3350
:10439000D7F8C020FA61BB61B969FA6941E8002326
:1043A0007B617B69002BE3D17B6802225A63B7F8FB
:1043B000CE301946786800F03DF823E0D7F8E430B5
:1043C00003F08003002B09D0D7F8E03003F080031E
:1043D000002B03D0786800F043F914E0D7F8E430FC
:1043E00003F04003002B0ED0D7F8E03003F0400379
:1043F000002B08D0786800F083F904E000BF02E0E9
:1044000000BF00E000BFE837BD4680BD80B483B088
:1044100000AF786000BF0C37BD465DF8047B704785
:1044200080B483B000AF786000BF0C37BD465DF844
:10443000047B704780B483B000AF78600B467B800C
:1044400000BF0C37BD465DF8047B704780B586B071
:1044500000AFF860B9603B601346FB713BE03B6A1C
:10446000B3F1FF3F37D0FDF76BFA02463B68D31A32
:104470003A6A9A4202D33B6A002B01D103233AE005
:10448000FB681B68DB6803F00403002B23D0BB68C8
:10449000802B20D0BB68402B1DD0FB681B681B689D
:1044A00003F00803082B16D100237B61FB681B680F
:1044B0001B687B61FB681B685B687B617B69F868D4
:1044C00000F057F8FB6808225A64FB68002283F862
:1044D000402001230FE0FB681B681A68BB6813408B
:1044E000BA689A420CBF01230023DBB21A46FB795B
:1044F0009A42B4D0002318461837BD4680BD80B418
:1045000085B000AFF860B9601346FB80FB68BA68FD
:104510009A62FB68FA889A85FB68FA88DA85FB68F4
:1045200000225A64FB68222283F84220FB681B6940
:10453000002B07D0FB681B68DA68FB681B6842F435
:104540008072DA60FB681B685A69FB681B6842F07E
:1045500001025A61FB681B68DA68FB681B6842F05D
:104560002002DA60002318461437BD465DF8047B4C
:10457000704780B495B000AF78607B681B680C33DF
:104580007B637B6B53E8003F3B633B6B23F490738F
:10459000FB647B681B680C33FA6C3A64FB63F96B51
:1045A0003A6C41E80023BB63BB6B002BE5D17B6811
:1045B0001B6814333B623B6A53E8003FFB61FB69B5
:1045C00023F00103BB647B681B681433BA6CFA6286
:1045D000BB62B96AFA6A41E800237B627B6A002BFE
:1045E000E5D17B681B6B012B19D17B681B680C33F1
:1045F000FB60FB6853E8003FBB60BB6823F010031F
:104600007B647B681B680C337A6CBA617B61796967
:10461000BA6941E800233B613B69002BE5D17B6827
:10462000202283F842207B6800221A6300BF54379F
:10463000BD465DF8047B704780B584B000AF7860FC
:104640007B689B6BFB60FB680022DA85FB680022BD
:10465000DA84F868FFF7E4FE00BF1037BD4680BD7E
:1046600080B485B000AF78607B6893F84130DBB2EE
:10467000212B3ED17B689B68B3F5805F14D17B68AA
:104680001B69002B10D17B681B6AFB60FB681B88D1
:104690001A467B681B68C2F308025A607B681B6A73
:1046A0009A1C7B681A6208E07B681B6A591C7A684E
:1046B00011621A787B681B685A607B68DB8C9BB23E
:1046C000013B9BB27A681946D184002B0FD17B68DD
:1046D0001B68DA687B681B6822F08002DA607B68FE
:1046E0001B68DA687B681B6842F04002DA600023CE
:1046F00000E0022318461437BD465DF8047B70477E
:1047000080B582B000AF78607B681B68DA687B6830
:104710001B6822F04002DA607B68202283F8412087
:104720007868FFF773FE002318460837BD4680BD42
:1047300080B58CB000AF78607B6893F84230DBB214
:10474000222B40F0AE807B689B68B3F5805F17D169
:104750007B681B69002B13D10023FB627B689B6A7B
:10476000BB627B681B685B689BB2C3F308039AB2A9
:10477000BB6A1A807B689B6A9A1C7B689A6226E0F7
:104780007B689B6AFB620023BB627B689B68B3F516
:10479000805F07D07B689B68002B0AD17B681B6910
:1047A000002B06D17B681B685B68DAB2FB6A1A7063
:1047B00008E07B681B685B68DBB203F07F03DAB25A
:1047C000FB6A1A707B689B6A5A1C7B689A627B68DA
:1047D000DB8D9BB2013B9BB27A681946D185002BD9
:1047E0005DD17B681B68DA687B681B6822F0200259
:1047F000DA607B681B68DA687B681B6822F4807269
:10480000DA607B681B685A697B681B6822F00102CA
:104810005A617B68202283F842207B6800225A6319
:104820007B681B6B012B35D17B6800221A637B6888
:104830001B680C337B617B6953E8003F3B613B693C
:1048400023F010037B627B681B680C337A6A3A6240
:10485000FB61F9693A6A41E80023BB61BB69002B3F
:10486000E5D17B681B681B6803F01003102B0AD18D
:104870000023FB607B681B681B68FB607B681B6810
:104880005B68FB60FB687B689B8D19467868FFF767
:10489000D1FD02E07868FCF7F3FB002302E000237F
:1048A00000E0022318463037BD4680BD2DE9B04FE9
:1048B000C0B000AFC7F8F400D7F8F4301B681B692C
:1048C00023F44050D7F8F430D968D7F8F4301A6898
:1048D00040EA01031361D7F8F4309A68D7F8F4304E
:1048E0001B691A43D7F8F4305B691A43D7F8F430E0
:1048F000DB691343C7F8F830D7F8F4301B68DB687E
:1049000023F4164121F00C01D7F8F4301A68D7F8D7
:10491000F8300B43D360D7F8F4301B685B6923F49D
:104920004070D7F8F4309969D7F8F4301A6840EA43
:1049300001035361D7F8F4301A688F4B9A4205D0BF
:10494000D7F8F4301A688D4B9A4204D1FEF754FD23
:10495000C7F8FC0003E0FEF73BFDC7F8FC00D7F802
:10496000F430DB69B3F5004F40F00C81D7F8FC3030
:104970000022C7F8E830C7F8EC20D7E93A452246CC
:104980002B469118B9655B41FB65D7E91623214693
:1049900012EB0108294643EB01094FF000024FF0EA
:1049A00000034FEAC90343EA58734FEAC80290462E
:1049B0009946234618EB0303C7F8E0302B4649EB32
:1049C0000303C7F8E430D7F8F4305B680022C7F877
:1049D000D830C7F8DC20D7E936120B46DB183B6528
:1049E000134642EB03037B65D7E91423D7E938016B
:1049F000FBF74EFC02460B46614BA3FB02235B090F
:104A00001C01D7F8FC300022C7F8D030C7F8D420FA
:104A1000D7E9348942464B469118B9645B41FB643F
:104A2000D7E91223414612EB010A494643EB010B39
:104A30004FF000024FF000034FEACB0343EA5A73F2
:104A40004FEACA0292469B4643461AEB0303C7F855
:104A5000C8304B464BEB0303C7F8CC30D7F8F430E3
:104A60005B680022C7F8C030C7F8C420D7E930120D
:104A70000B46DB183B64134642EB03037B64D7E928
:104A80001023D7E93201FBF703FC02460B4611461F
:104A90003B4BA3FB01235B09642202FB03F3CB1A0C
:104AA000DB0003F13202364BA3FB02235B095B0000
:104AB00003F4F8731C44D7F8FC300022C7F8B83070
:104AC000C7F8BC20D7E92E8942464B469118B963F6
:104AD0005B41FB63D7E90E234146511839634946D0
:104AE0004B417B634FF000024FF00003D7E90CAB62
:104AF0005946CB00514643EA51735146CA0010460D
:104B00001946034642469B18C7F8B0304B460A4642
:104B100042EB0303C7F8B430D7F8F4305B680022E7
:104B2000C7F8A830C7F8AC20D7E92A120B46DB1823
:104B3000BB62134642EB0303FB62D7E90A23D7E9C2
:104B40002C01FBF7A5FB02460B460D4BA3FB021302
:104B50005B09642101FB03F3D31ADB003233084AFB
:104B6000A2FB03235B0903F00702D7F8F4301B68AC
:104B700022449A6006E100BF001001400014014089
:104B80001F85EB51D7F8FC300022C7F8A030C7F8DA
:104B9000A420D7E9288942464B46911839625B41E7
:104BA0007B62D7E9082341465418494643EB010587
:104BB0004FF000024FF00003EB0043EA5473E200B1
:104BC00014461D464346E318C7F898304B4645EB5C
:104BD0000303C7F89C30D7F8F4305B680022C7F8AD
:104BE0009030C7F894204FF000024FF00003D7E94F
:104BF000244529468B00214643EA917321468A00C9
:104C0000D7E92601FBF744FB02460B46604BA3FBAA
:104C100002235B091C01D7F8FC300022C7F888305A
:104C2000C7F88C20D7E9228942464B469118B961D2
:104C30005B41FB61D7E9062341465118396149467A
:104C40004B417B614FF000024FF00003D7E904AB0A
:104C50005946CB00514643EA51735146CA001046AB
:104C60001946034642469B18C7F880304B460A4611
:104C700042EB0303C7F88430D7F8F4305B680022B6
:104C8000BB67FA674FF000024FF00003D7E91E89B7
:104C900049468B00414643EA917341468A00D7E971
:104CA0002001FBF7F5FA02460B461146384BA3FBF1
:104CB00001235B09642202FB03F3CB1A1B0132338D
:104CC000334AA2FB03235B0903F0F0031C44D7F82B
:104CD000FC3000223B677A67D7E91C8942464B4685
:104CE0009118B9605B41FB60D7E902234146511836
:104CF000396049464B417B604FF000024FF00003A2
:104D0000D7E900AB5946CB00514643EA51735146AF
:104D1000CA0010461946034642469B18BB664B46DE
:104D20000A4642EB0303FB66D7F8F4305B680022C7
:104D30003B667A664FF000024FF00003D7E918890E
:104D400049468B00414643EA917341468A00D7E9C0
:104D50001A01FBF79DFA02460B460D4BA3FB02130B
:104D60005B09642101FB03F3D31A1B013233084AA8
:104D7000A2FB03235B0903F00F02D7F8F4301B6892
:104D800022449A6000BF07F58077BD46BDE8B08F2A
:104D90001F85EB5180B485B000AF0346FB80002334
:104DA000FB60B7F90630842B05D0B7F90620FB6805
:104DB00013440333FB60FB6818461437BD465DF8A7
:104DC000047B704780B500AF00F050FE002318460A
:104DD00080BDF0B589B004AF786039607B685B69ED
:104DE000002B20D07B689B69002B1CD07B685C6803
:104DF0007B681D687B681E697B68B3F908301846BC
:104E0000FFF7C8FF01467B685B697A689269029286
:104E1000019300913B6832462946204600F05EFC33
:104E20000346FB601CE07B685C687B681D687B68F0
:104E30001B699EB27B68B3F908301846FFF7AAFFDA
:104E4000024607F10C03019300923B683246294663
:104E5000204600F0A0FC0346012B01D0002300E017
:104E6000FB6818461437BD46F0BD80B584B000AF6E
:104E700078607B68FB60FB68002B01D0FB6800E07A
:104E80000123184600F0BEFD002318461037BD462A
:104E900080BD80B582B000AF78607B685B68002B16
:104EA00007D07B685B681946012000F02AFA0346A8
:104EB00003E0012000F00DFA034618460837BD460E
:104EC00080BD80B483B000AF78607B6803F10802D6
:104ED0007B685A607B684FF0FF329A607B6803F111
:104EE00008027B68DA607B6803F108027B681A615C
:104EF0007B6800221A6000BF0C37BD465DF8047B5A
:104F0000704780B483B000AF78607B6800221A617C
:104F100000BF0C37BD465DF8047B704780B485B098
:104F200000AF786039607B685B68FB603B68FA685B
:104F30005A60FB689A683B689A60FB689B683A68AD
:104F40005A60FB683A689A603B687A681A617B68C5
:104F50001B685A1C7B681A6000BF1437BD465DF899
:104F6000047B704780B485B000AF786039603B68DF
:104F70001B68BB60BB68B3F1FF3F03D17B681B6953
:104F8000FB600CE07B680833FB6002E0FB685B6859
:104F9000FB60FB685B681B68BA689A42F6D2FB68E4
:104FA0005A683B685A603B685B683A689A603B683D
:104FB000FA689A60FB683A685A603B687A681A61D6
:104FC0007B681B685A1C7B681A6000BF1437BD469B
:104FD0005DF8047B704780B485B000AF78607B6873
:104FE0001B69FB607B685B687A6892689A607B6883
:104FF0009B687A6852685A60FB685B687A689A4274
:1050000003D17B689A68FB685A607B6800221A614A
:10501000FB681B685A1EFB681A60FB681B68184611
:105020001437BD465DF8047B7047000080B584B03E
:1050300000AF786039607B68FB60FB68002B0AD1A9
:105040004FF0500383F31188BFF36F8FBFF34F8F7F
:10505000BB6000BFFEE701F0FDFBFB681A68FB6860
:10506000DB6BF968096C01FB03F31A44FB689A6077
:10507000FB6800229A63FB681A68FB685A60FB6849
:105080001A68FB68DB6B013BF968096C01FB03F3F1
:105090001A44FB68DA60FB68FF2283F84420FB684F
:1050A000FF2283F845203B68002B14D1FB681B6965
:1050B000002B1AD0FB681033184600F07BFF034624
:1050C000002B12D00C4B4FF080521A60BFF34F8F61
:1050D000BFF36F8F09E0FB6810331846FFF7F1FE4E
:1050E000FB6824331846FFF7ECFE01F0E3FB0123D5
:1050F00018461037BD4680BD04ED00E080B58EB087
:1051000002AFF860B9607A603B60FB68002B0AD19F
:105110004FF0500383F31188BFF36F8FBFF34F8FAE
:10512000BB6200BFFEE73B68002B0AD14FF0500383
:1051300083F31188BFF36F8FBFF34F8F7B6200BF84
:10514000FEE77B68002B02D0BB68002B01D0012357
:1051500000E00023002B0AD14FF0500383F31188A5
:10516000BFF36F8FBFF34F8F3B6200BFFEE77B68DB
:10517000002B02D1BB68002B01D1012300E00023EA
:10518000002B0AD14FF0500383F31188BFF36F8FC8
:10519000BFF34F8FFB6100BFFEE748237B617B6954
:1051A000482B0AD04FF0500383F31188BFF36F8F61
:1051B000BFF34F8FBB6100BFFEE77B693B68FB62BB
:1051C000FB6A002B0DD0FB6A012283F8462097F87A
:1051D0003820FB6A009313467A68B968F86800F0D3
:1051E0003FF8FB6A18463037BD4680BD80B58AB0AF
:1051F00002AFF860B9601346FB71FB68002B0AD15F
:105200004FF0500383F31188BFF36F8FBFF34F8FBD
:105210003B6100BFFEE7FB68BA6802FB03F3FB617A
:10522000FB694833184601F0DBFCB861BB69002B11
:1052300011D0BB697B617B6948337B61BB6900220C
:1052400083F84620FA79BB69009313467A69B968F6
:10525000F86800F005F8BB6918462037BD4680BDE8
:1052600080B584B000AFF860B9607A60FB70BB684D
:10527000002B03D1BB69BA691A6002E0BB697A6886
:105280001A60BB69FA68DA63BB69BA681A640121FB
:10529000B869FFF7CBFE00BF1037BD4680BD80B5B3
:1052A00082B000AF78607B68002B0ED07B68002254
:1052B0009A607B6800221A607B680022DA60002313
:1052C00000220021786800F037F800BF0837BD469B
:1052D00080BD80B586B000AF0346FB7101237B61C2
:1052E00000233B61FB791A4639697869FFF77EFF35
:1052F000F860F868FFF7D3FFFB6818461837BD461B
:1053000080BD80B588B002AF03463960FB710123D0
:105310007B6100233B61FB7900933B680022396984
:105320007869FFF7EBFEF860F868FFF7B8FFFB68F5
:1053300018461837BD4680BD80B58EB000AFF86006
:10534000B9607A603B6000237B63FB683B633B6B27
:10535000002B0AD14FF0500383F31188BFF36F8FF6
:10536000BFF34F8FBB6200BFFEE7BB68002B03D1CA
:105370003B6B1B6C002B01D1012300E00023002BB1
:105380000AD14FF0500383F31188BFF36F8FBFF33F
:105390004F8F7B6200BFFEE73B68022B03D13B6B64
:1053A000DB6B012B01D1012300E00023002B0AD18C
:1053B0004FF0500383F31188BFF36F8FBFF34F8F0C
:1053C0003B6200BFFEE701F00BF80346002B02D161
:1053D0007B68002B01D1012300E00023002B0AD1C0
:1053E0004FF0500383F31188BFF36F8FBFF34F8FDC
:1053F000FB6100BFFEE701F02DFA3B6B9A6B3B6B44
:10540000DB6B9A4202D33B68022B29D13A68B96818
:10541000386B00F08FF8F8623B6B5B6A002B10D0A2
:105420003B6B2433184600F0C5FD0346002B13D018
:105430003F4B4FF080521A60BFF34F8FBFF36F8F17
:105440000AE0FB6A002B07D0394B4FF080521A60FC
:10545000BFF34F8FBFF36F8F01F02CFA012363E08E
:105460007B68002B03D101F025FA00235CE07B6B05
:10547000002B06D107F11403184600F0FFFD0123AD
:105480007B6301F017FA00F051FB01F0E3F93B6B8D
:1054900093F844305BB2B3F1FF3F03D13B6B002282
:1054A00083F844203B6B93F845305BB2B3F1FF3F88
:1054B00003D13B6B002283F8452001F0FBF93A1D34
:1054C00007F114031146184600F0EEFD0346002BC9
:1054D00024D1386B00F0EAF80346002B18D03B6B60
:1054E00010337A681146184600F040FD386B00F022
:1054F0008BF800F063FB0346002B7FF47CAF0C4B72
:105500004FF080521A60BFF34F8FBFF36F8F72E777
:10551000386B00F079F800F051FB6CE7386B00F065
:1055200073F800F04BFB002318463837BD4680BDAA
:1055300004ED00E080B586B000AFF860B9607A6035
:1055400000237B61FB689B6B3B61FB681B6C002B42
:105550000DD1FB681B68002B4DD1FB689B6818467A
:1055600000F05CFF7861FB6800229A6043E07B6892
:10557000002B19D1FB685868FB681B6C1A46B96888
:1055800001F06CFDFB685A68FB681B6C1A44FB68F1
:105590005A60FB685A68FB689B689A422BD3FB6889
:1055A0001A68FB685A6026E0FB68D868FB681B6CC9
:1055B0001A46B96801F052FDFB68DA68FB681B6C9B
:1055C0005B421A44FB68DA60FB68DA68FB681B68B8
:1055D0009A4207D2FB689A68FB681B6C5B421A44CC
:1055E000FB68DA607B68022B05D13B69002B02D097
:1055F0003B69013B3B613B695A1CFB689A637B69D1
:1056000018461837BD4680BD80B584B000AF7860BD
:1056100001F020F97B6893F84530FB7311E07B685B
:105620005B6A002B12D07B682433184600F0C2FC62
:105630000346002B01D000F099FDFB7B013BDBB260
:10564000FB7397F90F30002BE9DC00E000BF7B68AB
:10565000FF2283F8452001F02DF901F0FBF87B686B
:1056600093F84430BB7311E07B681B69002B12D0A8
:105670007B681033184600F09DFC0346002B01D0D8
:1056800000F074FDBB7B013BDBB2BB7397F90E30BE
:10569000002BE9DC00E000BF7B68FF2283F8442098
:1056A00001F008F900BF1037BD4680BD80B584B059
:1056B00000AF786001F0CEF87B689A6B7B68DB6B9B
:1056C0009A4202D10123FB6001E00023FB6001F05C
:1056D000F1F8FB6818461037BD4680BD80B58EB026
:1056E00004AFF860B9607A603B607B6B002B0AD135
:1056F0004FF0500383F31188BFF36F8FBFF34F8FC9
:105700003B6200BFFEE7BB6B002B0AD14FF050039A
:1057100083F31188BFF36F8FBFF34F8FFB6100BF1F
:10572000FEE754233B613B69542B0AD04FF05003F2
:1057300083F31188BFF36F8FBFF34F8FBB6100BF3F
:10574000FEE73B69BB6B002B1ED07B6B002B1BD095
:10575000BB6B7B627B6A7A6B1A637B6A022283F87B
:105760005120002303937B6A029307F114030193F2
:105770003B6B00933B687A68B968F86800F050F8B2
:10578000786A00F0D5F801E000237B617B69184658
:105790002837BD4680BD80B58CB004AFF860B960D5
:1057A0003B601346FB80FB889B00184601F018FA0B
:1057B00078617B69002B0ED0542001F011FAF8615A
:1057C000FB69002B03D0FB697A691A6305E07869ED
:1057D00001F0D2FA01E00023FB61FB69002B17D036
:1057E000FB69002283F85120FA8800230393FB69A8
:1057F0000293FB6A0193BB6A00933B68B968F8683F
:1058000000F00EF8F86900F093F80123BB6102E0A4
:105810004FF0FF33BB61BB6918462037BD4680BDE2
:1058200080B588B000AFF860B9607A603B603B6BD0
:105830001A6B7B6803F18043013B9B001344BB61FF
:10584000BB6923F00703BB61BB6903F00703002BAF
:105850000AD04FF0500383F31188BFF36F8FBFF36B
:105860004F8F7B6100BFFEE7BB68002B1FD000237A
:10587000FB6112E0BA68FB69134419783A6BFB6963
:10588000134434330A461A70BA68FB6913441B7810
:10589000002B06D0FB690133FB61FB690F2BE9D9B3
:1058A00000E000BF3B6B002283F8432003E03B6B2A
:1058B000002283F83420BB6A062B01D90623BB6281
:1058C0003B6BBA6ADA623B6BBA6A5A643B6B002282
:1058D0009A643B6B04331846FFF713FB3B6B18339A
:1058E0001846FFF70EFB3B6B3A6B1A61BB6AC3F1BC
:1058F00007023B6B9A613B6B3A6B5A623B6B00222F
:10590000DA643B6B002283F850203A68F968B86982
:1059100000F070FE02463B6B1A60FB6A002B02D05F
:10592000FB6A3A6B1A6000BF2037BD4680BD00009D
:1059300080B582B000AF786000F08CFF2A4B1B6806
:105940000133294A1360294B1B68002B09D1274AD0
:105950007B681360244B1B68012B10D100F082FC84
:105960000DE0234B1B68002B09D1204B1B68DA6A22
:105970007B68DB6A9A4202D81C4A7B6813601D4B25
:105980001B6801331B4A13607B68DB6A01229A4063
:10599000194B1B681343184A13607B68DA6A134675
:1059A0009B0013449B00154A1A447B680433194634
:1059B0001046FFF7B3FA00F07DFF0D4B1B68002B7C
:1059C0000ED00A4B1B68DA6A7B68DB6A9A4207D200
:1059D0000B4B4FF080521A60BFF34F8FBFF36F8FA6
:1059E00000BF0837BD4680BDFC050020FC04002038
:1059F00008060020180600200406002000050020EC
:105A000004ED00E080B584B000AF78600023FB6057
:105A10007B68002B17D0134B1B68002B0AD04FF06C
:105A2000500383F31188BFF36F8FBFF34F8FBB60B9
:105A300000BFFEE700F07AF80021786800F074FDFE
:105A400000F0BCF8F860FB68002B07D1064B4FF064
:105A500080521A60BFF34F8FBFF36F8F00BF1037B4
:105A6000BD4680BD2406002004ED00E080B58AB06C
:105A700004AF0023BB6000237B603A46391D07F169
:105A800008031846FBF7A8FA39687B68BA680292DF
:105A900001930023009300230A461E491E48FFF786
:105AA0001DFE03461D4A13601C4B1B68002B02D0D1
:105AB00001237B6101E000237B617B69012B16D10F
:105AC0004FF0500383F31188BFF36F8FBFF34F8FF5
:105AD0003B6100BF124B4FF0FF321A60114B0122A5
